:1006870075A15575A1AAE5B954F84404F5B9E4F57F
:02069700A1229E
:0E06A800EF4E600905A1EF1F70F61E80F322D1
:10004100AD07AC06ED4C600E7FE87E031206A8ED0D
:070051001D70F11C80EE227E
:0406F20043C61022C9
:10056C00C29FD29EC29DC2CDC2CC43878090002830
:10057C0012049D00000082E47B0AFAF9F89000282E
:10058C00E0FCA3E0FDA3E0FEA3E0FF1203FF90005C
:10059C002CEBF0900028E0FCA3E0FDA3E0FEA3E030
:1005AC00FFE47B0AFAF9F81203FF90002812049179
:1005BC0090002CE0C39405401F900028E0FCA3E0C1
:1005CC00FDA3E0FEA3E02401FFE43EFEE43DFDE4D8
:1005DC003CFC900028120491E589540F4420F589C5
:1005EC0043C9A0900028A3A3A3E0F404F58DD28EF8
:0405FC00D299D29C22
:0106000022D7
:0806CC003098FDC298AF99229D
:0806D4008F993099FDC29922B3
:0A06C200C2C7D2C5D2C475C2F3222C
:0806DC0030C0FDC2C0AFC12215
:0806E4008FC130C1FDC2C1222B
:1006700075A15575A1AAEF600543B101800353B17F
:07068000FEE4F5A1F5FF22E5
:030058008FFF22F5
:100652007374617274202E2E2E0A0050574D5F4320
:0E06620059435F454E442020253032580A008F
:100003001206877F057E0012004112056C7BFF7A82
:100013000679521200C95392CF439330759E04431D
:100023009D02539DFD439D04439D08539DDF439DC6
:0E003300401206ECD2AF759C10759B4080FE0B
:0F06990050574D5F4354524C2020494E540A0095
:0606EC00439D90D2ED22B7
:03005B0002060199
:10060100C0E0C0F0C083C082C0D075D008439D1047
:10061100759C10759B407BFF7A0679991200C9D0B1
:0A062100D0D082D083D0F0D0E032B8
:030000000206B63F
:0C06B600787FE4F6D8FD75812202000375
:1003C30075F008758200EF2FFFEE33FECD33CDCCF1
:1003D30033CCC58233C5829BED9AEC99E582984074
:1003E3000CF582EE9BFEED9AFDEC99FC0FD5F0D651
:1003F300E4CEFBE4CDFAE4CCF9A88222B800C1B97B
:100403000059BA002DEC8BF084CFCECDFCE5F0CBB8
:10041300F97818EF2FFFEE33FEED33FDEC33FCEBF1
:1004230033FB10D703994004EB99FB0FD8E5E4F9AC
:10043300FA227818EF2FFFEE33FEED33FDEC33FC99
:10044300C933C910D7059BE99A4007EC9BFCE99A8D
:10045300F90FD8E0E4C9FAE4CCFB2275F010EF2FD2
:10046300FFEE33FEED33FDCC33CCC833C810D707D2
:100473009BEC9AE899400AED9BFDEC9AFCE899F80D
:0E0483000FD5F0DAE4CDFBE4CCFAE4C8F922A0
:0C049100ECF0A3EDF0A3EEF0A3EFF022DE
:10049D00A8828583F0D083D0821204B41204B412E2
:1004AD0004B41204B4E473E493A3C583C5F0C58307
:1004BD00C8C582C8F0A3C583C5F0C583C8C582C8A9
:0104CD00220C
:10005E00E515242BF582E43400F583E00515229096
:10006E00002830100390002BE475F00112052602D3
:10007E0004CE2009E97F2ED2098018EF540F249068
:10008E00D43440D4FF300D0BEF24BFB41A0050030C
:10009E002461FFE516600215160519E519700205B3
:1000AE001830100E900028E475F001120526EF02AC
:1000BE00051402062B7403D2108003E4C210F5154A
:1000CE0090002812053DE4F516F518F519E51660B1
:1000DE00077F201200A180F57517FFC20AC209C260
:1000EE000BC20CC20EC20FC21112006DFF700D308A
:1000FE0010057F001200B2AF19AE1822B4255FC2F0
:10010E00D5C20D12006DFF24D0B40A00501A75F03E
:10011E000A781630D50508B6FF0106C6A426F620C5
:10012E00D5047002D20C80D924CFB41A00EF50043B
:10013E00C2E5D20D0202B3D20A80C6D20980C0D265
:10014E000B80BCD2D580BAD20E80B47F201200A113
:10015E00200B077401B5160040F112005EFF12006D
:10016E00A10200DBD211D20F809512005EFB1200AD
:10017E005EFA12005EF94A4B700679847A037BFFB1
:10018E00200B2EE516602A7E008E827583001204E7
:10019E00E760060EEE651770F0C2D5EBC0E0EAC060
:1001AE00E0E9C0E0EE1202FAD0E0F9D0E0FAD0E0D9
:1001BE00FB1204CEFF60AAEBC0E0EAC0E0E9C0E0AB
:1001CE001200A1D0E02401F9D0E03400FAD0E0FB17
:1001DE00E5170460DCD517D980877BFF7A0279F6A4
:1001EE00D20B809C791080027908C20FC211800850
:1001FE00D2D5790A8004790AC2D5E517047002F5C2
:10020E0017E4FAFDFEFF12005EFC7B08200A1312B3
:10021E00005EFD7B1030090A12005EFE12005EFFCA
:10022E007B20EC3382D592D55013C3E43009069F60
:10023E00FFE49EFEE4200A039DFDE49CFCE4CBF863
:10024E00C20AEC700CCFCECDCCE824F8F870F38057
:10025E0017C3EF33FFEE33FEED33FDEC33FCEB3320
:10026E00FB994002FB0FD8E9EB300A05F8D0E0C449
:10027E0048B20AC0E00AEC4D4E4F78207B0070C2A7
:10028E00EAB5170040BCC0E01202FCD0F0D0E0206E
:10029E000A04C4C0E0C4B20AC0F012008AD0F0D57D
:1002AE00F0EB0200DB12054601785301F2580149CA
:1002BE004C01454201F64F01FE4401FE49015E43E9
:0802CE0002045501E84601E8B5
:1002D6004501E84703A450014D2D01512E01742B11
:1002E600015523017220038D2A010D480000016C7F
:1002F6003F3F3F00790AA2D5200C14300E09B910F1
:10030600020404B9080104A2D5200F0250010420FA
:100316000B68920BB516005034C0E07F20300C19E4
:100326007F30A20B720F720E500F120353C20BC214
:100336000FC20EC2117F30800F300E03E9C0E012EB
:1003460000A1300E03D0E0F9D0E0B516CC300E1780
:100356007F30B9100C1200A17F58300D077F7880CE
:1003660003B908031200A1300B057F2D0200A17FFF
:10037600202011F87F2B200FF322920B80CF286EBE
:10038600756C6C2900D20A12005E300AF8C20A782F
:100396001630D50108F602010D2D504349581200BA
:1003A6005E2403B405004001E490039F931200927B
:0D03B600743A120092D20C7516040201F286
:1004CE00BB010689828A83E0225002E722BBFE022C
:0904DE00E32289828A83E493225F
:1004E700BB010CE58229F582E5833AF583E02250CA
:1004F70006E92582F8E622BBFE06E92582F8E22214
:0D050700E58229F582E5833AF583E493222D
:10051400BB010689828A83F0225002F722BBFE01C6
:02052400F322C0
:10052600F8E0FBA3A3E0F925F0F0E582158270025E
:070536001583E0FA38F02202
:09053D00EBF0A3EAF0A3E9F022BF
:10054600D083D082F8E4937012740193700DA3A344
:1005560093F8740193F5828883E473740293686058
:06056600EFA3A3A380DF58
:10062B00EFB40A07740D120636740A309811A899A4
:10063B00B8130CC2983098FDA899C298B811F6302F
:07064B0099FDC299F5992207
:00000001FF
