:100AE10075A15575A1AAE5B954F84404F5B9E4F521
:020AF100A12240
:0E0AF300EF4E600905A1EF1F70F61E80F32282
:100A8700CDEFCDCCEECCED4C600E7FE87E03120AA5
:090A9700F3ED1D70F11C80EE224C
:0400370043C610228A
:1008A900C29FD29EC29DC2CDC2CC438780900028F0
:1008B9001204D200000082E47B0AFAF9F8900028B9
:1008C900E0FCA3E0FDA3E0FEA3E0FF1204349000E6
:1008D9002CEBF0900028E0FCA3E0FDA3E0FEA3E0F0
:1008E900FFE47B0AFAF9F81204349000281204C6CE
:1008F90090002CE0C39405401F900028E0FCA3E081
:10090900FDA3E0FEA3E02401FFE43EFEE43DFDE497
:100919003CFC9000281204C6E589540F4420F5894F
:1009290043C9A0900028A3A3A3E0F404F58DD28EB7
:04093900D299D29CE1
:01093D002297
:08002F003098FDC298AF992240
:080B01008F993099FDC2992281
:100AA00075A15575A1AAEF600543B101800353B14B
:070AB000FEE4F5A1F5FF22B1
:030B09008FFF2239
:1009CA004B65795F467265654275665B25645D3D78
:1009DA00256409000A006368202564207072657323
:1009EA007365642C76616C75653A25640A006368E0
:1009FA002025642075702C76616C75653A25640A29
:0C0A0A000063685B25645D3D2564090005
:100ACD004400680304050641006C004100670041C5
:030ADD00005600C0
:100A6600EFD39404501874682FF582E43400F583AC
:100A7600E0FFE5C354F8FEEF4EF5C37F00227FFF8B
:010A8600224D
:05073900900028EBF028
:10073E00EF540C60037FFF22EFF452935292ED6060
:10074E000343C310E4900029F0900029E0FFC39406
:10075E000440030207EFE4A3F0A3F07D05120A663E
:10076E00CFEDCF1DEF6023E4FFFEE5C320E70B0FB7
:10077E00EF70010E4E70F37FFF2290002BE025C428
:10078E00F090002AE035C5F080D690002AE0FEA356
:10079E00E0FF7C007D051203A3900029E0FD25E01B
:1007AE00245FF582E43400F583EEF0A3EFF07BFFD7
:1007BE007A0979CAEDFF900031E4F0A3EFF025E05D
:1007CE00245FF582E43400F583E0FFA3E09000336C
:1007DE00CFF0A3EFF01200A9900029E004F0020779
:1007EE00577BFF7A0979DE1200A9900028E060029B
:0407FE00D2E97F00BD
:0108020022D3
:100AB700D3EF9DEE9C4007EF9DFFEE9CFE22C3ED1A
:060AC7009FFFEC9EFE22E1
:1005A100E4900028F0900028E0FFC3940440030287
:1005B1000736E4FDFC7905120A66900028E02468FC
:1005C100F582E43400F583E014900029F0CFE9CFFF
:1005D10019EF601DE4FFFEE5C320E70B0FEF70018B
:1005E1000E4E70F37FFF22E5C42DFDE5C53CFC8076
:1005F100DCCEECCECFEDCF7C007D051203A39000C5
:1006010028E0FD25E02457F582E43400F583EEF07F
:10061100A3EFF0ED25E0245FF582E43400F583E0FB
:10062100FEA3E0FFED25E02457F582E43400F583D5
:10063100E0FCA3E0FD120AB790002AEEF0A3EFF070
:10064100D394D0EE9407406E900028E0FF74017EB1
:1006510000C8EFC8088005C333CE33CED8F9FF9068
:100661000067E0FDEF5D70317BFF7A0979E0900072
:1006710029E0FF900031E4F0A3EFF0900028E0259D
:10068100E02457F582E43400F583E0FFA3E0900015
:1006910033CFF0A3EFF01200A9900067E0FF9000C4
:1006A10028E0FE7401C8EEC8088002C333D8FC4FAD
:1006B100900067F08076C390002BE094F490002ABC
:1006C100E094015067900028E0FF74017E00C8EFBC
:1006D100C8088005C333CE33CED8F9FF900067E058
:1006E100FDEF5D6047E0FF900028E0FE7401C8EE79
:1006F100C8088002C333D8FCF45F900067F07BFF29
:100701007A0979F8900029E0FD900031E4F0A3ED39
:10071100F0EE25E02457F582E43400F583E0FFA3F1
:10072100E0900033CFF0A3EFF01200A9900028E091
:0707310004F00205A67F00A1
:01073800229E
:03003B00020803B5
:0D080300C0E0C0F0C083C082C0D075D00836
:10081000ADC4ACC5900056E0FF25E0245FF582E44E
:100820003400F583E0FAA3E0249CFBEA34FFFAC32A
:10083000ED9BEC9A502390006CE0FE74682FF582DB
:10084000E43400F583E014FF7401C8EFC8088002A7
:10085000C333D8FC4E90006CF07BFF7A0A790B9082
:100860000056E02468F582E43400F583E024FFFEBE
:10087000E434FF900031F0A3CEF0CEECCECFEDCF3C
:10088000A3ECF0A3EFF01200A9900056E004F0C32F
:0E08900094044002E4F0900056E0FF120A6665
:0B089E00D0D0D082D083D0F0D0E03268
:10000300446562756720646174613A4A756C203295
:100013003220323031392C44656275672074696D42
:0C002300653A31353A33383A34320A007D
:100A1600120AE17F057E00120A871208A97BFF7A77
:100A26000079031200A9E4FB7D017FF0120739E487
:090A3600FF120A661205A180FB03
:0300000002093EB4
:0C093E00787FE4F6D8FD7581220209855F
:1003A300BC000BBE0029EF8DF084FFADF022E4CC3E
:1003B300F875F008EF2FFFEE33FEEC33FCEE9DEC07
:1003C300984005FCEE9DFE0FD5F0E9E4CEFD22ED4D
:1003D300F8F5F0EE8420D21CFEADF075F008EF2F97
:1003E300FFED33FD4007985006D5F0F222C398FD88
:0503F3000FD5F0EA2225
:1003F80075F008758200EF2FFFEE33FECD33CDCCBC
:1004080033CCC58233C5829BED9AEC99E58298403E
:100418000CF582EE9BFEED9AFDEC99FC0FD5F0D61B
:10042800E4CEFBE4CDFAE4CCF9A88222B800C1B945
:100438000059BA002DEC8BF084CFCECDFCE5F0CB83
:10044800F97818EF2FFFEE33FEED33FDEC33FCEBBC
:1004580033FB10D703994004EB99FB0FD8E5E4F977
:10046800FA227818EF2FFFEE33FEED33FDEC33FC64
:10047800C933C910D7059BE99A4007EC9BFCE99A58
:10048800F90FD8E0E4C9FAE4CCFB2275F010EF2F9D
:10049800FFEE33FEED33FDCC33CCC833C810D7079D
:1004A8009BEC9AE899400AED9BFDEC9AFCE899F8D8
:0E04B8000FD5F0DAE4CDFBE4CCFAE4C8F9226B
:0C04C600ECF0A3EDF0A3EEF0A3EFF022A9
:1004D200A8828583F0D083D0821204E91204E91243
:1004E20004E91204E9E473E493A3C583C5F0C58368
:1004F200C8C582C8F0A3C583C5F0C583C8C582C874
:0105020022D6
:10003E00E5152431F582E43400F583E005152290B0
:10004E00002E301003900031E475F00112055B02B2
:10005E0005032009E97F2ED2098018EF540F249052
:10006E00D43440D4FF300D0BEF24BFB41A0050032C
:10007E002461FFE516600215160519E519700205D3
:10008E001830100E90002EE475F00112055BEF0291
:10009E000549020A3F7403D2108003E4C210F5151D
:1000AE0090002E120572E4F516F518F519E5166096
:1000BE00077F2012008180F57517FFC20AC209C2A0
:1000CE000BC20CC20EC20FC21112004DFF700D30CA
:1000DE0010057F00120092AF19AE1822B4255FC230
:1000EE00D5C20D12004DFF24D0B40A00501A75F07F
:1000FE000A781630D50508B6FF0106C6A426F620E6
:10010E00D5047002D20C80D924CFB41A00EF50045B
:10011E00C2E5D20D020293D20A80C6D20980C0D2A5
:10012E000B80BCD2D580BAD20E80B47F2012008153
:10013E00200B077401B5160040F112003EFF1200AD
:10014E00810200BBD211D20F809512003EFB12002D
:10015E003EFA12003EF94A4B700679647A037BFF31
:10016E00200B2EE516602A7E008E82758300120506
:10017E001C60060EEE651770F0C2D5EBC0E0EAC04B
:10018E00E0E9C0E0EE1202DAD0E0F9D0E0FAD0E019
:10019E00FB120503FF60AAEBC0E0EAC0E0E9C0E095
:1001AE00120081D0E02401F9D0E03400FAD0E0FB57
:1001BE00E5170460DCD517D980877BFF7A0279D6E4
:1001CE00D20B809C791080027908C20FC211800870
:1001DE00D2D5790A8004790AC2D5E517047002F5E2
:1001EE0017E4FAFDFEFF12003EFC7B08200A1312F4
:1001FE00003EFD7B1030090A12003EFE12003EFF4B
:10020E007B20EC3382D592D55013C3E43009069F80
:10021E00FFE49EFEE4200A039DFDE49CFCE4CBF883
:10022E00C20AEC700CCFCECDCCE824F8F870F38077
:10023E0017C3EF33FFEE33FEED33FDEC33FCEB3340
:10024E00FB994002FB0FD8E9EB300A05F8D0E0C469
:10025E0048B20AC0E00AEC4D4E4F78207B0070C2C7
:10026E00EAB5170040BCC0E01202DCD0F0D0E020AE
:10027E000A04C4C0E0C4B20AC0F012006AD0F0D5BD
:10028E00F0EB0200BB12057B01585301D258012935
:10029E004C01254201D64F01DE4401DE49013E43A9
:0802AE0001E45501C84601C836
:1002B6004501C847038450012D2D01312E01542BD1
:1002C600013523015220036D2A00ED480000014C40
:1002D6003F3F3F00790AA2D5200C14300E09B91011
:1002E600020404B9080104A2D5200F02500104201B
:1002F6000B68920BB516005034C0E07F20300C1905
:100306007F30A20B720F720E500F120333C20BC254
:100316000FC20EC2117F30800F300E03E9C0E0120B
:100326000081300E03D0E0F9D0E0B516CC300E17C0
:100336007F30B9100C1200817F58300D077F78800E
:1003460003B90803120081300B057F2D0200817F5F
:10035600202011F87F2B200FF322920B80CF286EDE
:10036600756C6C2900D20A12003E300AF8C20A786F
:100376001630D50108F60200ED2D504349581200FB
:100386003E2403B405004001E490037F93120072FB
:0D039600743A120072D20C7516040201D2E6
:10094A00020A16E493A3F8E493A34003F68001F2A3
:10095A0008DFF48029E493A3F85407240CC8C333AE
:10096A00C4540F4420C8834004F456800146F6DF7D
:10097A00E4800B0102040810204080900ACDE47E36
:10098A00019360BCA3FF543F30E509541FFEE49372
:10099A00A360010ECF54C025E060A840B8E493A339
:1009AA00FAE493A3F8E493A3C8C582C8CAC583CA64
:1009BA00F0A3C8C582C8CAC583CADFE9DEE780BE1C
:010AE0000015
:10050300BB010689828A83E0225002E722BBFE02F6
:09051300E32289828A83E4932229
:10051C00BB010CE58229F582E5833AF583E0225094
:10052C0006E92582F8E622BBFE06E92582F8E222DE
:0D053C00E58229F582E5833AF583E49322F8
:10054900BB010689828A83F0225002F722BBFE0191
:02055900F3228B
:10055B00F8E0FBA3A3E0F925F0F0E5821582700229
:07056B001583E0FA38F022CD
:09057200EBF0A3EAF0A3E9F0228A
:10057B00D083D082F8E4937012740193700DA3A30F
:10058B0093F8740193F5828883E473740293686023
:06059B00EFA3A3A380DF23
:100A3F00EFB40A07740D120A4A740A309811A89974
:100A4F00B8130CC2983098FDA899C298B811F63017
:070A5F0099FDC299F59922EF
:00000001FF
