:10322F0075A15575A1AAE5B954F84404F5B9E4F5AB
:02323F00A122CA
:0E327200EF4E600905A1EF1F70F61E80F322DB
:1007E700CDEFCDCCEECCED4C600E7FE87E03123220
:0907F70072ED1D70F11C80EE2270
:040FFC0043C61022B6
:1027C200C29FD29EC29DC2CDC2CC43878090034B92
:1027D20012065100000082E47B0AFAF9F890034BDA
:1027E200E0FCA3E0FDA3E0FEA3E0FF1204E39003FC
:1027F2004FEBF090034BE0FCA3E0FDA3E0FEA3E06F
:10280200FFE47B0AFAF9F81204E390034B12062C58
:1028120090034FE0C39405401F90034BE0FCA3E0FC
:10282200FDA3E0FEA3E02401FFE43EFEE43DFDE45F
:102832003CFC90034B12062CE589540F4420F58989
:1028420043C9A090034BA3A3A3E0F404F58DD28E59
:04285200D299D29CA9
:01285600225F
:0832C4003098FDC298AF992279
:0832CC008F993099FDC299228F
:1031BE0075A15575A1AAEF600543B101800353B106
:0731CE00FEE4F5A1F5FF226C
:0332DB008FFF2240
:1028EA005553422064657620696E0A00555342208A
:1028FA00646576206F75740A005265736574206882
:10290A006F737420706F72740A0044697361626C29
:10291A006520686F737420706F72742062656361DA
:10292A00757365206F6620646973636F6E6E656385
:10293A00740A0047657444657644657363723A2085
:10294A0000782530325820000A00476574436667CC
:10295A0044657363723A2000496E6974526F6F74EA
:10296A0044657620457272203D20253032580A008F
:0117FF0022C7
:102E4300E4900360F0E5DA30E022E50A640160050E
:102E5300E5D120E0331217FF750A027BFF7A287948
:102E6300EA120C619003607415F0801CE50AC394A8
:102E73000240151217FF7BFF7A2879F6120C619036
:0D2E83000360E070037416F0900360E0FF40
:012E9000221F
:0C328E00EF547FFFE5E354804FF5E3228E
:0E328000EF600753E2BF53D27F2243E24022A9
:10301F009003917408F0E4FF12328E53D1FE7F01BA
:10302F00123280E5D154FB4402F5D17F147E001299
:0F303F0007E753D1FD7FFA7E00123272C2D8220A
:10314A00E50AC394025003750A02E5DA30E00C433B
:0E315A00E20175D24043D1017F00227F162290
:1031A4007F907E0120D909EF1F70011EEF4E70F44D
:0931B40030D9047F0080027FFE87
:0131BD0022EF
:0B24B50090035DEFF0A3EAF0A3EBF052
:1024C000CFEDCF8FD68FD4E4F5DD90035DE0F5D569
:1024D000C2D97F907E0120D909EF1F70011EEF4EF7
:1024E00070F4E4F5D520D9037FFE2230D822C2D87B
:1024F000122E43EFB41502D211E50AB401037F1680
:1025000022E50AB402037F15227FC87E00123272D0
:1025100030D96730DE037F0022E5D9540FFFB40EB7
:10252000028043EFB40A2990035EE0FCA3E0FD4C77
:102530007003EF803EC3ED94FFEC94FF500E9003C8
:102540005FE024FFF090035EE034FFF015DD802DA6
:1025500090035DE0C4540F24F7600D24FC60042454
:102560000C7014EF6017800BEFB40304640B600D64
:10257000EF600A4420FF227FFE2275D8FF7F0F7E86
:102580000012327205DDAFDDEFC394035003022465
:03259000CA7F20DF
:012593002225
:09135E007B007A007900E4FFFE37
:0B136700900350EBF0A3EAF0A3E9F0C4
:10137200E4A3F0A3F0CAEECAC9EFC97B01900357F8
:1013820004F0A3EAF0A3E9F0900350E0F9A3E0FA35
:10139200A3E090035AC9F0A3EAF0A3E9F07FC87E64
:1013A2000012327290035AE0FBA3E0FAA3E0F9EADA
:1013B200494B6004E412046475D7087B107A27E471
:1013C200FD7FD01224B5900355EFF06003E0FF22B9
:1013D20075D6D075D4D075D701900047E0FE900045
:1013E20046E0FDEDFF900353EEF0A3EFF04E7003E5
:1013F200021567900357E0FBA3E0FAA3E0F9EA497C
:101402004B7003021567900040E020E7030214C30B
:10141200900353E07002A3E070030214BD7FC87E04
:10142200001232727B107A27ADD47F901224B590CD
:101432000355EFF0E0FF600122AFDB900353E0FCC5
:10144200A3E0FDD39FEC94004004AFDB8003CFED1B
:10145200CF900356EFF0E0FFC3900354E09FF0906B
:101462000353E09400F090035AE0FBA3E0FAA3E0F8
:10147200F9EA494B6004EF120442E4FF900356E09C
:101482006F602874002FF582E43400F583E0FE904B
:101492000357E0FBA3E0FAA3E0F9EE120464900321
:1014A20058E475F0011204760F80D1E5DB600C90F0
:1014B2000391E01455DB7003021412E4F5D7021510
:1014C20067900353E07002A3E070030215677FC8C0
:1014D2007E00123272900391E0FFFD900353E0FA16
:1014E200A3E0FBC39DEA940040028003CFEBCF8FC1
:1014F200D7E4FFEF65D76028900357E0FBA3E0FA3B
:10150200A3E0F9120429FE74402FF582E43400F5B9
:1015120083EEF0900358E475F0011204760F80D345
:101522007B107A27ADD67F101224B5900355EFF0C9
:10153200E0FF600122AFD7C3900354E09FF0900315
:1015420053E09400F090035AE0FBA3E0FAA3E0F921
:10155200EA494B70030214C390035AA3A3E5D712BE
:1015620004420214C37FC87E00123272E5D76004BF
:101572007F9080027F107B107A277DC01224B59065
:101582000355EFF06003E0FF22E5D77002FF22E58A
:07159200DB7002FF227F174E
:01159900222F
:102DA500300F298F828E83E493900040F07D018F50
:102DB500828E83E493FC74402DF582E43400F58320
:102DC500ECF00FBF00010E0DEDB409E3200F1FE479
:102DD500FD8F828E83E493FC74402DF582E43400EC
:0E2DE500F583ECF00FBF00010E0DEDB408E316
:012DF30022BD
:102FE5009003917408F07E237F7B122DA57E027FCE
:102FF500807B017A03794F121367EF6001229002FB
:1030050087E0900391F0902381E493FF90034FE0D4
:09301500C39F50037F17227F00C6
:01301E00228F
:102A09007E237F83122DA57E027F807B017A037945
:102A19004F121367CBEFCBEB600122900282E0905B
:102A2900034FF07E237F83122DA5300F0890034FAB
:102A3900E0900047F0200F0890034FE0900046F027
:102A49007E027F807B017A03794F121367CBEFCB2C
:102A5900EB60012290034FE0D3944040037440F0AF
:102A6900E4FB90034FE06B601B74802BF582E43428
:102A790002F583E0FF74402BF582E43400F583EF1F
:062A8900F00B80DE7F006F
:012A8F002224
:052FAA0090034FEFF061
:102FAF007E237F8B122DA5300F0890034FE09000EA
:102FBF0043F0200F0890034FE0900042F012135E91
:102FCF00EF60012290034FE0FF12328E7F0A7E00E6
:052FDF001207E77F006E
:012FE40022CA
:10316800CBEFCB7E237F93122DA5300F0590004324
:0E317800EBF0200F05900042EBF012135E22E8
:10318600CBEFCB7E237F9B122DA5300F05900045FC
:0E319600EBF0200F05900044EBF012135E22C8
:101FDF007BFF7A297903120C6112301FE490034BB7
:101FEF00F0A3F07F017E001207E712314AEF700E67
:101FFF0090034BF0A3E004F0E0D39464500C9003F3
:10200F004BE004F0E0C3946440D990034BE0600FC1
:10201F001217FF7BFF7A297914120C617F16227F2A
:10202F0001123280122FE590034CEFF06003022172
:10203F00177BFF7A29793D120C61E490034BF090E6
:10204F002381E493FF90034BE0FEC39F50257BFF5A
:10205F007A29794B74802EF582E43402F583E0FF00
:10206F00900364E4F0A3EFF0120C6190034BE004D3
:10207F00F080CC7BFF7A297952120C61900284E0B8
:10208F0090034EF090238DE493FF122FAA90034CF0
:10209F00EFF07074122A0990034CEFF0706A9002FF
:1020AF0085E090034DF07BFF7A297954120C61E49F
:1020BF0090034BF0900282E0FF90034BE0FEC39F32
:1020CF0050257BFF7A29794B74802EF582E43402F8
:1020DF00F583E0FF900364E4F0A3EFF0120C61903E
:1020EF00034BE004F080CD7BFF7A297952120C610B
:1020FF0090028EE0FF90034EE0700AEFB408067571
:10210F000A047F00227FFB227BFF7A2979629003EA
:10211F004CE0FF900364E4F0A3EFF0120C61750A3A
:0B212F00027F0112328090034CE0FFA1
:01213A002282
:1017CE00C2EA75E28053D17FE4F5E375EB4875E527
:1017DE000075E40075E70075E640F5D4F5D675E2C0
:1017EE008875D8FFFF1217FF0FEFB402F875E103EB
:0117FE0022C8
:1032520021FF000000000000A1FE000000000100AC
:06297A009002FF12062C82
:1029800090031CE0FF900302E06F7024900319E0B5
:10299000FF9002FFE06F701890031AE0FF900300B1
:1029A000E06F700C90031BE0FF900301E06F605636
:1029B0009002FFE0FCA3E0FDA3E0FEA3E0FF900394
:1029C0001912062C9002FDE0FEA3E0FBCAEECA65D8
:1029D0000C7003EA650B7012A3E0FCA3E0FDA3E01A
:1029E000FEA3E0FF90031E12062CCEEACECFEBCF63
:1029F000CDEFCDCCEECC7F011227268F0DEF6003FB
:092A00001231ECAF0D227F00221F
:0C2857009003311205C69002FF12062CFF
:10286300900321E0FF900302E06F702490031EE0C9
:10287300FF9002FFE06F701890031FE0FF900300CA
:10288300E06F700C900320E0FF900301E06F605451
:102893009002FFE0FCA3E0FDA3E0FEA3E0FF9003B2
:1028A3001E12062CAB0CAA0B9002FDE06A7003A368
:1028B300E06B70149002FFE0FCA3E0FDA3E0FEA335
:1028C300E0FF90031912062CCEEACECFEBCFCDEF6B
:1028D300CDCCEECC7F011227268F0DEF6003123192
:0728E300ECAF0D227F002283
:102EDF009002FF1205C690031912062C9002FDE016
:102EEF00FEA3E0FBCAEECA650C7003EA650B700A1D
:102EFF00A31205C690031E12062CCEEACECFEBCF3F
:102F0F00CDEFCDCCEECC7F01120F5B8F0DEF6003B9
:062F1F001231ECAF0D229F
:102A90008F118E108D0F8C0EE509241AF582E43506
:102AA00008F583E50EF0A3E50FF0E5092414F5829F
:0C2AB000E43508F583E510F0A3E511F013
:102ABC009002FF1205C690031E12062CAB0CAA0B3B
:102ACC009002FDE06A7003A3E06B700C9002FF12A1
:102ADC0005C690031912062CCEEACECFEBCFCDEF64
:102AEC00CDCCEECC7F01120F5B8F0DEF600312315A
:042AFC00ECAF0D220C
:0E1000009003031205C69002F912062CE4FFBD
:10100E008FD390032EE0FBB402129002F9E0FCA302
:10101E00E0FDA3E0FEA3E0FF78018014EBB403151E
:10102E009002F9E0FCA3E0FDA3E0FEA3E0FF78024E
:10103E001205A7803EC2009002FCE030E002D20012
:10104E009002F9E0F8A3E0F9A3E0FAA3E0FBE8C010
:10105E00E09002F9E0FCA3E0FDA3E0FEA3E0FF7840
:10106E0001120594D0E0F8EB2FFFEA3EFEE93DFDBC
:10107E00E83CFC9002F912062C9002FBE0FEA3E085
:10108E00FFEE5401FE9002FEE02FF5099002FDE006
:10109E003EF5089002F9E0FCA3E0FDA3E0FEA3E01C
:1010AE001232B0900335E0F8A3E0F9A3E0FAA3E022
:1010BE002FFFEA3EFEE93DFDE83CFC9002F91206E8
:1010CE002C90031CE0FF9002FCE06F70249003193B
:1010DE00E0FF9002F9E06F701890031AE0FF9002A3
:1010EE00FAE06F700C90031BE0FF9002FBE06F6064
:1010FE001F300D07122BD3EF6001229002F9E0FC96
:10110E00A3E0FDA3E0FEA3E0FF12297AEF60012227
:10111E00E5D36044E5D3B4040C9002F9120651FFF6
:10112E00FFFFFF8031E5D3B4010C9002F912065196
:10113E00000000008020900325E09002F9F090035B
:10114E0024E09002FAF0900323E09002FBF090036B
:10115E0022E09002FCF0D20DC20E90032EE0FB6452
:10116E00027046850982850883E0F50FA3E0F5102D
:10117E00850F11E4F50EF50FC3E51194F7E5109404
:10118E00FF4002D20EE5D360149002F9E0FFA3E017
:10119E00850982850883CFF0A3EFF0615B300E02E4
:1011AE00615BAE10AF11E46153EB64037071AF0974
:1011BE00AE081232628F118E108D0F8C0EE50E540A
:1011CE00F0FF9002FCE0540F4FF0530E0FE50ED3DC
:1011DE00940F5016E50EB40F13E50FB4FF0EE51085
:1011EE00B4FF09E511C394F74002D20EE5D36016A1
:1011FE009002F9E0FCA3E0FDA3E0FEA3E0FF850969
:10120E00828508836158300E02615B900322E50EE1
:10121E00F0A3E50FF0A3E510F0A3E511F0615B85F7
:10122E000982850883E0F5119002F9E0FFC454F0BD
:10123E00FEE511540F4EF50EA3E0FEC454F0FDEF83
:10124E00C4540F4DF50F9002FEE024FFFD9002FDF9
:10125E00E03401FCED65097003EC6508603A850920
:10126E0082850883A3E0F510E5D37002611C30007F
:10127E000F850982850883E50EF0A3E50FF0611C4A
:10128E009002F9E0850982850883F0EE540FFFE5A0
:10129E001054F04FA3F08076E5D36014300004AF05
:1012AE000E80059002F9E0FF850982850883EFF034
:1012BE00A20DE43345D36007122BD3EF60012290C9
:1012CE000319E0FCA3E0FDA3E0FEA3E02401FFE48C
:1012DE003EFEE43DFDE43CFC12297AEF60012290D3
:1012EE0002FDE0FEA3E0FFF5828E83E0F510E5D36C
:1012FE00601C300004AD0F800D9002FAE0540FFD1B
:10130E00E51054F04DFD8F828E83EDF0D20DE4F595
:10131E000EF50F300014E510C4F854F0C868F5103F
:10132E00E511C4540F48F511800353100FC3E51196
:10133E0094F7E510940F4002D20EE5D3700F200EF5
:10134E000CAE10AF11FCFD90032212062C7F002272
:101A2600900307E0FCA3E0FDA3E0FEA3E0FF900324
:101A360022E0F8A3E0F9A3E0FAA3E0FBD3120583C2
:101A460040037FB122900322E0FCA3E0FDA3E0FE69
:101A5600A3E02401FFE43EFEE43DFDE43CFC9003EC
:101A66008912062C121006CBEFCB900389E0FCA35B
:101A7600E0FDA3E0FEA3E0FF90032212062CEB603C
:101A860002FF22E511700AE50E450F45107002812E
:101A960016900309E0FF90038BE06F701A9003071E
:101AA600E0FF900389E06F700E900308E0FF90035B
:101AB6008AE06F7002412690032EE0FF64017002F7
:101AC60041269002FDE0FCA3E08C08F509EF6402D4
:101AD6007031F50E750FFFF5107511FF74022509AB
:101AE600F509E43508F508850982F583E07004A355
:101AF600E0606CE50F150F7002150E14AE0E4E70F9
:101B0600DB61F2750E00750F7F75100075117F741D
:101B1600042509F509E43508F508850982F583E009
:101B2600600261E2A3E0600261E2850982850883C2
:101B3600A3A3E0600261E2850982850883A3A3A3CB
:101B4600E0540F600261E2850982850883A3A374CD
:101B5600FFF0850982850883A3A3A3E0440FF085DF
:101B6600098285088374FFF0A3F0AE10AF119003CD
:101B760022E0F8A3E0F9A3E0FAA3E04FFFEA4EFE65
:101B8600E9FDE8FCEEC0E0EFC0E0E50F24FFFFE56D
:101B96000E34FFCBEFCBFAD0E0FFD0E0FEC3EF9BD5
:101BA600FFEE9AFEED9400FDEC9400FC90032212E9
:101BB600062C900307E0FCA3E0FDA3E0FEA3E0FFF4
:101BC600900322E0F8A3E0F9A3E0FAA3E0FBD31226
:101BD600058340037FB122D20D7F0022E50F150F4A
:101BE6007002150E14AE0E4E60026115900322E0CF
:101BF600F8A3E0F9A3E0FAA3E0FBAE10AF11EB4FB8
:101C0600FFEA4EFEE9FDE8FC90032212062C41266F
:101C1600900389E0FCA3E0FDA3E0FEA3E0FF9002B1
:0A1C2600F912062C7F0412100E22A2
:1031D500121A26EF64B160012290032212065100F3
:0731E500000000121A26226F
:10000300E50AC394105007120800EF600122123072
:10001300C6EF600122C20C7823E6FF7002FF22EFD5
:10002300645C6004EFB42F0A7F2490033F7424F0D0
:1000330080197824E6643A600201DFEFC3944350E9
:100043000201DF7F2690033F7426F090032EE0FB2E
:10005300B4030890033B1205C68005E4FFFEFDFCD4
:1000630090030312062C90033FE0F8E670769003AA
:1000730026120651FFFFFFFFEB6403603E90030669
:100083007402F090033EE09002F8F0900311120521
:10009300C6EFC0E09002F8E0FBE4FAF9F8D0E0FF25
:1000A30012049990031112062C9002F8E0FFE4FC6D
:1000B300FDFE1232BA90032612062C90030312059A
:1000C300C690032212062C90034012065100000032
:1000D30000E490030CF0750A127F41227F23900302
:1000E3003F7423F09003031205C6EC4D4E4F60326C
:1000F3009002F8E090030CF09003031205C6EF247E
:10010300FEFFEE34FFFEED34FFFDEC34FFFC900305
:100113000BE0F9F81205A79003111205DF12048C06
:10012300801790033EE0FF90030CF0FBE4FAF9F82C
:100133009003111205C612049990033112062C90F4
:10014300030CE0700261DC122857EF600122E49097
:10015300030FF0A3F090030FE0FEA3E0FFC3EE94C0
:1001630002400261BBEF250CF509EE350BF508855E
:100173000982F583E0FF70028106EF64E570026196
:10018300AFEFB405027FE590033FE0F8E6FE6F6052
:1001930007EE642A600261AFEF6E70047F01800294
:1001A3007F008F10AF10EFC3940B5059AE10900324
:1001B3003FE02EF8E6FEE5092FF582E43508F583E6
:1001C300E0FD6E603BEE6009645C6005EE642F70D9
:1001D3001FED6420702FEFC394085010E509240825
:1001E300F582E43508F583E0642070197F0B8015F0
:1001F300EEB42E11E51064086004EDB420077F0708
:100203000F051080A1AE1090033FE02EF8E6F51124
:10021300EFC3940B500241FDE509240BF582E4354D
:1002230008F583E030E30241FDC20EE509241AFF1D
:10023300E43508FE1232A6E4FCFD90030312062CFB
:1002430090032EE0B40314E5092414FFE43508FEFB
:100253001232A6900303EEF0A3EFF0E51160052040
:100263000E0241F19003031205C690032212062CDD
:1002730090034012065100000000E490030CF0E5E7
:1002830009240BF582E43508F583E030E41E90037E
:1002930026120651FFFFFFFF7D137F101230CAEFB6
:1002A300600122300E037F43227F4122E509241C93
:1002B300FFE43508FE12326290032612062C9003E7
:1002C300031205C6EC4D4E4F701090030C74FFF0F3
:1002D300900326120651000000007D147F10123097
:1002E300CAEF600122300E037F43227F0022E51014
:1002F30004FF90033FE02FF001E7E511642A600259
:1003030061AFE509240BF582E43508F583E030E3BA
:100313000261AFE5A1645460037F112290032612AA
:1003230005C6EC4D4E4F6028900326E030E70312DC
:1003330032E19003261205C6EF24FFFFEE34FFFEE1
:10034300ED34FFFDEC34FFFC90032612062C805C99
:10035300E4FFF50EE5092FF582E43508F583E06443
:10036300206036EFB4080CAE0E90033FE02EF87613
:100373002E050EE5092FF582E43508F583E0FEAD81
:100383000E90033FE0FC2DF8EEF6E50E7009C8EC85
:10039300C8E6B4050276E5050E0FEFB40BB6AF0E53
:1003A30090033FE02FF8E4F6D20E412E90030FE4C2
:1003B30075F02012047621589003311205C6EF24FC
:1003C30001FFE43EFEE43DFDE43CFC9003311206F4
:1003D3002C90030CE014F021429003031205C6ECA9
:1003E3004D4E4F601E121000EF600122200E14903C
:1003F3000303E50EF0A3E50FF0A3E510F0A3E51169
:10040300F001E7E4FF90033FE0CEEFCE0F2EF8E6D6
:10041300FE6010642A600CEE645C6004EEB42FE5A9
:060423007FB3227F42229C
:102F25009003221205C6EF24FEFFEE34FFFEED34BA
:102F3500FFFDEC34FFFC90030BE0F9F81205A790B8
:102F450003111205DF12048CC8ECC8C9EDC9CAEE1D
:102F5500CACBEFCB90030CE0FFE4FCFDFE12048C22
:062F65009002FF02062CA1
:102594009003031205C6EC4D4E4F7002C1527827CA
:1025A4001205BA1232B0EFC0E090030CE0FBE4FA7B
:1025B400F9F8D0E0FF1204998F118E108D0F8C0E54
:1025C400AF11AE10AD0FAC0E78231205D2C31205B5
:1025D40083401878231205BAC3EF9511FFEE9510C6
:1025E400FEED950FFDEC950EFC804490030312055F
:1025F400C690032212062C9002F8E0FFE4FCFDFED4
:1026040078231205D2C3120583402B9003221210A3
:1026140003EF600122200E3678231205BAEFC0E0E2
:102624009002F8E0FBE4FAF9F8D0E0FF120499789C
:102634002312062080C17826E690030CF0122F2581
:102644009002FF1205C678231206207F0022900311
:102654000C74FFF07823120638FFFFFFFF7F00227F
:0332DE007F11223B
:1031EC0090031E120651FFFFFFFF900319120651A8
:0731FC00FFFFFFFFC20D22DF
:0430C6007D107F10EA
:1030CA00AE0AEEC39F4005CEEDCE8D0AEE6D7002BC
:0F30DA00FF22750A0112310AEF6001227F832263
:1030A100AB0DEBB41611750A0190032A12065100FB
:1030B100000000CFEBCF22EBB41507750A02CFEB6E
:0530C100CF227F002278
:102C9F007F027E001207E790033AE50DF012310A2A
:102CAF00EF600122E50AC3940450037F83227E3232
:102CBF007F52122DA5900339E0900044F0E4FDFF00
:102CCF00FE1213678F0DEFB4160122900330E054FC
:102CDF000FFF12318690032FE0540F4480FF123103
:0B2CEF008690033AE0FFF50DE4F022B0
:102F6B00900048EDF0A3E4F0A3F0A3F0ED60047E35
:102F7B008080027E0090004CEEF090031DE09000EC
:102F8B004DF0A37406F0A3EFF0A3E4F0A3F0A3F0CD
:0F2F9B00A3EDF0A3E4F0A3F0A3F0A3F0A3F022C2
:07159A00122F6B7E007F623F
:1015A1008E148F159000407455F0A37453F0A374FA
:1015B10042F0A304F075D71F900330E0FF90033A87
:1015C100E0FD7BE87AFD1224B58F0DEFB416012200
:1015D100EF60397E007F627C007D407B1B7A0012C8
:1015E10030E9122C9F7E007F407C007D627B1B7A5C
:1015F100001230E9900330E0FF90033AE0FD7BE810
:101601007AFD1224B58F0DEF6002E1C890033AE034
:101611006440F0900048E0FDA3E0FF4D7002E18DD1
:10162100EFF512EDF51390004CE020E702C1E6D290
:1016310001E51345127002C1DEE5127007E513C31F
:1016410094404009AF158514E58FE48008C2017507
:10165100E50075E40090032FE0FF90033AE0FD7B85
:10166100E87AFD1224B58F0DEF601A75E50075E477
:1016710000EF642E60012290032FE0540F4480FF9D
:10168100123186805890033AE06480F030011FE502
:10169100DB6440704874C02513F51374FF3512F5EF
:1016A1001274402515F515E43514F5148083AFDB6C
:1016B100AE13EEC39F5003CFEECFE4FEEE6F601D7D
:1016C10074002EF582E43400F583E08515828514DB
:1016D10083F00515E515700205140E80DF75E50030
:1016E10075E400E18DE51345127002E187E51270A2
:1016F10008AF13EFC394404023AD158514E78DE681
:1017010074C02513F51374FF3512F51274402515B5
:10171100F515E43514F51475D740803375E7007578
:10172100E6408FD7E4FFE5136F601F8515828514AE
:1017310083E0FE74402FF582E43400F583EEF0057A
:1017410015E515700205140F80DCE4F512F5139010
:101751000330E0FF90033AE0FD7BE87AFD1224B507
:101761008F0DEF601875E70075E640EF642E60019C
:1017710022900330E0540FFF123186800990033A22
:10178100E06440F0C1E675E70075E64090032FE0A4
:10179100FF90033AE0FD7BE87AFD1224B58F0DEF4F
:1017A10060012290033AE06480F0750D1FE5DB646F
:1017B1000D6003AF0D2290000CE0FE7004F50DFFEB
:0D17C10022EEC394024003022C9FAF0D22C4
:10312B007F0A7E001207E77D127F0312159A7F0537
:0F313B007E001207E7E50D7002FF221230A1227D
:102D5000750E0F7D087F25122F6B90004E740AF0C0
:102D6000900053E4F012159DAF0DEF700B900068CA
:102D7000E06402602D7F1722EF64166025EF641572
:102D80006020EF6413601B8F0F12312B850F0DE550
:102D90000E7E0030E3047F4080027FC81207E7D533
:052DA0000EB1AF0F228F
:10213B0012310AEF600122E50AC3940450037F8336
:10214B0022750A04122A098F0DEF60012290004EAE
:10215B00E06408705FC20BA3E0B40602D20B9000E0
:10216B004BE0900339F0E4F50EE50E600790005B51
:10217B00E0FF8005900054E0FF8F0FE50E600790A5
:10218B00005DE0FF8005900056E0FFEF6440702497
:10219B00E50F30E70CE50F540F449090032FF080C0
:1021AB000AE50F540F4410900330F0050EE50EB402
:1021BB0002B78006750D1FAF0D22900045E0FF1290
:1021CB0031688F0DEF600122E4F50E7E327F5A12DB
:1021DB002DA5900339E0900044F07D0FAF0CAE0BB2
:1021EB001213678F0DEF7010E50FB4011A850C8277
:1021FB00850B83E0F50E800FE50DB42E07E4FF127F
:10220B0031868003AF0D227F057E001207E7123166
:10221B00ECE490033AF090031DF07D247F12122F13
:10222B006BAF0CAE0B1215A1E50D7023E50E60180C
:10223B0090031DE07012850C82850B83E0B40508BA
:10224B0090031D7401F080D27D057F040230CAE536
:10225B000E600E90031DE0C394035005E004F08064
:0C226B00B9E490031DF07F01122DF42255
:102CFA0078231206380000000012310AEF60012220
:102D0A00E50AC39405502812213BEF600E7F407EEE
:102D1A00001207E712213BEF600122122D50EF60EB
:102D2A0003AF0D229000621205C67823120620E432
:102D3A00FDFF12159AE50D7002FF22850D0E123164
:062D4A002BAF0E8F0D22DD
:102DF400E4FDFCE4F5A10DBD00010CBC01F5BDF43E
:102E0400F2EFC394024014AE0AEEB41205750A053B
:102E14008009EED394104003750A10AE0DEF6014D0
:102E2400EE6416600FEE6415600A12312BCEEFCEFD
:0F2E3400EE7001227F027E001207E71230A1220A
:10080000E50AC39405500A12213BEF600122122D24
:10081000501231EC90032A1205C6EF54F0FFEC7B26
:10082000707A5679347812C3120583700A90032DBA
:10083000E0540FF5098003E4F509E49002F8F09024
:10084000030CF0900326120651000000009002FFF6
:1008500012065100000000122863EF600D122C9F59
:10086000122D50122863EF600122E509700F850CEC
:1008700082850B83E054FD64E970022173E50C244A
:10088000FEF582E50B3401F583E0FEA3E064AA7077
:1008900003EE645560037F91229002F8E0F508E5CD
:1008A0000864407002215FE50C24BEFFE50B3401B3
:1008B000FE7C00EF2508FFEC3ECF2408CF3400FE7D
:1008C0001232629002FF12062CE50C24BEFFE50BEB
:1008D0003401FE7C00EF2508FFEC3EF583EF240495
:1008E000F582E43583F583E0F50EE50E64056005D9
:1008F000E50EB40F309002FF1205C69003261205D4
:10090000DF12048C9002FF12062C90030CE06002B0
:100910000157E5082410F09002FF1205C690032647
:1009200012062C0157E50E30E703530E3FE50E602B
:1009300026E50EC3940F501FE5099401501790024D
:10094000FF1205C690031E1205DF12048C9002FFF1
:1009500012062C801E150974102508F508019F90B9
:10096000030CE0FF600A9002F8E07004EFF001432E
:100970007F92229002FF1205C690032A12062C12C3
:100980002863EF600122850C82850B83E054FD64AF
:10099000E960037FA122E50C24FEF582E50B34011A
:1009A000F583E0FEA3E064AA7003EE645560037F64
:1009B000A122E50C240DF582E4350BF583E0FF90D0
:1009C00002F8F090030B7407F0EF20E713EF25E037
:1009D000FF90030BE014F0E070EF9002F87401F068
:1009E000E50C2416FFE4350BFE1232A6E4FCFD9064
:1009F000031512062C900317E0FEA3E04E7012E5DB
:100A00000C2424FFE4350BFE12326290031512060B
:100A10002CE50C2413FFE4350BFE1232A6E4FCFD9A
:100A200090034012062C900342E0FEA3E04E7012A9
:100A3000E50C2420FFE4350BFE12326290034012D5
:100A4000062CE50C2411FFE4350BFE1232A6EF2430
:100A50000FFFE43EC4F854F0C868FEEFC4540F48DA
:100A6000FFE4FCFD90033B12062CE50C240EFFE492
:100A7000350BFE1232A6E4FCFD90033512062C90D5
:100A8000033EE0FF7E00900337E0FCA3E02FFFEE83
:100A90003CFEE4FCFD9003151205DF12048C8F115F
:100AA0008E108D0F8C0EE50C2410F582E4350BF5BD
:100AB00083E0900315B402191205C6EF2511F51154
:100AC000EE3510F510ED350FF50FEC350EF50E8007
:100AD00007120651000000009002FF1205C6EF2524
:100AE00011FFEE3510FEED350FFDEC350EFC9003D9
:100AF0001112062C9003401205C6C3EF9511FFEEAC
:100B00009510FEED950FFDEC950EFC90030BE0F9B2
:100B1000F812059490030712062CE47FF57EFFFD82
:100B2000FC9003071205DFC31205835023E49003F2
:100B30000DF0A3F0900309E0FEA3E0C394F5EE945A
:100B40000F90032E50057401F080317402F0802C58
:100B5000E50C2430FFE4350BFE1232A690030DEEB7
:100B6000F0A3EFF0E50C242CFFE4350BFE1232620B
:100B700090033B12062C90032E7403F0900337E091
:100B8000FEA3E04E604790033B1205C6EC4D4E4F6E
:100B9000603BE50C2410F582E4350BF583E064013D
:100BA000600C9003151205C6EC4D4E4F601FE50C0E
:100BB000240BF582E4350BF583E07011E50C240C71
:100BC000F582E4350BF583E0C39402500CE509701F
:100BD00005750901013A7FA3229003351205C690DD
:100BE00002FF1205DF12048C90033512062C7D10D3
:060BF0007F051230CA224D
:102BD3009003191205C69002FF12062C122EDFEF86
:102BE3006001229003151205C6EC4D4E4F604390D1
:102BF30002FF1205C69003151205DF12048C900222
:102C0300FF12062C9002FDE0FCA3E0FD7F01120FF2
:102C13005B8F0D9002FF1205C69003151205DF129C
:102C230004999002FF12062CE50D60061231ECAFF9
:072C33000D22C20D7F0022FB
:102B0000121A26EF600564B1600122EF6011900394
:102B10002212065100000000121A26EF6001221254
:102B20002BD3EF6001229003221205C690030312FB
:102B3000062C122857EF600122900310E0250CF5B7
:102B40000990030FE0350BF508F583E509241CF522
:102B500082E43583F58312065101000000900303DF
:0A2B60001205C61232D4122A902288
:082B6A007FFF7EFF7DFF7CFF71
:102B72008F118E108D0F8C0E90030DE0FCA3E0FDE3
:102B82004C7002FF22CFEDCFCEECCEE4FCFD9003E1
:102B92002A1205DF12048C12285DEF600122E50C77
:102BA20024E8FFE50B3401FE123262EF2511FFEE3D
:102BB2003510FEED350FFDEC350EFC1232D4E50C6E
:102BC20024E8F582E50B3401F58312062C122ABCA7
:012BD20022E0
:102E9100C20CE50AC394144042122857EF60012284
:102EA100900310E0250CF50990030FE0350BF508B0
:102EB100F583E509240BF582E43583F583E020E40D
:102EC1001A9003261205C61232D4E509241CF58294
:0E2ED100E43508F58312062C022ABC7F00228D
:102C3A00AF0AEFC3941250037FB422EFB412359057
:102C4A00032EE06403602D90030BE0FF7401C8EFCC
:102C5A00C8088002C333D8FC9002F8F0900311121E
:102C6A0005DF90033EE0FFE4FCFDFE12048C9003B6
:102C7A001112062CAF0AEFD394134009EFB41407CC
:102C8A007823E67002C20C300C07122E91EF600115
:052C9A00221230C622E9
:10266400E50AC394135007120003EF6001221230ED
:10267400C6EF600122122857EF60012290030FE099
:10268400FEA3E0250CF582E50B3EF58374E5F0121C
:102694002ABCEF600122900303E0F50EA3E0F50FDE
:1026A400A3E0F510A3E0F511E50E450F4510451123
:1026B400606D9003031205C6EF24FFFFEE34FFFEA6
:1026C400ED34FFFDEC34FFFC90030312062C900361
:1026D40022120651000000009002F9E50EF0A3E575
:1026E4000FF0A3E510F0A3E511F07F0112100EEF37
:1026F4006001229003221205C6EF2401FFE43EFE8E
:10270400E43DFDE43CFC90032212062C300EC91279
:102714002BD3EF6001229003221205C6022B727F95
:02272400002291
:1018000012000390030CEFF07009122664EF7002CF
:1018100021242290030CE0FF6442600122C3900364
:101820000FE09402500221249003031205C6EC4DF0
:101830004E4F700201D2121000EF600122200E0202
:1018400021249003031205C690032212062C1231A4
:10185000D5EF6001229003031205C69002F912062B
:101860002C7F0212100EEF600122122BD3EF6001C9
:1018700022850C82850B837F02E4FEE4F0A3DEFB6D
:10188000DFF7E490030CF0122F25E490030FF0A390
:10189000F09002FF1205C690033112062C9002F858
:1018A000E0F50EE50E6024122ABCEF6001229002E2
:1018B000FF1205C6EF2401FFE43EFEE43DFDE43CDB
:1018C000FC9002FF12062C150E80D8122B6AEF60D6
:1018D000532290033EE090030CF090033174FF120A
:1018E00005ED12285DEF600122E490030FF0A3F0F4
:1018F00090030FE0FEA3E0FFC3EE9402501BE50C43
:101900002FF582E50B3EF583E064E5601790030F49
:10191000E475F02012047680D790030CE014F07088
:10192000B97FB2229003031205C690032212062C3F
:10193000E5B1549060037F11221231D5EF6001228E
:10194000122BD3EF6001229003221205C6900303ED
:1019500012062C122B6AEF600122122857EF600149
:1019600022900310E0250CF50990030FE0350BF5EC
:1019700008E4FFEFC3940B50047E2080027E00E554
:10198000092FF582E43508F583EEF00FEFB420E37C
:10199000E5092418F582E43508F5837421F0A37471
:1019A00030F0E509241CF582E43508F5837401F074
:1019B000E4FFEFC3940B503190033FE0F8E6FE6084
:1019C00028EEB42E087F0890033FE004F090033F18
:1019D000E0F8E6FEE5092FF582E43508F583EEF040
:1019E0000F90033FE004F080C99003031205C61274
:1019F00032D4122A90EF6001229003031205C690A0
:101A0000032212062C9003261206510000000090BB
:101A1000034012065100000000E490030CF07D1416
:061A20007F101230CA2203
:101C3000D20C90030BE0FFE47E02C8EFC8088005D9
:101C4000C333CE33CED8F924FFFFEE34FFFEE4FCDD
:101C5000FD9003261205DF12048C90030BE024098B
:101C6000F9F812059490038D12062C90034012058A
:101C7000C6C8E9C81205949002F912062C9002F920
:101C80001205C690038D1205DFD312058340149010
:101C9000038D1205C69002F91205DF120499900314
:101CA0008D80099003031205C690032212062C9022
:101CB00003031205C6EC4D4E4F7015900326120516
:101CC000C6EC4D4E4F7002FF22122B00EF60172220
:101CD0009003261205C6EC4D4E4F700A90038D12EC
:101CE0000651000000019003221205C67823120657
:101CF0002090038D1205C6EF24FFFFEE34FFFEEDAA
:101D000034FFFDEC34FFFC90038D12062C9003226F
:101D10001205C69002F912062C7827120620E4FF5D
:101D200012100EEF600122300E6B90038D1205C66B
:101D3000EC4D4E4F700E78231205BA900322120616
:101D40002C7F002290038D1205C6120575122B728E
:101D5000EF6001229003221205C678271206201296
:101D600031D5EF60012278271205BA9002F91206E8
:101D70002C7F0212100EEF60012290038D74FF126F
:101D800005EDEC4D4E4F70CC78231205BA9003222E
:101D900012062CC11B90038DE0600281F1A3E0606C
:101DA0000281F1A3E0600281F1A3E0600281F17899
:101DB000271205BA8F118E108D0F8C0E9002F9E547
:101DC0000EF0A3E50FF0A3E510F0A3E511F07F01FD
:101DD00012100EEF60012290038D1205C6EF240150
:101DE000FFE43EFEE43DFDE43CFC90038D12062C36
:101DF000300EC990038D1205C6122B72EF600122BE
:101E00009003031205C690032212062C9003401281
:0F1E1000065100000000E490030CF0122BD322C7
:1023A300E50AC3941350037FB422122857EF600148
:1023B30022C210900310E0250CF50990030FE035BD
:1023C3000BF508782BE6FFE509240BF582E43508C5
:1023D300F583E0F6EFF4600FE509240BF582E435AD
:1023E30008F583EFF0D2107929E7F50F782AE6F59F
:1023F3000EE5092416FFE43508FE1232A67829EE0D
:10240300F608EFF6E50FF47003E50EF46014E50942
:102413002416F582E43508F583E50EF0A3E50FF005
:10242300D2107927E7F50F7828E6F50EE509241889
:10243300FFE43508FE1232A67827EEF608EFF6E53C
:102443000FF47003E50EF46014E5092418F582E433
:102453003508F583E50EF0A3E50FF0D210782312CB
:1024630005BA8F118E108D0F8C0EE509241CFFE425
:102473003508FE1232627823120620E50E550F55F9
:10248300105511F46023AF11AE10AD0FAC0E9003D5
:102493002612062C1232D4E509241CF582E43508F1
:1024A300F58312062CD210C20C301003022ABC7F13
:0224B300002205
:10324100E4FF74232FF876FF0FEFB40AF51223A3DE
:01325100225A
:103262008F828E83E0FFA3E0FEA3E0FDA3E0FC22B9
:0A32A6008F828E83E0FFA3E0FE227A
:0732D400EFCCFFEECDFE225E
:0A32B000C3E4CC13CD13CE13FF22AC
:0A32BA00C3E4CF33CE33CD33FC2242
:1030E90005A28D828C8315A28F828E837F00EA6070
:1030F90007E0A3A5DFFBDAF9EB6005E0A3A5DBFB9D
:0131090022A3
:102277004572726F723A20253032580A00576169E9
:10228700742044657669636520496E0A005374615A
:10229700727420554449534B5F64656D6F2040430A
:1022A70048353534554649206C6962726172790A3E
:1022B7000057616974204469736B52656164790AD8
:1022C700004F70656E0A002F4335312F434835356F
:1022D700344846542E4300B2BBB4E6D4DAB8C3CE72
:1022E700C4BCFEBCD0D4F2C1D0B3F6B8F9C4BFC2E7
:1022F700BCCBF9D3D0CEC4BCFE0A002F2A002F4393
:1023070035312F43483535342A004C6973742066BC
:10231700696C652025730A0020206D61746368204D
:1023270066696C652025303464233A2025730A00DA
:1023370055C5CCD1DDCABECDEAB3C90A0055C5CC57
:10234700C3BBD3D0D7BCB1B8BAC320455252203D86
:10235700253032580A00B3F5CABCBBAF55C5CCCA45
:10236700A7B0DCA3ACC7EBB0CECFC255C5CCD6D88F
:10237700CAD40A008006000100001200800600028D
:102387000000040000050200000000000009000032
:0C23970000000000020100000000000037
:0B27260090034BEFF0A3ECF0A3EDF0EC
:10273100E4A3F0900048E4F090034BE0FF25E09023
:102741000049F0A3E4F0A3F0A37480F090031DE02E
:1027510090004DF0A3740AF0A37428F0A3E4F09064
:1027610002FFE0900051F0900300E0900052F090E1
:102771000301E0900053F0900302E0900054F0A3B5
:10278100E4F0A3F0A3EFF0A3E4F090034CE0FEA388
:10279100E0FF1215A1E50D7002FF2290034EE0FF4C
:1027A100122DF48F0DE50D6003AF0D2290034EE065
:1027B10004F0E0C394035003022734750D1F7F1FFB
:0127C10022F5
:0B0F5B0090034BEFF0A3ECF0A3EDF0CF
:100F6600E4A3F0900048E4F090034BE0FF25E09006
:100F76000049F0A3E4F0A3F0A3F090031DE0900075
:100F86004DF0A3740AF0A3742AF0A3E4F09002FFD4
:100F9600E0900051F0900300E0900052F0900301C1
:100FA600E0900053F0900302E0900054F0A3E4F0C8
:100FB600A3F0A3EFF0A3E4F090034CE0FEA3E0FF60
:100FC6001215A1E50D70097FC8FE1232727F00224C
:100FD60090034EE0FF122DF48F0DE50D6003AF0D6B
:100FE6002290034EE004F0E0C394035003020F691D
:050FF600750D1F7F1FB7
:010FFB0022D3
:10310A0053E37FE5E3B40213E5D130E0037F002205
:10311A00E5DA30E006750A027F0022750A017F1699
:01312A002282
:0132E10022CA
:10304E001232DEEFC3941150037FFF227E007F8089
:10305E008E0B8F0C9002FDEEF0A3EFF0E4F50A90CC
:0C306E00032A120651000000007F00221F
:10320300EF60137BFF7A227977900364E4F0A3EFF6
:07321300F0120C6180FE22A5
:101E1F0012322F7F057E001207E71227C21217CE4C
:101E2F0012304EC2117BFF7A227984120C61E4903A
:101E3F000344F030D80FC2D8122E43900344EFF072
:101E4F00BF1502D21120110B900344E064156003FB
:101E5F00021FD0C2117FC87E001207E7121FDF904A
:101E6F000344EFF06003021FC77BFF7A22799412BD
:101E7F000C61750A04E4900345F07BFF7A2279B870
:101E8F00120C61122CFA900344EFF060117F327E36
:101E9F00001207E7900345E004F0E0B40ADCE50A1E
:101EAF00C394055003021FB27BFF7A2279C8120C2C
:101EBF006178237C007D007BFF7A2279CE12076048
:101ECF00120003900344EFF07BFFBFB30F7A227928
:101EDF00DE120C617BFF7A23790280047A23790565
:101EEF0090034612068B90034612068290036412EB
:101EFF00068B7BFF7A237911120C61E4900349F072
:101F0F00A3F078237C007D0090034612068212070F
:101F1F00607B007A00792312321A900345EFF0E0CC
:101F2F002423F876FF900349E0FEA3E0FFE4FCFDD5
:101F3F0090032612062C120003900345EFF0644223
:101F4F006051900345E0B44324900349E0FFA3E0C0
:101F5F00900364CFF0A3EFF07B007A007923A312F4
:101F6F00068B7BFF7A23791F120C61800A90034541
:101F7F00E0FF123203801C900349E475F001120454
:101F8F0076C390034AE09410900349E094275003DE
:101F9F00021F11122C3A900345EFF07BFF7A237941
:101FAF0037801B7BFF7A237944900344E0FF900333
:101FBF0064E4F0A3EFF080067BFF7A23795D120CC7
:101FCF00617F647E001207E77F01123280021E3D9F
:0300000002329A2F
:0C329A00787FE4F6D8FD758142021E1F0B
:10042900BB010689828A83E0225002E722BBFE02D1
:09043900E32289828A83E4932204
:10044200BB010989828A83F8E028F022500327F74A
:1004520022BBFE05F8E328F3228A838982F8E4931B
:0204620028224E
:10046400BB010689828A83F0225002F722BBFE0177
:02047400F32271
:10047600C5F0F8A3E028F0C5F0F8E5821582700211
:060486001583E038F022AE
:0D048C00EF2BFFEE3AFEED39FDEC38FC22BF
:0E049900C3EF9BFFEE9AFEED99FDEC98FC225E
:1004A70075F008758200EF2FFFEE33FECD33CDCC0C
:1004B70033CCC58233C5829BED9AEC99E58298408F
:1004C7000CF582EE9BFEED9AFDEC99FC0FD5F0D66C
:1004D700E4CEFBE4CDFAE4CCF9A88222B800C1B996
:1004E7000059BA002DEC8BF084CFCECDFCE5F0CBD4
:1004F700F97818EF2FFFEE33FEED33FDEC33FCEB0D
:1005070033FB10D703994004EB99FB0FD8E5E4F9C7
:10051700FA227818EF2FFFEE33FEED33FDEC33FCB4
:10052700C933C910D7059BE99A4007EC9BFCE99AA8
:10053700F90FD8E0E4C9FAE4CCFB2275F010EF2FED
:10054700FFEE33FEED33FDCC33CCC833C810D707ED
:100557009BEC9AE899400AED9BFDEC9AFCE899F828
:0E0567000FD5F0DAE4CDFBE4CCFAE4C8F922BB
:0E057500C3E49FFFE49EFEE49DFDE49CFC2297
:10058300EB9FF5F0EA9E42F0E99D42F0E89C45F0CE
:010593002245
:10059400E8600FECC313FCED13FDEE13FEEF13FF45
:0305A400D8F12269
:1005A700E8600FEFC333FFEE33FEED33FDEC33FCB2
:0305B700D8F12256
:0C05BA00E6FC08E6FD08E6FE08E6FF226D
:0C05C600E0FCA3E0FDA3E0FEA3E0FF22A8
:0D05D200E6FB08E6F908E6FA08E6CBF82299
:0C05DF00E0F8A3E0F9A3E0FAA3E0FB229F
:1005EB007401FF3395E0FEFDFCA3A3A3E02FFFF006
:1005FB00E582158270021583E03EFEF0E5821582DE
:10060B0070021583E03DFDF0E582158270021583C3
:05061B00E03CFCF022B0
:0C062000ECF608EDF608EEF608EFF62206
:0C062C00ECF0A3EDF0A3EEF0A3EFF02241
:10063800D083D082E493F608740193F60874029389
:09064800F608740393F6740473C0
:10065100A8828583F0D083D08212066812066812C0
:100661000668120668E473E493A3C583C5F0C583E5
:10067100C8C582C8F0A3C583C5F0C583C8C582C8F3
:010681002256
:09068200E0FBA3E0FAA3E0F92279
:09068B00EBF0A3EAF0A3E9F02270
:100BF600E5162464F582E43403F583E005162290B5
:100C06000361300903900364E475F0011207AA0238
:100C160004292002E97F2ED2028018EF540F249077
:100C2600D43440D4FF30060BEF24BFB41A0050036F
:100C36002461FFE51760021517051AE51A7002050B
:100C46001930090E900361E475F0011207AAEF024C
:100C5600046402307A7403D2098003E4C209F516EB
:100C660090036112068BE4F517F519F51AE517607E
:100C7600077F20120C3980F57518FFC203C202C225
:100C860004C205C207C208C20A120C05FF700D3065
:100C960009057F00120C4AAF1AAE1922B4255FC2AD
:100CA600D5C206120C05FF24D0B40A00501A75F0FE
:100CB6000A781730D50508B6FF0106C6A426F62021
:100CC600D5047002D20580D924CFB41A00EF50049F
:100CD600C2E5D206020E4BD20380C6D20280C0D233
:100CE6000480BCD2D580BAD20780B47F20120C39DA
:100CF6002004077401B5170040F1120BF6FF120C21
:100D060039020C73D20AD2088095120BF6FB120B2D
:100D1600F6FA120BF6F94A4B7006791C7A0F7BFF2E
:100D260020042EE517602A7E008E82758300120746
:100D36007D60060EEE651870F0C2D5EBC0E0EAC025
:100D4600E0E9C0E0EE120E92D0E0F9D0E0FAD0E091
:100D5600FB120429FF60AAEBC0E0EAC0E0E9C0E0AC
:100D6600120C39D0E02401F9D0E03400FAD0E0FBCF
:100D7600E5180460DCD518D980877BFF7A0E798E5A
:100D8600D204809C791080027908C208C20A8008C1
:100D9600D2D5790A8004790AC2D5E518047002F51D
:100DA60018E4FAFDFEFF120BF6FC7B082003131273
:100DB6000BF6FD7B1030020A120BF6FE120BF6FF45
:100DC6007B20EC3382D592D55013C3E43002069FC4
:100DD600FFE49EFEE42003039DFDE49CFCE4CBF8C7
:100DE600C203EC700CCFCECDCCE824F8F870F380BB
:100DF60017C3EF33FFEE33FEED33FDEC33FCEB337D
:100E0600FB994002FB0FD8E9EB300305F8D0E0C4AC
:100E160048B203C0E00AEC4D4E4F78207B0070C20A
:100E2600EAB5180040BCC0E0120E94D0F0D0E02025
:100E36000304C4C0E0C4B203C0F0120C22D0F0D543
:100E4600F0EB020C731207C10D10530D8A580CE11A
:100E56004C0CDD420D8E4F0D96440D96490CF64313
:080E66000D9C550D80460D8026
:100E6E00450D80470F3C500CE52D0CE92E0D0C2B3B
:100E7E000CED230D0A200F252A0CA54800000D04A9
:100E8E003F3F3F00790AA2D5200514300709B9105B
:100E9E00020404B9080104A2D5200802500104205E
:100EAE0004689204B517005034C0E07F2030051955
:100EBE007F30A20472087207500F120EEBC204C2EA
:100ECE0008C207C20A7F30800F300703E9C0E01264
:100EDE000C39300703D0E0F9D0E0B517CC30071746
:100EEE007F30B9100C120C397F583006077F78808E
:100EFE0003B90803120C393004057F2D020C397F1B
:100F0E0020200AF87F2B2008F322920480CF286E2F
:100F1E00756C6C2900D203120BF63003F8C20378FD
:100F2E001730D50108F6020CA52D50434958120B67
:100F3E00F62403B405004001E4900F3793120C2AF7
:0D0F4E00743A120C2AD205751704020D8AA0
:10069400E709F60870FA8046E709F20870FA803E26
:1006A40088828C83E709F0A370FA807EE309F60858
:1006B40070FA8076E309F20870FA806E88828C837F
:1006C400E309F0A370FA806289828A83E0A3F608C2
:1006D40070FA805689828A83E0A3F20870FA804A0D
:1006E40080D280FA80C680D4806580F28031801008
:1006F40080A680EA809A80A880DA80E280CA80316D
:1007040089828A83ECFAE493A3C8C582C8CCC583E2
:10071400CCF0A3C8C582C8CCC583CC70E9800D8950
:10072400828A83E493A3F60870F9ECFAA9F0EDFB4E
:100734002289828A83ECFAE0A3C8C582C8CCC58327
:10074400CCF0A3C8C582C8CCC583CC70EA80DD894F
:10075400828A83E493A3F20870F980CE88F0ED24B2
:1007640002B4040050C4F582EB2402B4040050BA6D
:0907740023234582239006E4735F
:10321A00E4FFFE120429600C0FEF70010E09E97039
:05322A00F20A80EF2212
:10077D00BB010CE58229F582E5833AF583E0225031
:10078D0006E92582F8E622BBFE06E92582F8E2227B
:0D079D00E58229F582E5833AF583E4932295
:1007AA00F8E0FBA3A3E0F925F0F0E58215827002D8
:0707BA001583E0FA38F0227C
:1007C100D083D082F8E4937012740193700DA3A3C7
:1007D10093F8740193F5828883E4737402936860DB
:0607E100EFA3A3A380DFDB
:10307A00EFB40A07740D123085740A309811A899B2
:10308A00B8130CC2983098FDA899C298B811F630B6
:07309A0099FDC299F599228E
:00000001FF
