:102DA50075A15575A1AAE5B954F84404F5B9E4F53A
:022DB500A12259
:0E2DB700EF4E600905A1EF1F70F61E80F3229B
:102D7500CDEFCDCCEECCED4C600E7FE87E03122D71
:092D8500B7ED1D70F11C80EE2277
:042DFC0043C6102298
:1026B400C29FD29EC29DC2CDC2CC4387809000FFF0
:1026C40012178F00000082E47B0AFAF9F89000FFE9
:1026D400E0FCA3E0FDA3E0FEA3E0FF1216F19001ED
:1026E40003EBF09000FFE0FCA3E0FDA3E0FEA3E019
:1026F400FFE47B0AFAF9F81216F19000FF1217832F
:10270400900103E0C39405401F9000FFE0FCA3E0A8
:10271400FDA3E0FEA3E02401FFE43EFEE43DFDE46E
:102724003CFC9000FF121783E589540F4420F5897F
:1027340043C9A09000FFA3A3A3E0F404F58DD28EB7
:04274400D299D29CB8
:01274800226E
:082DDF003098FDC298AF992263
:082DE7008F993099FDC2992279
:102D8E0075A15575A1AAEF600543B101800353B13A
:072D9E00FEE4F5A1F5FF22A0
:032E00008FFF221F
:101832005553422064657620696E0A005553422052
:10184200646576206F75740A005345545F504F5299
:1018520054202025303258202025303258200025AF
:1018620030327820000A0052657365742055534265
:1018720020506F72740A0044697361626C6520754E
:10188200736220706F727420626563617573652084
:101892006F6620646973636F6E6E6563740A0047D6
:1018A200657444657644657363723A200078253026
:1018B2003258200047657443666744657363723A21
:1018C20020005553422D4469736B2052656164793F
:1018D2000A005553422D5072696E74204F4B0A0014
:1018E2005553422D5072696E742052656164790AB3
:1018F20000416E616C797A65486964496E74456E1F
:10190200647020253032780A004374726C53657417
:10191200557362436F6E66696720253032780A001C
:101922004765744849445265706F72743A20005595
:1019320053425F4445565F434C4153535F484944C9
:101942002052656164790A005553422D4B657962D4
:101952006F6172642052656164790A005553422DA9
:101962004D6F7573652052656164790A004765742D
:1019720048756244657363723A20004578742D4855
:10198200554220506F72745F2531642320706F7747
:101992006572206F6E206572726F720A0064765FE4
:1019A200636C7320253032780A0069665F636C735A
:1019B20020253032780A0069665F737562636C7342
:1019C20020253032780A00253032782025303278CE
:1019D2000A00414F41204D6F64650A00496E6974E7
:1019E200526F6F7444657620457272203D20253017
:1019F20032580A00456E756D5553424465760A00A9
:101A0200496E697420646576204045787448756231
:101A12002D706F72745F25316420005468697320E1
:101A220070726F6772616D20646F6E2774207375B8
:101A320070706F7274204C6576656C203220485548
:101A4200420A00496E69744465764F6E4875622099
:101A5200457272203D20253032580A00466F756E5D
:101A6200642066756C6C20737065656420646576AD
:101A7200696365206F6E20706F7274202531640A6D
:101A820000466F756E64206C6F77207370656564B5
:101A920020646576696365206F6E20706F727420B2
:101AA2002531640A00526573657420706F72742068
:101AB200616E64207468656E207761697420696E56
:101AC2000A00446576696365206F6E20706F7274D8
:101AD200206572726F720A00446576696365206FD1
:101AE2006E20706F7274202531642072656D6F767E
:101AF20065640A00456E756D416C6C487562506F85
:101B0200727420657272203D20253032580A0021FD
:071B120009000200000100C0
:082DEF00E4900177F0A3F0224B
:1029C800E490011CF0E5DA30E025900177E060053D
:1029D800E5D120E038122DEF9001777401F07BFFEC
:1029E8007A18793212123590011C7415F0801E90F5
:1029F8000177E0C394014015122DEF7BFF7A187917
:102A08003E12123590011CE070037416F090011C00
:022A1800E0FFDD
:012A1A002299
:0C2DD300EF547FFFE5E354804FF5E3224E
:0E2DC500EF600753E2BF53D27F2243E2402269
:102AED009001457408F07E007F0D7D007B017A0119
:102AFD0079771217C0E4FF122DD353D1FE7F011247
:102B0D002DC5E5D154FB4402F5D17F147E00122D65
:0E2B1D007553D1FD7FFA7E00122DB7C2D8226B
:102B2B00900177E0C3940150037401F0E5DA30E0D3
:102B3B0026E5D120E015E5DA30E1047F0080027F45
:102B4B0001900179EFF0700343D10443E20175D298
:0A2B5B004043D1017F00227F1622C3
:10291900CEEFCEEE604175F00CA4243BF582E43491
:1029290001F583E0FF122DD3EE75F00CA4243CF5DC
:1029390082E43401F583E0FF122DC5EE75F00CA495
:10294900243CF582E43401F583E0701B43D280D244
:102959000B7F64FE022DB7C20B900178E0FF122DA8
:08296900D3A3E0FF122DC522EB
:102D5B007F907E0120D909EF1F70011EEF4E70F49A
:092D6B0030D9047F0080027FFED4
:012D7400223C
:0B25D400900119EFF0A3EAF0A3EBF078
:1025DF00CFEDCF8FD68FD4E4F5DD900119E0F5D58F
:1025EF00C2D97F907E0120D909EF1F70011EEF4ED7
:1025FF0070F4E4F5D520D9037FFE2230D823C2D85A
:10260F001229C8EFB41502D209900177E0FE7003CA
:10261F007F1622EEB401037F15227FC87E00122D94
:10262F00B730D96730DE037F0022E5D9540FFFB4EE
:10263F000E028043EFB40A2990011AE0FCA3E0FDDB
:10264F004C7003EF803EC3ED94FFEC94FF500E905F
:10265F00011BE024FFF090011AE034FFF015DD803C
:10266F002D900119E0C4540F24F7600D24FC600471
:10267F00240C7014EF6017800BEFB40304640B602D
:10268F000DEF600A4420FF227FFE2275D8FF7F0FD7
:10269F007E00122DB705DDAFDDEFC39403500302AB
:0426AF0025E97F207A
:0126B3002204
:0D1B1900122A1B7E007F807B017A01790774
:0B1B260090010CEBF0A3EAF0A3E9F043
:101B3100E4A3F0A3F0CAEECAC9EFC97B0190011377
:101B410004F0A3EAF0A3E9F090010CE0F9A3E0FAB4
:101B5100A3E0900116C9F0A3EAF0A3E9F07FC87EE3
:101B610000122DB7900116E0FBA3E0FAA3E0F9EA19
:101B7100494B6004E412168D75D7087B107A27E46F
:101B8100FD7FD01225D4900111EFF06003E0FF2218
:101B910075D6D075D4D075D701900047E0FE90007E
:101BA10046E0FDEDFF90010FEEF0A3EFF04E700364
:101BB100021D72900113E0FBA3E0FAA3E0F9EA49E8
:101BC1004B7003021D72900040E020E703021C826B
:101BD10090010FE07002A3E07003021C7C7FC87EBD
:101BE10000122DB77B107A27ADD47F901225D490A7
:101BF1000111EFF0E0FF600122AFDB90010FE0FC8B
:101C0100A3E0FDD39FEC94004004AFDB8003CFED54
:101C1100CF900112EFF0E0FFC3900110E09FF09030
:101C2100010FE09400F0900116E0FBA3E0FAA3E0BD
:101C3100F9EA494B6004EF12166BE4FF900112E0E0
:101C41006F602874002FF582E43400F583E0FE9084
:101C51000113E0FBA3E0FAA3E0F9EE12168D900167
:101C610014E475F00112169F0F80D1E5DB600C9032
:101C71000145E01455DB7003021BD1E4F5D7021DC9
:101C81007290010FE07002A3E07003021D727FC821
:101C91007E00122DB7900145E0FFFD90010FE0FAA3
:101CA100A3E0FBC39DEA940040028003CFEBCF8FFA
:101CB100D7900113E0FBA3E0FAA3E0F99000011231
:101CC100163E64097037900176E06401F012168DBA
:101CD100900113E0FBA3E0FAA3E0F9121625FF90AF
:101CE1000120E4F0A3EFF0900176E0FF900122E4FF
:101CF100F0A3EFF07BFF7A18794B121235E4FFEF76
:101D010065D76028900113E0FBA3E0FAA3E0F91284
:101D11001625FE74402FF582E43400F583EEF09031
:101D21000114E475F00112169F0F80D37B107A27FE
:101D3100ADD67F101225D4900111EFF0E0FF6001C4
:101D410022AFD7C3900110E09FF090010FE0940003
:101D5100F0900116E0FBA3E0FAA3E0F9EA494B7029
:101D610003021C82900116A3A3E5D712166B021C75
:101D7100827FC87E00122DB7E5D760047F90800274
:101D81007F107B107A277DC01225D4900111EFF0CE
:101D91006003E0FF22E5D77002FF22E5DB7002FF5E
:031DA100227F1787
:011DA400221C
:102A1B00300B298F828E83E493900040F07D018FE1
:102A2B00828E83E493FC74402DF582E43400F583AD
:102A3B00ECF00FBF00010E0DEDB409E3200B1FE40A
:102A4B00FD8F828E83E493FC74402DF582E4340079
:0E2A5B00F583ECF00FBF00010E0DEDB408E3A3
:012A6900224A
:102B65009001457408F07E1F7F2D122A1B7E007F81
:102B7500807B017A017908121B26EF600122900003
:102B850087E0900145F0901F33E493FF900108E042
:092B9500C39F50037F17227F004B
:012B9E002214
:102971007E1F7F35122A1B7E007F807B017A0179C1
:1029810008121B26CBEFCBEB600122900082E09076
:102991000108F07E1F7F35122A1B300B08900108B9
:1029A100E0900047F0200B08900108E0900046F00D
:1029B1007E007F807B017A017908121B26CBEFCB49
:0629C100EB6001227F0023
:0129C70022ED
:052A6A00900108EFF0EF
:102A6F007E1F7F3D122A1B300B08900108E090005B
:102A7F0043F0200B08900108E0900042F07B007AB1
:102A8F00007900E4FFFE121B26EF6001229001087F
:0E2A9F00E0FF122DD37F0A7E00122D757F00FE
:012AAD002206
:052C0400900102E0FF59
:102C0900CBEFCB7E1F7F45122A1B300B059000436B
:102C1900EBF0200B05900042EBF07B007A00790085
:072C2900E4FFFE121B26224E
:102CAC00CBEFCB7E1F7F55122A1B300B05900045B6
:102CBC00EBF0200B05900044EBF07B007A007900E0
:072CCC00E4FFFE121B2622AB
:102CD300CBEFCB7E1F7F4D122A1B300B0590004399
:102CE300EBF0200B05900042EBF07B007A007900BB
:072CF300E4FFFE121B262284
:0528B900900108EFF0A2
:1028BE007E1F7F65122A1B900108E0300B069000E8
:1028CE0045F08004900044F07E007F807B017A0109
:1028DE007909121B26CBEFCBEB6001227E1F7F6D99
:1028EE00122A1B900108E0300B06900045F0800480
:1028FE00900044F07E007F807B017A017909121BE3
:0A290E0026CBEFCBEB6001227F0027
:01291800229C
:102C30007E1F7F5D122A1B7E007F807B007A0079D9
:102C400008121B26EF600122901F63E493FFE50842
:092C5000C39F50037F17227F008F
:012C59002258
:052AAE009000FFE0FFB5
:102AB30090004074A3F0A3E4F0A3F0A3F0A3EFF01D
:102AC300A3E4F0A37404F0A3E4F07E007F807B0111
:102AD3007A017901121B26EF600122900101E0C304
:092AE300940450037F17227F00C8
:012AEC0022C7
:072C5A009000FFE0FF7D0484
:102C61009000407423F0A37403F0A3EDF0A3E4F00B
:102C7100A3EFF0A3E4F0A3F0A3F0FBFAF9FFFE1237
:032C81001B2622ED
:052C84009000FFE0FFDD
:102C89009000407423F0A37401F0A3EDF0A3E4F0E5
:102C9900A3EFF0A3E4F0A3F0A3F0FBFAF9FFFE120F
:032CA9001B2622C5
:102D40007E1F7F75122A1B7E007F807B017A0179AE
:0A2D500007121B26EF6001227F002E
:012D5A002256
:0B238300900108EEF0A3EFF0A3EDF0D6
:10238E00E490010CF0ED7E007F046022EEC0E0EFE1
:10239E00C0E07D0090010AE075F00CA42442F974AF
:1023AE000135F0FA7B01D0E0FFD0E0FE80087D0021
:1023BE007B017A01797F1217C0E490010BF0900136
:1023CE0008E0FEA3E0FFF5828E83A3A3E0FD90015B
:1023DE000BE0FCC39D40030224C4EF2CF582E43EC7
:1023EE00F583A3E064056003022499900108A3E03D
:1023FE002CF582E43EF583A3A3A3E05403640360AB
:10240E0003022499EF2CF582E43EF583A3A3E0FDAD
:10241E0030E77890010AE0FC6025ED540FFD900145
:10242E000CE0FBEC75F00CA42442F582E43401F5CB
:10243E0083E5822BF582E43583F583EDF0802090E1
:10244E00010BE02FF582E43EF583A3A3E0540FFFCA
:10245E0090010CE0247FF582E43401F583EFF07BEC
:10246E00FF7A18796190010CE0247FF582E4340143
:10247E00F583E0FF900120E4F0A3EFF01212359007
:10248E00010CE004F0E0C39404502B90010BE0FF2C
:10249E00900108E0FCA3E02FF582E43CF583E09088
:1024AE00010DF0D39410500E90010DE0FF90010B32
:1024BE00E02FF00223CC7BFF7A1879671212359049
:0424CE00010CE0FF1E
:0124D20022E7
:092202007E007F80900101E0FDE7
:0B220B00900108EEF0A3EFF0A3EDF04F
:10221600E4A3F0A37402F0ED7E007F046022EEC01A
:10222600E0EFC0E07D0090010AE075F00CA42442C6
:10223600F9740135F0FA7B01D0E0FFD0E0FE8008AA
:102246007D007B017A01797F1217C0E4FF900108B7
:10225600E0FCA3E0FDF5828C83A3A3E0FEEFC39E22
:102266004003022380ED2FF582E43CF583A3E0646E
:1022760005600302235F900108A3E02FF582E43C8A
:10228600F583A3A3A3E054036402600302235F90D3
:10229600010AE0FE606AED2FF582E43CF583A3A314
:1022A600E030E726540FFD90010BE0FC04F0EE75DC
:1022B600F00CA42442F582E43401F583E5822CF582
:1022C60082E43583F583EDF0807B900108E0FCA382
:1022D600E02FF582E43CF583A3A3E0540FFE9001C2
:1022E6000CE0FD04F090010AE075F00CA42442F520
:1022F60082E43401F583E5822DF582E4358380415D
:10230600900108E0FCA3E0FD2FF582E43CF583A3F1
:10231600A3E030E70F540FFE90010BE0FB04F074CE
:102326007F2B8018ED2FF582E43CF583A3A3E054C0
:102336000FFE90010CE0FD04F0747F2DF582E4346D
:1023460001F583EEF090010BE0B402037401F09006
:10235600010CE0B404037403F0900108E0FCA3E070
:102366002FF582E43CF583E090010DF0D3941050F4
:0C2376000990010DE02FFF0222537F00B0
:012382002238
:1027D5007E1F7F7D121B19EF600122900080E0C3F0
:1027E500940250037F4122E4900108F0900108E033
:1027F500FEC394065049EE901F8D93FB75F008EECD
:10280500A424D7F582E5F0341FAF82FE122A1B906F
:102815000047E0FE900046E0FDEDFF7C0074942B40
:10282500F9EC341FFA7BFF78807C007D011215FFDF
:10283500121B1CEF600122900108E004F080AD7EC0
:0C2845001F7F85121B19EF6001227F002D
:012851002264
:10070900E4900106F09000FFF07BFF7A18796912F6
:100719001235E4900100F09000FFE0FFA3E0C39FD1
:10072900501E7F647E00122D759000FFE0D3940A5D
:100739004006900101E0FF22900100E004F080D71B
:10074900122AEDE4900100F0A3F07F017E00122D42
:1007590075122B2BEF7021900100F0A3E004F090AB
:1007690000FFE02414FFE433FE900101E0D39FEE83
:100779006480F8748098500C900100E004F0E0C3A4
:10078900946440C6900100E0600C122DEF7BFF7A63
:10079900187979121235E4FF1229197BFF7A187931
:1007A900A1121235122B65900101EFF06003020DC1
:1007B90058900100F0901F33E493FF900100E0FE90
:1007C900C39F50257BFF7A1879AF74802EF582E498
:1007D9003400F583E0FF900120E4F0A3EFF012125A
:1007E90035900100E004F080CC7BFF7A187967121C
:1007F9001235900089E0FE900088E07C002400FF1B
:10080900EC3E90017BF0A3EFF090008BE0FE9000AE
:100819008AE02400FFEC3E90017DF0A3EFF0900008
:1008290084E0900103F0901F3FE493FF122A6A903D
:100839000101EFF06003020D58901F3F939001787A
:10084900F07BFF7A1879B6121235122971900101DD
:10085900EFF06003020D58900085E0900102F090DE
:100869000084E0900105F0E4900100F0900082E03E
:10087900FF900100E0FEC39F50257BFF7A1879AFF6
:1008890074802EF582E43400F583E0FF900120E4C2
:10089900F0A3EFF0121235900100E004F080CD7B57
:1008A900FF7A18796712123590008EE0900104F0F2
:1008B900900103E0706CA3E0640870667E007F809D
:1008C900FD12220BE4900100F0900100E0FF6404A6
:1008D90060257BFF7A187961747F2FF582E43401F2
:1008E900F583E0FF900120E4F0A3EFF012123590B8
:1008F9000100E004F080D27BFF7A18796712123583
:10090900122C04900101EFF06003020D5890017759
:100919007403F090017A7408F07BFF7A1879C402A5
:100929000B22900103E060030209F0A3E064076071
:10093900030209F090008FE0640160030209F07B73
:10094900FF7A1879D4121235900093E0FFB4050BA1
:10095900A3E0FE600690017FF0801CEFB4051890BB
:100969000094E0FF7C0060047D0180027D00ED4C75
:100979007005900180EFF090009AE0FFB4051090A7
:100989000094E0600A90009BE090017FF0801EEFE8
:10099900B4051A900094E07E0060047F0180027F14
:1009A90000EF4E700890009BE0900180F0122C043B
:1009B900900101EFF06003020D58A3E0FF122CD360
:1009C900900101EFF0122D40900101EFF060030258
:1009D9000D589001777403F090017A7407F07BFF4A
:1009E9007A1879E2020B22900103E06003020B31CD
:1009F900A3E064036003020B3190008FE0D39401FC
:100A09004003020B317E007F80E4FD1223839001B5
:100A190001EFF07BFF7A1879F3900120E4F0A3EF5E
:100A2900F0121235900090E0900104F07BFF7A19E2
:100A3900790B900102E0FF900120E4F0A3EFF0129E
:100A49001235122C04900101EFF06003020D587B5E
:100A5900FF7A197922121235E4900103F090010509
:100A6900E0FE900103E0FFC39E504E1228B99001A9
:100A790001EFF0703C900100F0900100E0FFC39499
:100A89004050257BFF7A1879AF74802FF582E434C2
:100A990000F583E0FF900120E4F0A3EFF012123596
:100AA900900100E004F080D17BFF7A187967121277
:100AB90035900103E004F080A49001777403F0906D
:100AC9000104E06401702690017A7423F090010515
:100AD900E0D39401400F7BFF7A19793112123590D6
:100AE900017A7403F07BFF7A19794A802C9001040A
:100AF900E06402702A90017A7433F0900105E0D322
:100B09009401400F7BFF7A19793112123590017ADD
:100B19007403F07BFF7A19795E121235020D519038
:100B2900010174FBF0020D58900103E064096003B0
:100B3900020C2A7E007F80FD122383900101EFF0D1
:100B49007BFF7A1879F3900120E4F0A3EFF01212F9
:100B5900357BFF7A19796F121235122C3090010109
:100B6900EFF06003020D58900100F0900080E0FF63
:100B7900900100E0FEC39F50257BFF7A1879AF747E
:100B8900802EF582E43400F583E0FF900120E4F043
:100B9900A3EFF0121235900100E004F080CD7BFF45
:100BA9007A187967121235900082E0900183F0D3A8
:100BB900940440037404F0122C04900101EFF060D6
:100BC90003020D589001777403F090017A7409F0CB
:100BD9009001007401F0900183E0FF900100E0D3DF
:100BE9009F503BE0FF75F00CA4243AF582E43401F0
:100BF900F583E4F07D08122C61900101EFF0601695
:100C09007BFF7A19797D900100E0FF900120E4F0E3
:100C1900A3EFF0121235900100E004F080B8020D44
:100C2900517BFF7A19799F900103E0FF900120E43D
:100C3900F0A3EFF01212357BFF7A1979AC90010419
:100C4900E0FF900120E4F0A3EFF01212357BFF7A68
:100C59001979B990008FE0FF900120E4F0A3EFF03B
:100C69001212357E007F80E4FD12220BE490010010
:100C7900F0900100E0FF640460257BFF7A18796138
:100C8900747F2FF582E43401F583E0FF900120E4BD
:100C9900F0A3EFF0121235900100E004F080D27B4E
:100CA900FF7A187967121235122C04900101EFF0BE
:100CB9006003020D587BFF7A1979C990017BE0FF27
:100CC900A3E0900120CFF0A3EFF090017DE0FFA316
:100CD900E0900122CFF0A3EFF012123590017BE0F2
:100CE90064187004A3E064D1702590017DE0FEA32F
:100CF900E47003EE642D70177BFF7A1979D4121210
:100D0900359001777403F090017A74F0F08039120C
:100D190027D5900101EFF07036900106E0C39403E6
:100D2900500DE004F07FF47E01122D7502071B902F
:100D39000103E0FF60028005900104E0FF90017A61
:100D4900EFF09001777403F07F01122DC51F227B0C
:100D5900FF7A1979DE900101E0FF900120E4F0A308
:100D6900EFF01212359001777402F07F01122DC550
:090D79009000FFE004F002071BEA
:102D21007BFF7A1979F6121235900177E0B4010C24
:0E2D3100120709780EEFF66003E6FF227F001E
:012D3F002271
:050D8200900101EFF0FB
:100D87007BFF7A1A7902900120E4F0A3EFF01212A8
:100D970035900101E0FE70037FFE22CFEECF1229CE
:100DA700197BFF7A1879A1121235122B659001036E
:100DB700EFF06003E0FF22900089E0FE900088E0FA
:100DC7007C002400FFEC3EFE900101E0FD75F00C75
:100DD700A4243EF582E43401F583EEF0A3EFF0900E
:100DE700008BE0FE90008AE07A002400FFEA3EFED6
:100DF700ED75F00CA42440F582E43401F583EEF0A0
:100E0700A3EFF0900084E0900105F0900101E02449
:100E170010FF900104F0122A6A900103EFF06003BB
:100E2700E0FF22900104E0FF900101E075F00CA4BF
:100E3700243BF582E43401F583EFF07BFF7A1879E0
:100E4700B6121235122971900103EFF06003E0FF2B
:100E570022900085E0900104F0E4900102F09000F8
:100E670082E0FF900102E0FEC39F50257BFF7A18C6
:100E770079AF74802EF582E43400F583E0FF9001AA
:100E870020E4F0A3EFF0121235900102E004F080A5
:100E9700CD7BFF7A18796712123590008EE09001AA
:100EA70006F0900105E06003020F4CA3E0640860C0
:100EB70003020F4C122202E4900102F0900102E0BB
:100EC700FF640460367BFF7A187961900101E07551
:100ED700F00CA42442F582E43401F583E5822FF572
:100EE70082E43583F583E0FF900120E4F0A3EFF07F
:100EF700121235900102E004F080C17BFF7A187965
:100F070067121235900104E0FF122C09900103EFDC
:100F1700F06003021195900101E0FF75F00CA42425
:100F27003AF582E43401F5837403F0EF75F00CA40D
:100F3700243DF582E43401F5837408F07BFF7A18C9
:100F470079C40210B2900105E060030210BAA3E071
:100F5700640360030210BA90008FE0D3940140034A
:100F67000210BA900084E0900107F07E007F809025
:100F77000101E0FD122383900103EFF07BFF7A1854
:100F870079F3900120E4F0A3EFF01212359000906E
:100F9700E0900106F0900104E0FF122C0990010394
:100FA700EFF06003021195900105F0900107E0FE54
:100FB700900105E0FFC39E504E1228B9900103EF40
:100FC700F0703C900102F0900102E0FFC3944050A2
:100FD700257BFF7A1879AF74802FF582E43400F50A
:100FE70083E0FF900120E4F0A3EFF01212359001A7
:100FF70002E004F080D17BFF7A18796712123590EE
:101007000105E004F080A4900101E0FF75F00CA455
:10101700243AF582E43401F5837403F0900106E085
:101027006401703FEF75F00CA4243DF582E43401B0
:10103700F5837423F0900107E0D39401401D7BFFF3
:101047007A197931121235900101E075F00CA42458
:101057003DF582E43401F5837403F07BFF7A197957
:101067004A8048900106E064027046900101E075ED
:10107700F00CA4243DF582E43401F5837433F09039
:101087000107E0D39401401D7BFF7A1979311212D1
:1010970035900101E075F00CA4243DF582E434019C
:1010A700F5837403F07BFF7A19795E12123502110A
:1010B7008E8039900105E06409703A900101E0756E
:1010C700F00CA4243DF582E43401F5837409F07B28
:1010D700FF7A1A791D121235900102E0FF7D011285
:1010E7002C89900103EFF06003E0FF229001037465
:1010F700FBF0021195122202E4900102F090010226
:10110700E0FF640460367BFF7A187961900101E0A3
:1011170075F00CA42442F582E43401F583E5822FAF
:10112700F582E43583F583E0FF900120E4F0A3EF37
:10113700F0121235900102E004F080C17BFF7A18AB
:101147007967121235900104E0FF122C0990010310
:10115700EFF0703A900101E0FF75F00CA4243AF526
:1011670082E43401F5837403F0900105E0FE600228
:101177008005900106E0FEEF75F00CA4243DF58292
:10118700E43401F583EEF07F01122DC51F227BFFAA
:101197007A1A7945900103E0FF900120E4F0A3EF6C
:1011A700F0121235900101E075F00CA4243AF58293
:1011B700E43401F5837402F07F01122DC590010319
:0211C700E0FF47
:0111C9002203
:102007009000FF7401F0900183E0FF9000FFE0D3A0
:102017009F40030221FFE4FF122919122AAE900103
:1020270000EFF06003E0FF22900080E030E00790CF
:102037000082E020E00B900082E064106003022140
:10204700629000FFE0FF75F00CA4243AF582E434B7
:1020570001F5837401F0EF75F00CA4243BF582E4DD
:102067003401F583E4F0122AB3900100EFF0600326
:10207700E0FF22900081E030E1047F0080027F01D1
:102087009000FFE0FE75F00CA4243CF582E43401D7
:10209700F583EFF0EE75F00CA4243CF582E43401EF
:1020A700F583E07BFF60077A1A795EEE80087A1A7B
:1020B70079839000FFE0FF900120E4F0A3EFF01296
:1020C70012357FC87E00122D75122C5A900100EF31
:1020D700F06003E0FF227BFF7A1A79A71212357F9F
:1020E700017E00122D75122AAE900100EFF06003F9
:1020F700E0FF22900080E020E4E57F647E00122D5F
:10210700757D14122C84900100EFF07D10122C8441
:10211700900100EFF06003E0FF22122AAE90010069
:10212700EFF06003E0FF22900080E020E0139000D2
:10213700FFE075F00CA4243AF582E43401F583E45A
:10214700F09000FFE0FF120D82900100EFF06003B6
:10215700E0FF227F01122DC50221F6900082E030B8
:10216700E13D9000FFE0FF7D11122C897BFF7A1A79
:1021770079C4121235122C5A900100EFF06003E077
:10218700FF227F017E00122D75122AAE900100EF0B
:10219700F06003E0FF22900080E020E4E5805090AB
:1021A7000080E020E0499000FFE0FF75F00CA424D8
:1021B7003AF582E43401F583E0C3940140117BFFD3
:1021C7007A1A79DA900120E4F0A3EFF01212359031
:1021D70000FFE0FF75F00CA4243AF582E43401F522
:1021E70083E4F0900082E030E0057D10122C8990A6
:0A21F70000FFE004F002200D7F005D
:0122010022BA
:102B9F00900177E0C39403402890017AE0640970B4
:102BAF0020FF122919122007EF60117BFF7A1A7983
:102BBF00F6900120E4F0A3EFF01212357F01122DF1
:032BCF00C57F00BF
:012BD20022E0
:10285200E4F990017AE064097043900177E0C3944F
:1028620003403A7D01900183E0FEEDD39E502EEDB0
:1028720075F00CA4243DF582E43401F583E06F7019
:1028820019ED75F00CA4243AF582E43401F583E0E5
:10289200C394034005E9FEEDFF220D80C890017A42
:1028A200E06F700E900177E0C394034005E97F006A
:0628B200FE227EFF7FFF05
:0128B80022FD
:0B24D3009000FFEBF0A3EAF0A3E9F09B
:1024DE0078027C017D017BFF7A1B79117E007F08DB
:1024EE001215FF9000FFE0FBA3E0FAA3E0F99000C5
:1024FE000112163EFF1216254FFF90000312163ED4
:10250E004FFF90000412163E4FFF90000512163E2C
:10251E004FFF90000612163E4FFF90000712163E18
:10252E0070047E0180027E00EE4FFF9000FFE0FB04
:10253E00A3E0FAA3E0F990000212163EB453047E13
:10254E000180027E00EE5F607A300B3290004074A4
:10255E0021F090010B7401F090010BE0FF2402F5C5
:10256E0082E43401F583E0FE74402FF582E43400FA
:10257E00F583EEF090010BE004F0E0B409DA200BE5
:10258E002BE490010BF090010BE0FF2402F582E4A6
:10259E003401F583E0FE74402FF582E43400F583B8
:1025AE00EEF090010BE004F0E0B408DA7E007F80DC
:1025BE007B017A01790A121B2690010BEFF0600362
:0525CE00E0FF227F0088
:0125D30022E5
:102BD300C2EA75E28053D17FE4F5E375EB4875E50E
:102BE3000075E40075E70075E640F5D4F5D675E2A7
:102BF3008875D8FFFF122DEF0FEFB402F875E103CC
:012C030022AE
:101DA500537461727420404368697049443D25301D
:101DB50032580A0057616974204465766963652065
:101DC500496E0A00456E756D416C6C526F6F7444B7
:101DD500657620657272203D20253032580A00450F
:101DE5006E756D416C6C487562506F7274206572CA
:101DF50072203D20253032580A00517565727920D0
:101E05004D6F7573652040253034580A004D6F7548
:101E1500736520646174613A20007825303258205A
:101E2500000A004D6F757365206572726F7220250B
:101E35003032780A004D6F757365206E6F20696EBC
:101E45007465727275707420656E64706F696E74F6
:101E55000A005175657279204B6579626F6172640C
:101E65002040253034580A00253032582020006B98
:101E75006579626F61726420646174613A20006BF8
:101E85006579626F617264206572726F72202530A8
:101E950032780A006B6579626F617264206E6F201B
:101EA500696E7465727275707420656E64706F69A1
:101EB5006E740A005175657279205072696E746589
:101EC500722040253034580A005072696E7465726C
:101ED500206572726F7220253032780A005175655F
:101EE5007279205553425F4445565F434C415353E5
:101EF5005F4849442040253034580A00656E6470B7
:101F05003A20253032580A0073656E642062616399
:101F15006B0A007472616E736D6974206572726FFD
:101F25007220253032780A00800600010000120078
:101F35008006000200000400000502000000000009
:101F45000009000000000000010B00000000000077
:101F55000201000000000000A006002900000900A1
:101F6500210A000000000000810600220000FF0099
:101F7500A10000000000F103C033000000000200D2
:101F850040350000000000000004102327354357AA
:101F95004348005743485541525444656D6F0057B7
:101FA5004348204163636573736F72792054657389
:101FB5007400312E3000687474703A2F2F7763687F
:101FC5002E636E005743484163636573736F72797F
:101FD50031004034000000000400403400000100DE
:101FE5000C004034000002001300403400000300E0
:101FF50004004034000004000E00403400000500D9
:022005000E00CB
:042DF7004101760020
:10000300122DA57F327E00122D751226B47BFF7A46
:100013001D79A5AFA1900120E4F0A3EFF0121235F2
:10002300122BD3C2097BFF7A1D79B9121235E490E2
:1000330000F9F030D80FC2D81229C89000F9EFF0B8
:10004300BF1502D20930091FC209122D219000F9F0
:10005300EFF060137BFF7A1D79C9E0FF900120E484
:10006300F0A3EFF0121235122B9F9000F9EFF0601E
:10007300137BFF7A1D79E4E0FF900120E4F0A3EF06
:10008300F01212357F331228529000FDEEF0A3EFE9
:10009300F0F47002EEF470030201BB7BFF7A1D796A
:1000A300FF9000FDE0FFA3E0900120CFF0A3EFF06D
:1000B3001212359000FDE0FCA3E0FDEC9000F8F097
:1000C300CFEDCF9000FBEFF01229199000FBE06019
:1000D3001175F00CA42442F582E43401F583E0FFAA
:1000E300800590017FE0FF9000FCEFF0540F700358
:1000F3000201ADE0FE547F4490FFEE30E7047DC083
:1001030080027D00E4FBFA1225D49000F9EFF06041
:10011300030201949000FCE06480F09000FBE0FF98
:100123006015A3E0FEEF75F00CA42442F582E434DD
:1001330001F583EEF080089000FCE090017FF090E1
:1001430000FBE5DBF0E0606B7BFF7A1E7912121295
:1001530035E49000F8F09000FBE0FF9000F8E0FE3B
:10016300C39F50257BFF7A1E791F74002EF582E40E
:100173003400F583E0FF900120E4F0A3EFF01212C6
:10018300359000F8E004F080CD7BFF7A1E7926805D
:100193001F9000F9E0FF642A60197BFF7A1E79281B
:1001A300900120E4F0A3EFF080067BFF7A1E793AFA
:1001B3001212357F01122DC57F231228529000FDA4
:1001C300EEF0A3EFF0F47002EEF470030203097B88
:1001D300FF7A1E79579000FDE0FFA3E0900120CF46
:1001E300F0A3EFF01212359000FDE0FCA3E0FDEC6C
:1001F3009000F8F0CFEDCF9000FBEFF012291990AB
:1002030000FBE0601175F00CA42442F582E4340194
:10021300F583E0FF800590017FE0FF9000FCEFF0A5
:100223007BFF7A1E796D900120F01212359000FC4D
:10023300E0FE540F70030202FBEE547F4490FFEE86
:1002430030E7047DC080027D00E4FBFA1225D490E0
:1002530000F9EFF060030202E29000FCE06480F03A
:100263009000FBE0FF6015A3E0FEEF75F00CA42403
:1002730042F582E43401F583EEF080089000FCE05F
:1002830090017FF09000FBE5DBF0E060747B017A86
:100293000079001224D37BFF7A1E7974121235E49D
:1002A3009000F8F09000FBE0FF9000F8E0FEC39FA1
:1002B30050257BFF7A1E791F74002EF582E43400EB
:1002C300F583E0FF900120E4F0A3EFF012123590E4
:1002D30000F8E004F080CD7BFF7A1E7926801F9022
:1002E30000F9E0FF642A60197BFF7A1E798490018C
:1002F30020E4F0A3EFF080067BFF7A1E79991212B7
:10030300357F01122DC530900302044A7E007F40E1
:100313007D007B017A0079401217C0900040741B66
:10032300F0A37440F0A3741DF0A37455F0A37442BA
:10033300F0A37402F0A37418F0A3741DF0A37476F1
:10034300F0A37430F0E4A3F0A37430F0E4A3F0A3BB
:100353007418F07F071228529000FDEEF0A3EFF01F
:10036300F47002EEF4700302044A7BFF7A1E79B93B
:100373009000FDE0FFA3E0900120CFF0A3EFF01287
:1003830012359000FDE0FCA3E0FDEC9000F8F0CF07
:10039300EDCF9000FBEFF01229199000FBE0601104
:1003A30075F00CA42442F582E43401F583E0FF8068
:1003B3000590017FE0FF9000FCEFF07BFF7A1E7950
:1003C3006D900120F01212359000FCE0FE540F6096
:1003D3007675D740EE547F4410FFEE30E7047DC0BE
:1003E30080027D0074FFFBFA1225D49000F9EFF030
:1003F300703B9000FCE06480F07E007F407D007BDA
:10040300017A0079401217C075D7409000FCE0FED6
:10041300547F4410FFEE30E7047DC080027D0074FA
:10042300FFFBFA1225D49000F9EFF0801A9000F93F
:10043300E0FF642A60117BFF7A1E79CE900120E4ED
:10044300F0A3EFF01212357F031228529000FDEE55
:10045300F0A3EFF0F47002EEF470030205E07BFF0B
:100463007A1E79E29000FDE0FFA3E0900120CFF037
:10047300A3EFF01212359000FDA3E0FF9000FDE41E
:10048300F0A3EFF0E49000FAF09000FAE0FF6404C8
:1004930070030205DB9000FDE0FCA3E0FD4C601857
:1004A300ED75F00CA42442F582E43401F583E58272
:1004B3002FF582E43583800B9000FAE0247FF582E8
:1004C300E43401F583E0FF9000FCEFF0540F700378
:1004D3000205DB7BFF7A1F79019000FCE0FF9001AE
:1004E30020E4F0A3EFF01212359000FDA3E0FF1219
:1004F30029199000FCE0FE547F4490FFEE30E7049E
:100503007DC080027D00E4FBFA1225D49000F9EF50
:10051300F060030205B89000FCE06480F0A3E0FE05
:10052300A3E0FF4E9000FC6029E0FDEF75F00CA402
:100533002442F582E43401F583C083C0829000FA3B
:10054300E0D082D0832582F582E43583F583EDF014
:100553008011E0FF9000FAE0247FF582E43401F596
:1005630083EFF09000FBE5DBF0E060637BFF7A1E36
:100573007974121235E49000F8F09000FBE0FF90DC
:1005830000F8E0FEC39F50257BFF7A1E791F74009D
:100593002EF582E43400F583E0FF900120E4F0A31C
:1005A300EFF01212359000F8E004F080CD7BFF7A73
:1005B3001E792680179000F9E0FF642A60117BFF03
:1005C3007A1E7984900120E4F0A3EFF012123590A3
:1005D30000FAE004F002048C7F01122DC57FF012B3
:1005E30028529000FDEEF0A3EFF0F47002EEF470E9
:1005F300030200319000FDA3E0FF9000FDE4F0A3AF
:10060300EFF090017FE09000FCF0540F70030207BD
:1006130001E4FF1229199000FCE0FE547F4490FF8F
:10062300EE30E7047DC080027D00E4FBFA1225D49E
:100633009000F9EFF060030206E79000FCE06480AD
:10064300F090017FF09000FBE5DBF0E49000F8F020
:100653009000FBE0FF9000F8E0FEC39F50257BFF76
:100663007A1E791F74002EF582E43400F583E0FFCF
:10067300900120E4F0A3EFF01212359000F8E004AB
:10068300F080CD7BFF7A1E79261212359000FBE0B5
:10069300FF606B7E0078407C007D017B017A0079EE
:1006A300001215FF900181E09000FCF0FE9000FB2A
:1006B300E0F5D7EE547F4410FFEE30E7047DC080B1
:1006C300027D0074FFFBFA1225D49000F9EFF0705D
:1006D3002D9000FCE06480F0900181F07BFF7A1F95
:1006E300790D80179000F9E0FF642A60117BFF7A8F
:1006F3001F7918900120E4F0A3EFF01212357F0167
:06070300122DC5020031B9
:030000000227498B
:0C274900787FE4F6D8FD7581210227900E
:10152F00E709F608DFFA8046E709F208DFFA803E9E
:10153F0088828C83E709F0A3DFFA8032E309F6088B
:10154F00DFFA8078E309F208DFFA807088828C83F3
:10155F00E309F0A3DFFA806489828A83E0A3F608A7
:10156F00DFFA805889828A83E0A3F208DFFA804C81
:10157F0080D280FA80C680D4806980F28033801058
:10158F0080A680EA809A80A880DA80E280CA8033C1
:10159F0089828A83ECFAE493A3C8C582C8CCC58339
:1015AF00CCF0A3C8C582C8CCC583CCDFE9DEE78009
:1015BF000D89828A83E493A3F608DFF9ECFAA9F088
:1015CF00EDFB2289828A83ECFAE0A3C8C582C8CCDE
:1015DF00C583CCF0A3C8C582C8CCC583CCDFEADEF7
:1015EF00E880DB89828A83E493A3F208DFF980CC59
:1015FF0088F0EF60010E4E60C388F0ED2402B40452
:10160F000050B9F582EB2402B4040050AF232345F8
:06161F00822390157F7389
:10162500BB010689828A83E0225002E722BBFE02C3
:09163500E32289828A83E49322F6
:10163E00BB010CE58229F582E5833AF583E0225061
:10164E0006E92582F8E622BBFE06E92582F8E222AB
:0D165E00E58229F582E5833AF583E49322C5
:10166B00BB010989828A83F8E028F022500327F70F
:10167B0022BBFE05F8E328F3228A838982F8E493E0
:02168B00282213
:10168D00BB010689828A83F0225002F722BBFE013C
:02169D00F32236
:10169F00C5F0F8A3E028F0C5F0F8E58215827002D6
:0616AF001583E038F02273
:1016B50075F008758200EF2FFFEE33FECD33CDCCEC
:1016C50033CCC58233C5829BED9AEC99E58298406F
:1016D5000CF582EE9BFEED9AFDEC99FC0FD5F0D64C
:1016E500E4CEFBE4CDFAE4CCF9A88222B800C1B976
:1016F5000059BA002DEC8BF084CFCECDFCE5F0CBB4
:10170500F97818EF2FFFEE33FEED33FDEC33FCEBEC
:1017150033FB10D703994004EB99FB0FD8E5E4F9A7
:10172500FA227818EF2FFFEE33FEED33FDEC33FC94
:10173500C933C910D7059BE99A4007EC9BFCE99A88
:10174500F90FD8E0E4C9FAE4CCFB2275F010EF2FCD
:10175500FFEE33FEED33FDCC33CCC833C810D707CD
:101765009BEC9AE899400AED9BFDEC9AFCE899F808
:0E1775000FD5F0DAE4CDFBE4CCFAE4C8F9229B
:0C178300ECF0A3EDF0A3EEF0A3EFF022D9
:10178F00A8828583F0D083D0821217A61217A612D3
:10179F0017A61217A6E473E493A3C583C5F0C583F8
:1017AF00C8C582C8F0A3C583C5F0C583C8C582C8A4
:0117BF002207
:1011CA00E5092420F582E43401F583E0050922903B
:1011DA00011D300703900120E475F0011217EC029B
:1011EA0016252000E97F2ED2008018EF540F249094
:1011FA00D43440D4FF30040BEF24BFB41A00500398
:10120A002461FFE50A6002150A050DE50D70020565
:10121A000C30070E90011DE475F0011217ECEF0275
:10122A00168D022CFA7403D2078003E4C207F5096B
:10123A0090011D121803E4F50AF50CF50DE50A6094
:10124A00077F2012120D80F5750BFFC201C200C282
:10125A0002C203C205C206C2081211D9FF700D30BC
:10126A0007057F0012121EAF0DAE0C22B4255FC215
:10127A00D5C2041211D9FF24D0B40A00501A75F04D
:10128A000A780A30D50508B6FF0106C6A426F62054
:10129A00D5047002D20380D924CFB41A00EF5004C7
:1012AA00C2E5D20402141FD20180C6D20080C0D285
:1012BA000280BCD2D580BAD20580B47F2012120D2A
:1012CA002002077401B50A0040F11211CAFF121276
:1012DA000D021247D208D20680951211CAFB1211CA
:1012EA00CAFA1211CAF94A4B700679F07A147BFFCE
:1012FA0020022EE50A602A7E008E8275830012166D
:10130A003E60060EEE650B70F0C2D5EBC0E0EAC097
:10131A00E0E9C0E0EE121466D0E0F9D0E0FAD0E0DD
:10132A00FB121625FF60AAEBC0E0EAC0E0E9C0E0C4
:10133A0012120DD0E02401F9D0E03400FAD0E0FB1B
:10134A00E50B0460DCD50BD980877BFF7A147962C0
:10135A00D202809C791080027908C206C2088008ED
:10136A00D2D5790A8004790AC2D5E50B047002F550
:10137A000BE4FAFDFEFF1211CAFC7B0820011312CE
:10138A0011CAFD7B1030000A1211CAFE1211CAFFDF
:10139A007B20EC3382D592D55013C3E43000069FEC
:1013AA00FFE49EFEE42001039DFDE49CFCE4CBF8EF
:1013BA00C201EC700CCFCECDCCE824F8F870F380E3
:1013CA0017C3EF33FFEE33FEED33FDEC33FCEB33A3
:1013DA00FB994002FB0FD8E9EB300105F8D0E0C4D5
:1013EA0048B201C0E00AEC4D4E4F78207B0070C233
:1013FA00EAB50B0040BCC0E0121468D0F0D0E0207F
:10140A000104C4C0E0C4B201C0F01211F6D0F0D594
:10141A00F0EB02124712180C12E453135E5812B57D
:10142A004C12B14213624F136A44136A4912CA43F7
:08143A001370551354461354BE
:101442004513544715105012B92D12BD2E12E02B20
:1014520012C12312DE2014F92A127948000012D890
:101462003F3F3F00790AA2D5200314300509B91085
:10147200020404B9080104A2D52006025001042086
:1014820002689202B50A005034C0E07F203003198E
:101492007F30A20272067205500F1214BFC202C23E
:1014A20006C205C2087F30800F300503E9C0E01292
:1014B200120D300503D0E0F9D0E0B50ACC300517A3
:1014C2007F30B9100C12120D7F583004077F7880DC
:1014D20003B9080312120D3002057F2D02120D7F8F
:1014E200202008F87F2B2006F322920280CF286E5C
:1014F200756C6C2900D2011211CA3001F8C2017850
:101502000A30D50108F60212792D504349581211BA
:10151200CA2403B405004001E490150B931211FE96
:0D152200743A1211FED203750A0402135E22
:1017C000EF4E6012EF60010EEDBB010B89828A8340
:1017D000F0A3DFFCDEFA2289F05007F709DFFCA94D
:0C17E000F022BBFEFCF309DFFCA9F022A4
:10275500020003E493A3F8E493A34003F68001F297
:1027650008DFF48029E493A3F85407240CC8C33385
:10277500C4540F4420C8834004F456800146F6DF54
:10278500E4800B0102040810204080902DF7E47EC0
:10279500019360BCA3FF543F30E509541FFEE49349
:1027A500A360010ECF54C025E060A840B8E493A310
:1027B500FAE493A3F8E493A3C8C582C8CAC583CA3B
:1027C500F0A3C8C582C8CAC583CADFE9DEE780BEF3
:012DFB0000D7
:1017EC00F8E0FBA3A3E0F925F0F0E5821582700286
:0717FC001583E0FA38F0222A
:09180300EBF0A3EAF0A3E9F022E6
:10180C00D083D082F8E4937012740193700DA3A36B
:10181C0093F8740193F5828883E47374029368607F
:06182C00EFA3A3A380DF7F
:102CFA00EFB40A07740D122D05740A309811A899B9
:102D0A00B8130CC2983098FDA899C298B811F63039
:072D1A0099FDC299F5992211
:00000001FF
