:100CF30075A15575A1AAE5B954F84404F5B9E4F50D
:020D0300A1222B
:0E0D0500EF4E600905A1EF1F70F61E80F3226D
:100CC500AD07AC06ED4C600E7FE87E03120D05ED19
:070CD5001D70F11C80EE22EE
:040D3D0043C6102277
:100B0000C29FD29EC29DC2CDC2CC4387809001437A
:100B100012099500000082E47B0AFAF9F89001437B
:100B2000E0FCA3E0FDA3E0FEA3E0FF1208F79001C4
:100B300047EBF0900143E0FCA3E0FDA3E0FEA3E05F
:100B4000FFE47B0AFAF9F81208F7900143120989C9
:100B5000900147E0C39405401F900143E0FCA3E0EF
:100B6000FDA3E0FEA3E02401FFE43EFEE43DFDE43E
:100B70003CFC900143120989E589540F4420F58912
:100B800043C9A0900143A3A3A3E0F404F58DD28E42
:040B9000D299D29C88
:010B9400223E
:080D1D003098FDC298AF992245
:080D25008F993099FDC299225B
:0A0D1300C2C7D2C5D2C475C2F322D4
:080D2D0030C0FDC2C0AFC122BD
:080D35008FC130C1FDC2C122D3
:100CDC0075A15575A1AAEF600543B101800353B10D
:070CEC00FEE4F5A1F5FF2273
:030D41008FFF22FF
:100A64004C69676874206F6E204E756D204C6F63FF
:100A74006B204C4544210A004C69676874206F66FA
:100A840066204E756D204C6F636B204C4544210AE3
:100A9400007A7A007374617274202E2E2E0A00126A
:100AA4000110010000004031510720000000000047
:100AB4000109022900010104A02309040000020322
:100AC400000005092100010001222200070582031C
:100AD400400001070502034000010600FF0901A1CF
:100AE40001090215002600FF7508954081060902D8
:0C0AF40015002600FF750895409106C013
:04003D004101150068
:10000300C2EAE4F5E275D18053D1FB53E2BF75E553
:100013000075E44443EB0C53EBFE75D41275ED000D
:1000230075EC0053EAF375DC02F5E343E22943D1AF
:0A0033000175D8FF75E107D2EA223B
:100CAB0078847C007D017B017A0079CB7E007F40CC
:0A0CBB0012087F75D54053D4FC22C7
:0300430002004672
:0D004600C0E0C0F0C083C082C0D075D008FB
:1000530020D90302040DE5D9543F70030203DE24C3
:10006300FE602524E2700302036924F06056240E27
:10007300600302040B75D500900115E4F0E5D45438
:10008300FC4402F5D402040B20DE0302040B9001AE
:100093001AE5DBF0E4FF90011AE0FEEFC39E501C6B
:1000A30074442FF582E43400F583E0F4FD74842F67
:1000B300F582E43400F583EDF00F80DA8ED553D466
:1000C300FC02040B90011AE5DBF0E0640860030214
:1000D300033C900006E090010BF090011AE4F090CD
:1000E3000001E090010CF0900000E054606060902B
:1000F300010CE024FE603714603424FA24FD502EF2
:10010300240B70249001167401F0A37400F0A374FF
:10011300CBF090010BE0FFC3944090011A400574AB
:1001230040F0800AEFF0800690011A74FFF090010E
:100133001AE0FF90010BE0D39F4002EFF090010B18
:10014300E0FFC3944040057F400201FB0201FB90A6
:10015300010CE0B40B00400302033A900165F82858
:10016300287302031D02026F02033A0202A702036D
:100173003A02023502018602033A020240020259A0
:10018300020342900003E024FE601E24E06030245A
:1001930021704290011674FFF0A3740AF0A374A3B4
:1001A300F090011A7412F0803290011674FFF0A3DC
:1001B300740AF0A374B5F090011A7429F0801C90AE
:1001C300011674FFF0A3740AF0A374DEF090011A11
:1001D3007422F0800690011A74FFF090011AE0FF78
:1001E30090010BE0D39F4002EFF090010BE0FFC3BF
:1001F300944040047F40800090011AEFF07E007825
:10020300007C007D01900116E0FBA3E0FAA3E0F976
:1002130012087F90010BE0FF90011AE0FEC3EF9EEE
:1002230090010BF0EEFF900117E48FF01208A50286
:100233000342900002E090010BF00203429000C8D9
:10024300E0900000F090010BE0C39401500302031F
:100253004290011A8010900002E09000C8F07003F1
:100263000203429001197401F0020342900000E07E
:10027300541F6402702B900004E024FE601D24814F
:10028300600E147041E5D454BC4402F5D402034219
:10029300E5D254BC4402F5D202034253D4730203A1
:1002A3004202033C900000E0541FFD701B900003CA
:1002B300E0FE900002E0FBEB64014E7009900ABC83
:1002C3009320E57B80738071ED6402704B90000393
:1002D300E0FE900002E0FDED4E703B900005E0FE75
:1002E300900004E0FDEDFFEE702AEF24FE60112480
:1002F30081601714701EE5D454BF4403F5D4803FC6
:10030300E5D4547F440CF5D48035E5D254BF44037F
:10031300F5D2802B80238021801F900000E4F0A37E
:10032300F090010BE0FFC3940290011A40057402A0
:10033300F0800CEFF08008800090011A74FFF090B9
:10034300011AE0FFB4FF0C90010C74FFF075DCCFD1
:1003530002040BEFD3944050048FDD800375DD005E
:1003630075DCC002040B90010CE024FB60571460A1
:10037300042405705E90010BE0FFC3944040047FAA
:1003830040800090011AEFF07E0078007C007D0130
:10039300900116E0FBA3E0FAA3E0F912087F9001B5
:1003A3000BE0FF90011AE0FEC3EF9E90010BF0EE0D
:1003B300FF900117E48FF01208A590011AE0F5DD14
:1003C30063DC408043E5E35480FF90010BE04FF58D
:1003D300E3800375DD0075DC02802D90011AE5DBF7
:1003E300F090010CE0B4091D900000E060087BFF71
:1003F3007A0A7964800C900000E070097BFF7A0A26
:10040300797C1204B563DC80C2D930D81775DC025D
:1004130075D21075D41275E300C2DAC2D9900115F2
:10042300E4F0C2D830DA12C2DAE5DA30E20E7BFF4A
:0C0433007A0A79951204B5800375D8FF91
:0B043F00D0D0D082D083D0F0D0E032CB
:100C2100120CF37F057E00120CC5120B007BFF7ABC
:100C31000A79981204B5E4FF74CB2FF582E43400ED
:100C4100F583EFF00FEFB440EF120003D2AFE4F5FC
:100C5100D3F5D59000CAF0900119F0900119E06028
:100C610019209516900115E070FA9001157401F0A4
:100C7100120CAB7F647E00120CC57F647E00120CE7
:030C8100C580D853
:03000000020B955B
:0C0B9500787FE4F6D8FD758122020BDCAD
:1007AF00E709F608DFFA8046E709F208DFFA803E2C
:1007BF0088828C83E709F0A3DFFA8032E309F60819
:1007CF00DFFA8078E309F208DFFA807088828C8381
:1007DF00E309F0A3DFFA806489828A83E0A3F60835
:1007EF00DFFA805889828A83E0A3F208DFFA804C0F
:1007FF0080D280FA80C680D4806980F280338010E6
:10080F0080A680EA809A80A880DA80E280CA80334E
:10081F0089828A83ECFAE493A3C8C582C8CCC583C6
:10082F00CCF0A3C8C582C8CCC583CCDFE9DEE78096
:10083F000D89828A83E493A3F608DFF9ECFAA9F015
:10084F00EDFB2289828A83ECFAE0A3C8C582C8CC6B
:10085F00C583CCF0A3C8C582C8CCC583CCDFEADE84
:10086F00E880DB89828A83E493A3F208DFF980CCE6
:10087F0088F0EF60010E4E60C388F0ED2402B404DF
:10088F000050B9F582EB2402B4040050AF23234586
:06089F0082239007FF73A5
:1008A500C5F0F8A3E028F0C5F0F8E58215827002DE
:0608B5001583E038F0227B
:1008BB0075F008758200EF2FFFEE33FECD33CDCCF4
:1008CB0033CCC58233C5829BED9AEC99E582984077
:1008DB000CF582EE9BFEED9AFDEC99FC0FD5F0D654
:1008EB00E4CEFBE4CDFAE4CCF9A88222B800C1B97E
:1008FB000059BA002DEC8BF084CFCECDFCE5F0CBBC
:10090B00F97818EF2FFFEE33FEED33FDEC33FCEBF4
:10091B0033FB10D703994004EB99FB0FD8E5E4F9AF
:10092B00FA227818EF2FFFEE33FEED33FDEC33FC9C
:10093B00C933C910D7059BE99A4007EC9BFCE99A90
:10094B00F90FD8E0E4C9FAE4CCFB2275F010EF2FD5
:10095B00FFEE33FEED33FDCC33CCC833C810D707D5
:10096B009BEC9AE899400AED9BFDEC9AFCE899F810
:0E097B000FD5F0DAE4CDFBE4CCFAE4C8F922A3
:0C098900ECF0A3EDF0A3EEF0A3EFF022E1
:10099500A8828583F0D083D0821209AC1209AC12EB
:1009A50009AC1209ACE473E493A3C583C5F0C58310
:1009B500C8C582C8F0A3C583C5F0C583C8C582C8AC
:0109C500220F
:10044A00E5152446F582E43401F583E0051522908A
:10045A000143301003900146E475F001120A1E02AE
:10046A0009C62009E97F2ED2098018EF540F24907B
:10047A00D43440D4FF300D0BEF24BFB41A0050031C
:10048A002461FFE516600215160519E519700205C3
:10049A001830100E900143E475F001120A1EEF02A3
:1004AA000A0C020C847403D2108003E4C210F515FE
:1004BA00900143120A35E4F516F518F519E51660A8
:1004CA00077F2012048D80F57517FFC20AC209C280
:1004DA000BC20CC20EC20FC211120459FF700D30AA
:1004EA0010057F0012049EAF19AE1822B4255FC210
:1004FA00D5C20D120459FF24D0B40A00501A75F05F
:10050A000A781630D50508B6FF0106C6A426F620D5
:10051A00D5047002D20C80D924CFB41A00EF50044B
:10052A00C2E5D20D02069FD20A80C6D20980C0D285
:10053A000B80BCD2D580BAD20E80B47F2012048D33
:10054A00200B077401B5160040F112044AFF120489
:10055A008D0204C7D211D20F809512044AFB1204ED
:10056A004AFA12044AF94A4B700679707A077BFFF5
:10057A00200B2EE516602A7E008E827583001209F2
:10058A00DF60060EEE651770F0C2D5EBC0E0EAC078
:10059A00E0E9C0E0EE1206E6D0E0F9D0E0FAD0E0F9
:1005AA00FB1209C6FF60AAEBC0E0EAC0E0E9C0E0BE
:1005BA0012048DD0E02401F9D0E03400FAD0E0FB37
:1005CA00E5170460DCD517D980877BFF7A0679E2C4
:1005DA00D20B809C791080027908C20FC211800860
:1005EA00D2D5790A8004790AC2D5E517047002F5D2
:1005FA0017E4FAFDFEFF12044AFC7B08200A1312D4
:10060A00044AFD7B1030090A12044AFE12044AFF0A
:10061A007B20EC3382D592D55013C3E43009069F70
:10062A00FFE49EFEE4200A039DFDE49CFCE4CBF873
:10063A00C20AEC700CCFCECDCCE824F8F870F38067
:10064A0017C3EF33FFEE33FEED33FDEC33FCEB3330
:10065A00FB994002FB0FD8E9EB300A05F8D0E0C459
:10066A0048B20AC0E00AEC4D4E4F78207B0070C2B7
:10067A00EAB5170040BCC0E01206E8D0F0D0E0208E
:10068A000A04C4C0E0C4B20AC0F0120476D0F0D59D
:10069A00F0EB0204C7120A3E05645305DE5805351D
:1006AA004C05314205E24F05EA4405EA49054A4349
:0806BA0005F05505D44605D4F6
:1006C2004505D44707905005392D053D2E05602B71
:1006D200054123055E2007792A04F94800000558E0
:1006E2003F3F3F00790AA2D5200C14300E09B91001
:1006F200020404B9080104A2D5200F02500104200B
:100702000B68920BB516005034C0E07F20300C19F4
:100712007F30A20B720F720E500F12073FC20BC234
:100722000FC20EC2117F30800F300E03E9C0E012FB
:10073200048D300E03D0E0F9D0E0B516CC300E17A0
:100742007F30B9100C12048D7F58300D077F7880EE
:1007520003B9080312048D300B057F2D02048D7F2F
:10076200202011F87F2B200FF322920B80CF286ECE
:10077200756C6C2900D20A12044A300AF8C20A784F
:100782001630D50108F60204F92D504349581204D7
:100792004A2403B405004001E490078B9312047EBF
:0D07A200743A12047ED20C7516040205DEB6
:100BA100020C21E493A3F8E493A34003F68001F23D
:100BB10008DFF48029E493A3F85407240CC8C33355
:100BC100C4540F4420C8834004F456800146F6DF24
:100BD100E4800B010204081020408090003DE47E77
:100BE100019360BCA3FF543F30E509541FFEE49319
:100BF100A360010ECF54C025E060A840B8E493A3E0
:100C0100FAE493A3F8E493A3C8C582C8CAC583CA0A
:100C1100F0A3C8C582C8CAC583CADFE9DEE780BEC2
:0100410000BE
:1009C600BB010689828A83E0225002E722BBFE022F
:0909D600E32289828A83E4932262
:1009DF00BB010CE58229F582E5833AF583E02250CD
:1009EF0006E92582F8E622BBFE06E92582F8E22217
:0D09FF00E58229F582E5833AF583E4932231
:100A0C00BB010689828A83F0225002F722BBFE01C9
:020A1C00F322C3
:100A1E00F8E0FBA3A3E0F925F0F0E5821582700261
:070A2E001583E0FA38F02205
:090A3500EBF0A3EAF0A3E9F022C2
:100A3E00D083D082F8E4937012740193700DA3A347
:100A4E0093F8740193F5828883E47374029368605B
:060A5E00EFA3A3A380DF5B
:100C8400EFB40A07740D120C8F740A309811A899E6
:100C9400B8130CC2983098FDA899C298B811F630D0
:070CA40099FDC299F59922A8
:00000001FF
