:100E940075A15575A1AAE5B954F84404F5B9E4F56A
:020EA400A12289
:0E0EA600EF4E600905A1EF1F70F61E80F322CB
:10002A00AD07AC06ED4C600E7FE87E03120EA6ED1E
:07003A001D70F11C80EE2295
:040F000043C61022B2
:100CC300C29FD29EC29DC2CDC2CC4387809000BB3F
:100CD30012095B00000082E47B0AFAF9F89000BB7A
:100CE300E0FCA3E0FDA3E0FEA3E0FF1208BD90003B
:100CF300BFEBF09000BBE0FCA3E0FDA3E0FEA3E0AC
:100D0300FFE47B0AFAF9F81208BD9000BB12094F01
:100D13009000BFE0C39405401F9000BBE0FCA3E03C
:100D2300FDA3E0FEA3E02401FFE43EFEE43DFDE479
:100D33003CFC9000BB12094FE589540F4420F58910
:100D430043C9A09000BBA3A3A3E0F404F58DD28E06
:040D5300D299D29CC3
:010D57002279
:080EE0003098FDC298AF992281
:080EE8008F993099FDC2992297
:0A0EC200C2C7D2C5D2C475C2F32224
:080EF00030C0FDC2C0AFC122F9
:080EF8008FC130C1FDC2C1220F
:100E6A0075A15575A1AAEF600543B101800353B17D
:070E7A00FEE4F5A1F5FF22E3
:030F04008FFF223A
:100A2A0053455420434F4E4649472E0A004C6967A6
:100A3A006874206F6E204E756D204C6F636B204C6E
:100A4A004544210A004C69676874206F6666204E27
:100A5A00756D204C6F636B204C4544210A00256359
:100A6A00007374617274202E2E2E0A0049443020BD
:100A7A003D20253032782025303278200A0049443A
:100A8A0031203D20253032782025303278200A0066
:100A9A00494432203D2025303278202530327820D2
:100AAA000A0012011001000000083D410721000060
:100ABA000000000109023B00020100A03209040003
:100ACA00000103010100092111010001223E000772
:100ADA0005810308000A0904010001030102000953
:100AEA0021100100012234000705820304000A05CF
:100AFA00010906A101050719E029E7150025017575
:100B0A000195088102950175088101950375010512
:100B1A000819012903910295057501910195067538
:100B2A000826FF000507190029918100C00501095F
:100B3A0002A1010901A100050919012903150025CE
:100B4A000175019503810275059501810105010968
:100B5A0030093109381581257F750895038106C04A
:010B6A00C0CA
:100E81004400F9000000004800E4000000000000F8
:020E910000005F
:0A0ECC0075A15575A1AA43B11022CB
:0E0EB40053D1FB7F027E0012002A43D104229C
:100DE400C2EAE4F5E275D18043D10443E24075E5FB
:100DF4000075E450E5EB54FE4404F5EB75D412752C
:100E0400ED0075EC0053EAF375DC0275EF0075EE46
:100E14000AE5EA54EF4440F5EA75D212E4F5E343F7
:0E0E2400E22943D10175D8FF75E107D2EA2219
:040E32009000E6F056
:100E3600780A7C007D017B017A0079E47E007F08D8
:0A0E460012084575D30853D2FC22B0
:100E500078507C007D017B017A0079F97E007F0467
:0A0E600012084575D50453D4FC2296
:0300430002004672
:0D004600C0E0C0F0C083C082C0D075D008FB
:10005300900092E4F020D9030203E1E5D9543F7004
:10006300030203B224E0700302034114601924F174
:100073006029240E60030203DF75D500E5D454FC28
:100083004402F5D40203DF75D300E5D254FC4402E5
:10009300F5D29000EE7401F00203DF900092E5DBED
:1000A300F0E064086003020317900006E09000EF9D
:1000B300F0900007E070099000EFE0D3947F4006D2
:1000C3009000EF747FF0900092E4F0900001E090D4
:1000D30000F0F0900000E05460601A9000F0E0142B
:1000E30024FD400302031D24FB24FD400302031DE2
:1000F30080000203179000F0E0B40B0040030203FA
:100103001590010BF82828730202F802024102033A
:10011300150202820203150201FE02012C020315DD
:1001230002020902022202031D900003E024FE6082
:100133001E24E06030242170659000FD74FFF0A35D
:10014300740AF0A374ACF09000927412F08055908E
:1001530000FD74FFF0A3740AF0A374BEF090009244
:10016300743BF0803F900004E0FF70169000FD7434
:10017300FFF0A3740AF0A374F9F0900092743EF0B8
:100183008022EFB401169000FD74FFF0A3740BF00E
:10019300A37437F09000927434F0800880009000CC
:1001A3009274FFF0900092E0FF9000EFE0D39F4045
:1001B30002EFF09000EFE0FFC3940840047F088053
:1001C30000900092EFF07E0078007C007D019000AB
:1001D300FDE0FBA3E0FAA3E0F91208459000EFE08D
:1001E300FF900092E0FEC3EF9E9000EFF0EEFF90D1
:1001F30000FEE48FF012086B02031D900002E090F2
:1002030000EFF002031D9000ECE0900000F090007E
:10021300EFE0C39401500302031D900092801990F4
:100223000002E09000ECF0700302031D7BFF7A0AEA
:10023300792A12047B9001007401F002031D9000DF
:1002430000E0541FFF6402702D900004E014601B53
:100253002480600D147019E5D454BC4402F5D48095
:1002630015E5D254BC4402F5D2800B53D2738006F9
:1002730090009274FFF0EF700302031D02031790C6
:100283000000E0541FFD701B900003E0FE9000028D
:10029300E0FBEB64014E7009900AC59320E57B8077
:1002A300738071ED6402704B900003E0FE900002D6
:1002B300E0FDED4E703B900005E0FE900004E0FD94
:1002C300EDFFEE702AEF24FE601124816017147095
:1002D3001EE5D454BF4403F5D4803FE5D4547F4492
:1002E3000CF5D48035E5D254BF4403F5D2802B807E
:1002F300238021801F900000E4F0A3F09000EFE042
:10030300FFC3940290009240057402F0800CEFF05A
:100313008008800090009274FFF0900092E0FFB498
:10032300FF0C9000F074FFF075DCCF0203DFEF6089
:1003330004F5DD800375DD0075DCC00203DF90008A
:10034300F0E024FB605314705E9000EFE0FFC39471
:100353000840047F088000900092EFF07E00780050
:100363007C007D019000FDE0FBA3E0FAA3E0F9121D
:1003730008459000EFE0FF900092E0FEC3EF9E90EF
:1003830000EFF0EEFF9000FEE48FF012086B900098
:1003930092E0F5DD63DC408043E5E35480FF9000A9
:1003A300EFE04FF5E3800375DD0075DC02802D90EF
:1003B3000092E5DBF09000F0E0B4091D900000E04E
:1003C30060087BFF7A0A7937800C900000E070099F
:1003D3007BFF7A0A794F12047B63DC80C2D930D861
:1003E3001275DC0275D21075D41275E300C2DAC23D
:1003F300D9C2D830DA09C2DAE5DA30E2058003750A
:02040300D8FF20
:0B040500D0D0D082D083D0F0D0E03205
:100C2700120ED69000BBEFF07BFF7A0A796890002E
:100C3700BFF012047B9000BBE024BF602424F16066
:100C47003714604B14600B240670609000F9740130
:100C570080059000F97402F0120E50E49000F9F04C
:100C670022E49000EEF0741D120E32E49000E6F0DC
:100C77009000EEE060FA8030E49000EEF0743812F5
:100C87000E32E49000E6F09000EEE060FA8019E49E
:100C97009000EEF09000E67439F0120E36E4900002
:100CA700E6F09000EEE060FA020E36E5D254FC441E
:0B0CB70002F5D2E5D454FC4402F5D451
:010CC200220F
:100B6B00120E947F057E0012002A120CC37BFF7AB3
:100B7B000A796B12047B7BFF7A0A7976903FFAE451
:100B8B0093FF9000BFE4F0A3EFF0903FFBE493FFE3
:100B9B009000C1E4F0A3EFF012047B7BFF7A0A799B
:100BAB0088903FFCE493FF9000BFE4F0A3EFF0903C
:100BBB003FFDE493FF9000C1E4F0A3EFF012047B40
:100BCB007BFF7A0A799A903FFEE493FF9000BFE493
:100BDB00F0A3EFF0903FFFE493FF9000C1E4F0A38C
:100BEB00EFF012047B120DE4D2AFE4F5D3F5D59000
:100BFB0000EEF0900100F0900100E06003120C2772
:100C0B00900100E0600D20950A120E367F0A7E00DF
:0C0C1B0012002A7F647E0012002A80DB99
:03000000020D5896
:0C0D5800787FE4F6D8FD758122020D9F23
:10077500E709F608DFFA8046E709F208DFFA803E66
:1007850088828C83E709F0A3DFFA8032E309F60853
:10079500DFFA8078E309F208DFFA807088828C83BB
:1007A500E309F0A3DFFA806489828A83E0A3F6086F
:1007B500DFFA805889828A83E0A3F208DFFA804C49
:1007C50080D280FA80C680D4806980F28033801020
:1007D50080A680EA809A80A880DA80E280CA803389
:1007E50089828A83ECFAE493A3C8C582C8CCC58301
:1007F500CCF0A3C8C582C8CCC583CCDFE9DEE780D1
:100805000D89828A83E493A3F608DFF9ECFAA9F04F
:10081500EDFB2289828A83ECFAE0A3C8C582C8CCA5
:10082500C583CCF0A3C8C582C8CCC583CCDFEADEBE
:10083500E880DB89828A83E493A3F208DFF980CC20
:1008450088F0EF60010E4E60C388F0ED2402B40419
:100855000050B9F582EB2402B4040050AF232345C0
:0608650082239007C57319
:10086B00C5F0F8A3E028F0C5F0F8E5821582700218
:06087B001583E038F022B5
:1008810075F008758200EF2FFFEE33FECD33CDCC2E
:1008910033CCC58233C5829BED9AEC99E5829840B1
:1008A1000CF582EE9BFEED9AFDEC99FC0FD5F0D68E
:1008B100E4CEFBE4CDFAE4CCF9A88222B800C1B9B8
:1008C1000059BA002DEC8BF084CFCECDFCE5F0CBF6
:1008D100F97818EF2FFFEE33FEED33FDEC33FCEB2F
:1008E10033FB10D703994004EB99FB0FD8E5E4F9EA
:1008F100FA227818EF2FFFEE33FEED33FDEC33FCD7
:10090100C933C910D7059BE99A4007EC9BFCE99ACA
:10091100F90FD8E0E4C9FAE4CCFB2275F010EF2F0F
:10092100FFEE33FEED33FDCC33CCC833C810D7070F
:100931009BEC9AE899400AED9BFDEC9AFCE899F84A
:0E0941000FD5F0DAE4CDFBE4CCFAE4C8F922DD
:0C094F00ECF0A3EDF0A3EEF0A3EFF0221B
:10095B00A8828583F0D083D0821209721209721299
:10096B000972120972E473E493A3C583C5F0C583BE
:10097B00C8C582C8F0A3C583C5F0C583C8C582C8E6
:01098B002249
:10041000E51524BFF582E43400F583E0051522904C
:1004200000BC3010039000BFE475F0011209E40233
:10043000098C2009E97F2ED2098018EF540F2490EF
:10044000D43440D4FF300D0BEF24BFB41A00500356
:100450002461FFE516600215160519E519700205FD
:100460001830100E9000BCE475F0011209E4EF02A0
:1004700009D20200037403D2108003E4C210F51500
:100480009000BC1209FBE4F516F518F519E51660A5
:10049000077F2012045380F57517FFC20AC209C2F4
:1004A0000BC20CC20EC20FC21112041FFF700D301E
:1004B00010057F00120464AF19AE1822B4255FC284
:1004C000D5C20D12041FFF24D0B40A00501A75F0D3
:1004D0000A781630D50508B6FF0106C6A426F62010
:1004E000D5047002D20C80D924CFB41A00EF500486
:1004F000C2E5D20D020665D20A80C6D20980C0D2FA
:100500000B80BCD2D580BAD20E80B47F20120453A7
:10051000200B077401B5160040F1120410FF1204FD
:100520005302048DD211D20F8095120410FB1204D5
:1005300010FA120410F94A4B700679367A077BFFDD
:10054000200B2EE516602A7E008E8275830012092C
:10055000A560060EEE651770F0C2D5EBC0E0EAC0EC
:10056000E0E9C0E0EE1206ACD0E0F9D0E0FAD0E06D
:10057000FB12098CFF60AAEBC0E0EAC0E0E9C0E032
:10058000120453D0E02401F9D0E03400FAD0E0FBAB
:10059000E5170460DCD517D980877BFF7A0679A838
:1005A000D20B809C791080027908C20FC21180089A
:1005B000D2D5790A8004790AC2D5E517047002F50C
:1005C00017E4FAFDFEFF120410FC7B08200A131248
:1005D0000410FD7B1030090A120410FE120410FFF3
:1005E0007B20EC3382D592D55013C3E43009069FAB
:1005F000FFE49EFEE4200A039DFDE49CFCE4CBF8AE
:10060000C20AEC700CCFCECDCCE824F8F870F380A1
:1006100017C3EF33FFEE33FEED33FDEC33FCEB336A
:10062000FB994002FB0FD8E9EB300A05F8D0E0C493
:1006300048B20AC0E00AEC4D4E4F78207B0070C2F1
:10064000EAB5170040BCC0E01206AED0F0D0E02002
:100650000A04C4C0E0C4B20AC0F012043CD0F0D511
:10066000F0EB02048D120A04052A5305A45804FB7A
:100670004C04F74205A84F05B04405B049051043A6
:0806800005B655059A46059ADE
:1006880045059A4707565004FF2D05032E05262BCE
:10069800050723052420073F2A04BF480000051E3C
:1006A8003F3F3F00790AA2D5200C14300E09B9103B
:1006B800020404B9080104A2D5200F025001042045
:1006C8000B68920BB516005034C0E07F20300C192F
:1006D8007F30A20B720F720E500F120705C20BC2A9
:1006E8000FC20EC2117F30800F300E03E9C0E01236
:1006F8000453300E03D0E0F9D0E0B516CC300E1715
:100708007F30B9100C1204537F58300D077F788062
:1007180003B90803120453300B057F2D0204537FDD
:10072800202011F87F2B200FF322920B80CF286E08
:10073800756C6C2900D20A120410300AF8C20A78C3
:100748001630D50108F60204BF2D5043495812044B
:10075800102403B405004001E490075193120444A7
:0D076800743A120444D20C7516040205A464
:0A0ED6003098FDAF99C2987E00220B
:100D6400020B6BE493A3F8E493A34003F68001F22F
:100D740008DFF48029E493A3F85407240CC8C33390
:100D8400C4540F4420C8834004F456800146F6DF5F
:100D9400E4800B0102040810204080900E81E47E60
:100DA400019360BCA3FF543F30E509541FFEE49354
:100DB400A360010ECF54C025E060A840B8E493A31B
:100DC400FAE493A3F8E493A3C8C582C8CAC583CA46
:100DD400F0A3C8C582C8CAC583CADFE9DEE780BEFE
:010E9300005E
:10098C00BB010689828A83E0225002E722BBFE0269
:09099C00E32289828A83E493229C
:1009A500BB010CE58229F582E5833AF583E0225007
:1009B50006E92582F8E622BBFE06E92582F8E22251
:0D09C500E58229F582E5833AF583E493226B
:1009D200BB010689828A83F0225002F722BBFE0104
:0209E200F322FE
:1009E400F8E0FBA3A3E0F925F0F0E582158270029C
:0709F4001583E0FA38F02240
:0909FB00EBF0A3EAF0A3E9F022FD
:100A0400D083D082F8E4937012740193700DA3A381
:100A140093F8740193F5828883E473740293686095
:060A2400EFA3A3A380DF95
:10000300EFB40A07740D12000E740A309811A89900
:10001300B8130CC2983098FDA899C298B811F6305D
:0700230099FDC299F5992235
:00000001FF
