:10082D0075A15575A1AAE5B954F84404F5B9E4F5D7
:02083D00A122F6
:0E083F00EF4E600905A1EF1F70F61E80F32238
:10002A00AD07AC06ED4C600E7FE87E0312083FED8B
:07003A001D70F11C80EE2295
:0408880043C6102231
:10060000C29FD29EC29DC2CDC2CC438780900000C3
:1006100012048D00000082E47B0AFAF9F8900000D1
:10062000E0FCA3E0FDA3E0FEA3E0FF1203EF9000D7
:1006300004EBF0900000E0FCA3E0FDA3E0FEA3E0EB
:10064000FFE47B0AFAF9F81203EF9000001204812C
:10065000900004E0C39405401F900000E0FCA3E07C
:10066000FDA3E0FEA3E02401FFE43EFEE43DFDE443
:100670003CFC900000120481E589540F4420F58968
:1006800043C9A0900000A3A3A3E0F404F58DD28E8B
:04069000D299D29C8D
:010694002243
:080857003098FDC298AF992210
:08085F008F993099FDC2992226
:0A004100C2C7D2C5D2C475C2F322B3
:0808670030C0FDC2C0AFC12288
:08086F008FC130C1FDC2C1229E
:1008160075A15575A1AAEF600543B101800353B1D7
:07082600FEE4F5A1F5FF223D
:030894008FFF22B1
:040883004100280008
:04088C00439A042265
:04089000539AFB225A
:1007A500E4F580EFB505037F0022ED6003B4020395
:1007B5007F0022ED24FD60092402700A5380F78032
:1007C5000843800880037F0022EF14600C14600E3C
:1007D500146010240370118012438001800D438042
:0E07E50002800843800380037F00227F0122F0
:06087700539AF7C2EB22C8
:0A084D00439A08D284C286D2EB223F
:06087D00A287E433FF2214
:03004B000207F3B6
:1007F300C0E0C083C082C0D030860FA290B3929075
:10080300C2869000287401F0D284D0D0D082D083E5
:03081300D0E03200
:10055C0044454255475F444154453A4E6F762032EC
:10056C003220323031370A44454255475F54494DA9
:10057C00453A31303A31393A32380A0041737365B1
:10058C007274206661696C65643A20434D505F4912
:10059C006E697428494E302C20494E3129203D3D3E
:1005AC002054525545202866696C65202573206CB3
:1005BC00696E65202564290A00436F6D7061726550
:1005CC005C4D61696E2E43004144435F4354524C71
:1005DC003A25303278094144435F4346473A253047
:1005EC0032780A00434D505F4F5554203D20253042
:0405FC0032780A0047
:1007210012082D7F037E0012002A1206007BFF7A39
:1007310005795C1200B97D01E4FF1207A5EF6401A0
:10074100602090000374FFF0A37405F0A374C5F05A
:10075100A3E4F0A37423F07BFF7A0579881200B932
:1007610080FE12088C12084D7BFF7A0579D4AF8088
:10077100900003E4F0A3EFF0AF9AA3E4F0A3EFF04D
:100781001200B9D2AF900028E0B401F9E4F01208E8
:100791007D900003E4F0A3EFF07BFF7A0579F0127E
:0407A10000B980E13A
:0300000002069560
:0C069500787FE4F6D8FD7581210206DCB8
:1003B30075F008758200EF2FFFEE33FECD33CDCC01
:1003C30033CCC58233C5829BED9AEC99E582984084
:1003D3000CF582EE9BFEED9AFDEC99FC0FD5F0D661
:1003E300E4CEFBE4CDFAE4CCF9A88222B800C1B98B
:1003F3000059BA002DEC8BF084CFCECDFCE5F0CBC9
:10040300F97818EF2FFFEE33FEED33FDEC33FCEB01
:1004130033FB10D703994004EB99FB0FD8E5E4F9BC
:10042300FA227818EF2FFFEE33FEED33FDEC33FCA9
:10043300C933C910D7059BE99A4007EC9BFCE99A9D
:10044300F90FD8E0E4C9FAE4CCFB2275F010EF2FE2
:10045300FFEE33FEED33FDCC33CCC833C810D707E2
:100463009BEC9AE899400AED9BFDEC9AFCE899F81D
:0E0473000FD5F0DAE4CDFBE4CCFAE4C8F922B0
:0C048100ECF0A3EDF0A3EEF0A3EFF022EE
:10048D00A8828583F0D083D0821204A41204A41212
:10049D0004A41204A4E473E493A3C583C5F0C58337
:1004AD00C8C582C8F0A3C583C5F0C583C8C582C8B9
:0104BD00221C
:10004E00E5082403F582E43400F583E005082290E8
:10005E000000300703900003E475F001120516024C
:10006E0004BE2000E97F2ED2008018EF540F24909A
:10007E00D43440D4FF30040BEF24BFB41A00500325
:10008E002461FFE50960021509050CE50C700205F7
:10009E000B30070E900000E475F001120516EF020A
:1000AE0005040200037403D2078003E4C207F508B7
:1000BE0090000012052DE4F509F50BF50CE509602D
:1000CE00077F2012009180F5750AFFC201C200C29F
:1000DE0002C203C205C206C20812005DFF700D30D7
:1000EE0007057F001200A2AF0CAE0B22B4255FC233
:1000FE00D5C20412005DFF24D0B40A00501A75F068
:10010E000A780930D50508B6FF0106C6A426F620E2
:10011E00D5047002D20380D924CFB41A00EF500454
:10012E00C2E5D2040202A3D20180C6D20080C0D2A0
:10013E000280BCD2D580BAD20580B47F2012009145
:10014E002002077401B5090040F112004EFF1200A3
:10015E00910200CBD208D206809512004EFB1200FF
:10016E004EFA12004EF94A4B700679747A037BFFF1
:10017E0020022EE509602A7E008E8275830012040D
:10018E00D760060EEE650A70F0C2D5EBC0E0EAC08D
:10019E00E0E9C0E0EE1202EAD0E0F9D0E0FAD0E0F9
:1001AE00FB1204BEFF60AAEBC0E0EAC0E0E9C0E0CB
:1001BE00120091D0E02401F9D0E03400FAD0E0FB37
:1001CE00E50A0460DCD50AD980877BFF7A0279E6DE
:1001DE00D202809C791080027908C206C20880087B
:1001EE00D2D5790A8004790AC2D5E50A047002F5DF
:1001FE000AE4FAFDFEFF12004EFC7B0820011312EA
:10020E00004EFD7B1030000A12004EFE12004EFF13
:10021E007B20EC3382D592D55013C3E43000069F79
:10022E00FFE49EFEE42001039DFDE49CFCE4CBF87C
:10023E00C201EC700CCFCECDCCE824F8F870F38070
:10024E0017C3EF33FFEE33FEED33FDEC33FCEB3330
:10025E00FB994002FB0FD8E9EB300105F8D0E0C462
:10026E0048B201C0E00AEC4D4E4F78207B0070C2C0
:10027E00EAB50A0040BCC0E01202ECD0F0D0E0209B
:10028E000104C4C0E0C4B201C0F012007AD0F0D5AF
:10029E00F0EB0200CB12053601685301E25801392A
:1002AE004C01354201E64F01EE4401EE49014E4349
:0802BE0001F45501D84601D8F6
:1002C6004501D847039450013D2D01412E01642B71
:1002D600014523016220037D2A00FD480000015CE0
:1002E6003F3F3F00790AA2D5200314300509B91013
:1002F600020404B9080104A2D52006025001042014
:1003060002689202B509005034C0E07F203003191C
:100316007F30A20272067205500F120343C202C258
:1003260006C205C2087F30800F300503E9C0E0121F
:100336000091300503D0E0F9D0E0B509CC300517BF
:100346007F30B9100C1200917F583004077F7880F7
:1003560003B908031200913002057F2D0200917F38
:10036600202008F87F2B2006F322920280CF286EE9
:10037600756C6C2900D20112004E3001F8C201786A
:100386000930D50108F60200FD2D504349581200E8
:100396004E2403B405004001E490038F93120082BB
:0D03A600743A120082D2037509040201E2CC
:1006A100020721E493A3F8E493A34003F68001F247
:1006B10008DFF48029E493A3F85407240CC8C3335A
:1006C100C4540F4420C8834004F456800146F6DF29
:1006D100E4800B0102040810204080900883E47E2E
:1006E100019360BCA3FF543F30E509541FFEE4931E
:1006F100A360010ECF54C025E060A840B8E493A3E5
:10070100FAE493A3F8E493A3C8C582C8CAC583CA0F
:10071100F0A3C8C582C8CAC583CADFE9DEE780BEC7
:010887000070
:1004BE00BB010689828A83E0225002E722BBFE023C
:0904CE00E32289828A83E493226F
:1004D700BB010CE58229F582E5833AF583E02250DA
:1004E70006E92582F8E622BBFE06E92582F8E22224
:0D04F700E58229F582E5833AF583E493223E
:10050400BB010689828A83F0225002F722BBFE01D6
:02051400F322D0
:10051600F8E0FBA3A3E0F925F0F0E582158270026E
:070526001583E0FA38F02212
:09052D00EBF0A3EAF0A3E9F022CF
:10053600D083D082F8E4937012740193700DA3A354
:1005460093F8740193F5828883E473740293686068
:06055600EFA3A3A380DF68
:10000300EFB40A07740D12000E740A309811A89900
:10001300B8130CC2983098FDA899C298B811F6305D
:0700230099FDC299F5992235
:00000001FF
