:1036940075A15575A1AAE5B954F84404F5B9E4F542
:0236A400A12261
:0E1FF100EF4E600905A1EF1F70F61E80F3226F
:10361F00CDEFCDCCEECCED4C600E7FE87E03121FCC
:09362F00F1ED1D70F11C80EE228A
:040FFC0043C61022B6
:102B7C00C29FD29EC29DC2CDC2CC4387809002E937
:102B8C0012065100000082E47B0AFAF9F89002E97F
:102B9C00E0FCA3E0FDA3E0FEA3E0FF1204E390023F
:102BAC00EDEBF09002E9E0FCA3E0FDA3E0FEA3E076
:102BBC00FFE47B0AFAF9F81204E39002E912062CFE
:102BCC009002EDE0C39405401F9002E9E0FCA3E005
:102BDC00FDA3E0FEA3E02401FFE43EFEE43DFDE4A2
:102BEC003CFC9002E912062CE589540F4420F5892F
:102BFC0043C9A09002E9A3A3A3E0F404F58DD28EFF
:042C0C00D299D29CEB
:012C100022A1
:08370F003098FDC298AF992229
:083717008F993099FDC299223F
:1036380075A15575A1AAEF600543B101800353B187
:07364800FEE4F5A1F5FF22ED
:033726008FFF22F0
:102CA4005553422064657620696E0A0055534220CC
:102CB400646576206F75740A0052657365742068C4
:102CC4006F737420706F72740A0044697361626C6C
:102CD4006520686F737420706F727420626563611D
:102CE400757365206F6620646973636F6E6E6563C8
:102CF400740A0047657444657644657363723A20C8
:102D040000782530325820000A004765744366670E
:102D140044657363723A2000496E6974526F6F742C
:102D240044657620457272203D20253032580A00D1
:0107FF0022D7
:10320900E4900301F0E5DA30E022E50A64016005A3
:10321900E5D120E0331207FF750A027BFF7A2C798A
:10322900A4120C619003017415F0801CE50AC39483
:103239000240151207FF7BFF7A2C79B0120C6190BE
:0D3249000301E070037416F0900301E0FF34
:013256002255
:0C2FF400EF547FFFE5E354804FF5E3222B
:0E36D700EF600753E2BF53D27F2243E240224E
:1034A1009003F27408F0E4FF122FF453D1FE7F0170
:1034B1001236D7E5D154FB4402F5D17F147E0012B8
:0F34C100361F53D1FD7FFA7E00121FF1C2D822B1
:1035AB00E50AC394025003750A02E5DA30E00C43D6
:0E35BB00E20175D24043D1017F00227F16222B
:103605007F907E0120D909EF1F70011EEF4E70F4E7
:0936150030D9047F0080027FFE21
:01361E002289
:0B27A3009002FEEFF0A3EAF0A3EBF0C1
:1027AE00CFEDCF8FD68FD4E4F5DD9002FEE0F5D5D8
:1027BE00C2D97F907E0120D909EF1F70011EEF4E06
:1027CE0070F4E4F5D520D9037FFE2230D822C2D88A
:1027DE00123209EFB41502D210E50AB401037F16C6
:1027EE0022E50AB402037F15227FC87E00121FF174
:1027FE0030D96730DE037F0022E5D9540FFFB40EC7
:10280E00028043EFB40A299002FFE0FCA3E0FD4CE6
:10281E007003EF803EC3ED94FFEC94FF500E9003D7
:10282E0000E024FFF09002FFE034FFF015DD802D74
:10283E009002FEE0C4540F24F7600D24FC600424C3
:10284E000C7014EF6017800BEFB40304640B600D73
:10285E00EF600A4420FF227FFE2275D8FF7F0F7E95
:10286E0000121FF105DDAFDDEFC394035003022705
:03287E00B87F2000
:012881002234
:091615007B007A007900E4FFFE7D
:0B161E009002F1EBF0A3EAF0A3E9F06A
:10162900E4A3F0A3F0CAEECAC9EFC97B019002F89E
:1016390004F0A3EAF0A3E9F09002F1E0F9A3E0FADB
:10164900A3E09002FBC9F0A3EAF0A3E9F07FC87E0A
:1016590000121FF19002FBE0FBA3E0FAA3E0F9EA14
:10166900494B6004E412046475D7087B107A27E4B7
:10167900FD7FD01227A39002F6EFF06003E0FF226E
:1016890075D6D075D4D075D701900047E0FE90008B
:1016990046E0FDEDFF9002F4EEF0A3EFF04E70038B
:1016A90002181E9002F8E0FBA3E0FAA3E0F9EA4968
:1016B9004B700302181E900040E020E70302177ADE
:1016C9009002F4E07002A3E070030217747FC87EF1
:1016D90000121FF17B107A27ADD47F901227A390B7
:1016E90002F6EFF0E0FF600122AFDB9002F4E0FCCC
:1016F900A3E0FDD39FEC94004004AFDB8003CFED62
:10170900CF9002F7EFF0E0FFC39002F5E09FF09071
:1017190002F4E09400F09002FBE0FBA3E0FAA3E0FE
:10172900F9EA494B6004EF120442E4FF9002F7E042
:101739006F602874002FF582E43400F583E0FE9091
:1017490002F8E0FBA3E0FAA3E0F9EE1204649002C8
:10175900F9E475F0011204760F80D1E5DB600C9095
:1017690003F2E01455DB70030216C9E4F5D7021839
:101779001E9002F4E07002A3E0700302181E7FC8F5
:101789007E00121FF19003F2E0FFFD9002F4E0FAEF
:10179900A3E0FBC39DEA940040028003CFEBCF8F07
:1017A900D7E4FFEF65D760289002F8E0FBA3E0FAE1
:1017B900A3E0F9120429FE74402FF582E43400F500
:1017C90083EEF09002F9E475F0011204760F80D3EC
:1017D9007B107A27ADD67F101227A39002F6EFF07F
:1017E900E0FF600122AFD7C39002F5E09FF09002BD
:1017F900F4E09400F09002FBE0FBA3E0FAA3E0F927
:10180900EA494B700302177A9002FBA3A3E5D712AA
:10181900044202177A7FC87E00121FF1E5D76004DF
:101829007F9080027F107B107A277DC01227A390BA
:1018390002F6EFF06003E0FF22E5D77002FF22E530
:07184900DB7002FF227F1794
:011850002275
:10316B00300F298F828E83E493900040F07D018F86
:10317B00828E83E493FC74402DF582E43400F58356
:10318B00ECF00FBF00010E0DEDB409E3200F1FE4AF
:10319B00FD8F828E83E493FC74402DF582E4340022
:0E31AB00F583ECF00FBF00010E0DEDB408E34C
:0131B90022F3
:103436009003F27408F07E297FF612316B7E037FCB
:103446002A7B017A0279ED12161EEF6001229003A3
:1034560031E09003F2F09029FCE493FF9002EDE056
:09346600C39F50037F17227F0071
:01346F00223A
:102DC3007E297FFE12316B7E037F2A7B017A027993
:102DD300ED12161ECBEFCBEB60012290032CE0909B
:102DE30002EDF07E297FFE12316B300F089002ED69
:102DF300E0900047F0200F089002EDE0900046F0CD
:102E03007E037F2A7B017A0279ED12161ECBEFCB6C
:102E1300EB6001229002EDE0D3944040037440F054
:102E2300E4FB9002EDE06B601B742A2BF582E43423
:102E330003F583E0FF74402BF582E43400F583EF60
:062E4300F00B80DE7F00B1
:012E49002266
:0533FB009002EDEFF06F
:103400007E2A7F0612316B300F089002EDE09000AB
:1034100043F0200F089002EDE0900042F0121615E4
:10342000EF6001229002EDE0FF122FF47F0A7E0090
:0534300012361F7F00B1
:013435002274
:1035C900CBEFCB7E2A7F0E12316B300F0590004373
:0E35D900EBF0200F05900042EBF012161522C9
:1035E700CBEFCB7E2A7F1612316B300F059000454B
:0E35F700EBF0200F05900044EBF012161522A9
:1023E1007BFF7A2C79BD120C611234A1E49002E9D1
:1023F100F0A3F07F017E0012361F1235ABEF700E95
:102401009002E9F0A3E004F0E0D39464500C900250
:10241100E9E004F0E0C3946440D99002E9E0600F80
:102421001207FF7BFF7A2C79CE120C617F16227F77
:10243100011236D71234369002EAEFF0600302251A
:10244100197BFF7A2C79F7120C61E49002E9F09084
:1024510029FCE493FF9002E9E0FEC39F50257BFF36
:102461007A2D7905742A2EF582E43403F583E0FF91
:10247100900305E4F0A3EFF0120C619002E9E0048F
:10248100F080CC7BFF7A2D790C120C6190032EE049
:102491009002ECF0902A08E493FF1233FB9002EAD9
:1024A100EFF07074122DC39002EAEFF0706A90039E
:1024B1002FE09002EBF07BFF7A2D790E120C61E494
:1024C1009002E9F090032CE0FF9002E9E0FEC39F47
:1024D10050257BFF7A2D7905742A2EF582E4340389
:1024E100F583E0FF900305E4F0A3EFF0120C619097
:1024F10002E9E004F080CD7BFF7A2D790C120C61AA
:10250100900338E0FF9002ECE0700AEFB408067522
:102511000A047F00227FFB227BFF7A2D791C900227
:10252100EAE0FF900305E4F0A3EFF0120C61750AF5
:0B253100027F011236D79002EAE0FFA3
:01253C00227C
:10347000C2EA75E28053D17FE4F5E375EB4875E568
:103480000075E40075E70075E640F5D4F5D675E201
:103490008875D8FFFF1207FF0FEFB402F875E1033C
:0134A0002209
:102952004572726F723A20253032580A00737461E0
:1029620072740A0057616974204469736B5265611D
:1029720064790A00253032780A0043726561746511
:102982000A002F4E455746494C452E545854004292
:1029920079746557726974650A004E6F74653A20DE
:1029A2000D0AD5E2B8F6B3CCD0F2CAC7D2D4D7D684
:1029B200BDDACEAAB5A5CEBBBDF8D0D055C5CCCE1A
:1029C200C4BCFEB6C1D0B42C353539BCF2B5A5D1E4
:1029D200DDCABEB9A6C4DCA1A30D0A00B3C9B9A65B
:1029E200D0B4C8EB2025303258B4CE0A00436C6F05
:1029F20073650A00800600010000120080060002D2
:102A020000000400000502000000000000090000B0
:0C2A1200000000000201000000000000B5
:0B2AE0009002EDEFF0A3ECF0A3EDF08E
:102AEB00E4A3F0900048E4F09002EDE0FF25E090C5
:102AFB000049F0A3E4F0A3F0A37480F09003C7E0C7
:102B0B0090004DF0A3740AF0A37428F0A3E4F090A6
:102B1B0003A9E0900051F09003AAE0900052F090CE
:102B2B0003ABE0900053F09003ACE0900054F0A3A3
:102B3B00E4F0A3F0A3EFF0A3E4F09002EEE0FEA329
:102B4B00E0FF121858E50D7002FF229002F0E0FF33
:102B5B001231BA8F0DE50D6003AF0D229002F0E03C
:102B6B0004F0E0C394035003022AEE750D1F7F1F80
:012B7B002237
:0B0F5B009002EDEFF0A3ECF0A3EDF02E
:100F6600E4A3F0900048E4F09002EDE0FF25E09065
:100F76000049F0A3E4F0A3F0A3F09003C7E09000CB
:100F86004DF0A3740AF0A3742AF0A3E4F09003A929
:100F9600E0900051F09003AAE0900052F09003AB6D
:100FA600E0900053F09003ACE0900054F0A3E4F01E
:100FB600A3F0A3EFF0A3E4F09002EEE0FEA3E0FFBF
:100FC600121858E50D70097FC8FE121FF17F002226
:100FD6009002F0E0FF1231BA8F0DE50D6003AF0D00
:100FE600229002F0E004F0E0C394035003020F697C
:050FF600750D1F7F1FB7
:010FFB0022D3
:1007DE0053E37FE5E3B40213E5D130E0037F00225B
:1007EE00E5DA30E006750A027F0022750A017F16EF
:0107FE0022D8
:011FFF0022BF
:1034D000123729EFC3941150037FFF227E007F80B3
:1034E0008E0B8F0C9003A7EEF0A3EFF0E4F50A909B
:0C34F00003D4120651000000007F0022EF
:10364F00EF60137BFF7A297952900305E4F0A3EF23
:07365F00F0120C6180FE2255
:10253D001236947F057E0012361F122B7C7BFF7A9C
:10254D0029795F120C611234701234D0C210E490EC
:10255D000280F030D80FC2D8123209900280EFF00D
:10256D00BF1502D21020100B900280E0641560039D
:10257D00022687C2107FC87E0012361F1223E190FB
:10258D000280EFF06003022687750A04900282F044
:10259D007BFF7A297966120C611230C0900280EFB0
:1025AD00F0700280277BFF7A297976900280E0FF18
:1025BD00900305E4F0A3EFF0120C617F327E001260
:1025CD00361F900282E004F0E0B40AC4E50AC39419
:1025DD000550030226877BFF7A29797C120C6178DE
:1025ED00237C007D007BFF7A297984120757121A0C
:1025FD0085900280EFF012364F7BFF7A2979911288
:10260D000C617BFF7A29799C9003051206827B0170
:10261D007A027985120C5B900282EFF0E4900281D0
:10262D00F0900282E0FF7823E4F608EFF6087402DA
:10263D00F6087485F612135E900280EFF012364F95
:10264D007BFF7A2979DE900281E0FF900305E4F0AB
:10265D00A3EFF0120C61900281E004F0E0C3940A44
:10266D0040BF7BFF7A2979EF120C61782376011236
:10267D003000900282EFF012364F7F647E001236EA
:04268D001F02255BA8
:1036B70021FF000000000000A1FE00000000010043
:062D34009003A912062C19
:102D3A009003C6E0FF9003ACE06F70249003C3E0F9
:102D4A00FF9003A9E06F70189003C4E0FF9003AAF4
:102D5A00E06F700C9003C5E0FF9003ABE06F605624
:102D6A009003A9E0FCA3E0FDA3E0FEA3E0FF90032B
:102D7A00C312062C9003A7E0FEA3E0FBCAEECA65C5
:102D8A000C7003EA650B7012A3E0FCA3E0FDA3E05C
:102D9A00FEA3E0FF9003C812062CCEEACECFEBCFFB
:102DAA00CDEFCDCCEECC7F01122AE08F0DEF600380
:092DBA0012367DAF0D227F0022CC
:0C2C11009003DB1205C69003A912062CEC
:102C1D009003CBE0FF9003ACE06F70249003C8E00D
:102C2D00FF9003A9E06F70189003C9E0FF9003AA0D
:102C3D00E06F700C9003CAE0FF9003ABE06F60543F
:102C4D009003A9E0FCA3E0FDA3E0FEA3E0FF900349
:102C5D00C812062CAB0CAA0B9003A7E06A7003A355
:102C6D00E06B70149003A9E0FCA3E0FDA3E0FEA3CC
:102C7D00E0FF9003C312062CCEEACECFEBCFCDEF03
:102C8D00CDCCEECC7F01122AE08F0DEF6003123612
:072C9D007DAF0D227F002234
:1032F2009003A91205C69003C312062C9003A7E0FF
:10330200FEA3E0FBCAEECA650C7003EA650B700A05
:10331200A31205C69003C812062CCEEACECFEBCF7D
:10332200CDEFCDCCEECC7F01120F5B8F0DEF6003A2
:0633320012367DAF0D22F2
:102E4A008F118E108D0F8C0EE509241AF582E43548
:102E5A0008F583E50EF0A3E50FF0E5092414F582E1
:0C2E6A00E43508F583E510F0A3E511F055
:102E76009003A91205C69003C812062CAB0CAA0B28
:102E86009003A7E06A7003A3E06B700C9003A9128D
:102E960005C69003C312062CCEEACECFEBCFCDEFFC
:102EA600CDCCEECC7F01120F5B8F0DEF6003123697
:042EB6007DAF0D22BD
:0E1000009003AD1205C69003A312062CE4FF68
:10100E008FD39003D8E0FBB402129003A3E0FCA3AD
:10101E00E0FDA3E0FEA3E0FF78018014EBB403151E
:10102E009003A3E0FCA3E0FDA3E0FEA3E0FF7802A3
:10103E001205A7803EC2009003A6E030E002D20067
:10104E009003A3E0F8A3E0F9A3E0FAA3E0FBE8C065
:10105E00E09003A3E0FCA3E0FDA3E0FEA3E0FF7895
:10106E0001120594D0E0F8EB2FFFEA3EFEE93DFDBC
:10107E00E83CFC9003A312062C9003A5E0FEA3E02F
:10108E00FFEE5401FE9003A8E02FF5099003A7E0B0
:10109E003EF5089003A3E0FCA3E0FDA3E0FEA3E071
:1010AE001236FB9003DFE0F8A3E0F9A3E0FAA3E029
:1010BE002FFFEA3EFEE93DFDE83CFC9003A312063D
:1010CE002C9003C6E0FF9003A6E06F70249003C33C
:1010DE00E0FF9003A3E06F70189003C4E0FF90034D
:1010EE00A4E06F700C9003C5E0FF9003A5E06F6065
:1010FE001F300D07122F8DEF6001229003A3E0FC2D
:10110E00A3E0FDA3E0FEA3E0FF122D34EF60012269
:10111E00E5D36044E5D3B4040C9003A3120651FF4B
:10112E00FFFFFF8031E5D3B4010C9003A3120651EB
:10113E000000000080209003CFE09003A3F0900306
:10114E00CEE09003A4F09003CDE09003A5F09003C1
:10115E00CCE09003A6F0D20DC20E9003D8E0FB6453
:10116E00027046850982850883E0F50FA3E0F5102D
:10117E00850F11E4F50EF50FC3E51194F7E5109404
:10118E00FF4002D20EE5D360149003A3E0FFA3E06C
:10119E00850982850883CFF0A3EFF0615B300E02E4
:1011AE00615BAE10AF11E46153EB64037071AF0974
:1011BE00AE081236C78F118E108D0F8C0EE50E54A1
:1011CE00F0FF9003A6E0540F4FF0530E0FE50ED331
:1011DE00940F5016E50EB40F13E50FB4FF0EE51085
:1011EE00B4FF09E511C394F74002D20EE5D36016A1
:1011FE009003A3E0FCA3E0FDA3E0FEA3E0FF8509BE
:10120E00828508836158300E02615B9003CCE50E37
:10121E00F0A3E50FF0A3E510F0A3E511F0615B85F7
:10122E000982850883E0F5119003A3E0FFC454F012
:10123E00FEE511540F4EF50EA3E0FEC454F0FDEF83
:10124E00C4540F4DF50F9003A8E024FFFD9003A7A3
:10125E00E03401FCED65097003EC6508603A850920
:10126E0082850883A3E0F510E5D37002611C30007F
:10127E000F850982850883E50EF0A3E50FF0611C4A
:10128E009003A3E0850982850883F0EE540FFFE5F5
:10129E001054F04FA3F08076E5D36014300004AF05
:1012AE000E80059003A3E0FF850982850883EFF089
:1012BE00A20DE43345D36007122F8DEF600122900B
:1012CE0003C3E0FCA3E0FDA3E0FEA3E02401FFE4E2
:1012DE003EFEE43DFDE43CFC122D34EF6001229015
:1012EE0003A7E0FEA3E0FFF5828E83E0F510E5D3C1
:1012FE00601C300004AD0F800D9003A4E0540FFD70
:10130E00E51054F04DFD8F828E83EDF0D20DE4F595
:10131E000EF50F300014E510C4F854F0C868F5103F
:10132E00E511C4540F48F511800353100FC3E51196
:10133E0094F7E510940F4002D20EE5D3700F200EF5
:10134E000CAE10AF11FCFD9003CC12062C7F0022C8
:101CAB009003B1E0FCA3E0FDA3E0FEA3E0FF9003F3
:101CBB00CCE0F8A3E0F9A3E0FAA3E0FBD312058391
:101CCB0040037FB1229003CCE0FCA3E0FDA3E0FE38
:101CDB00A3E02401FFE43EFEE43DFDE43CFC900266
:101CEB00E912062C121006CBEFCB9002E9E0FCA315
:101CFB00E0FDA3E0FEA3E0FF9003CC12062CEB600B
:101D0B0002FF22E511700AE50E450F45107002C166
:101D1B009B9003B3E0FF9002EBE06F701A9003B15E
:101D2B00E0FF9002E9E06F700E9003B2E0FF9002CB
:101D3B00EAE06F700281AB9003D8E0FF64017002A0
:101D4B0081AB9003A7E0FCA3E08C08F509EF6402DC
:101D5B007031F50E750FFFF5107511FF7402250923
:101D6B00F509E43508F508850982F583E07004A3CD
:101D7B00E0606CE50F150F7002150E14AE0E4E7071
:101D8B00DBC177750E00750F7F75100075117F74B1
:101D9B00042509F509E43508F508850982F583E082
:101DAB006002C167A3E06002C16785098285088371
:101DBB00A3A3E06002C167850982850883A3A3A35F
:101DCB00E0540F6002C167850982850883A3A37461
:101DDB00FFF0850982850883A3A3A3E0440FF08558
:101DEB00098285088374FFF0A3F0AE10AF11900346
:101DFB00CCE0F8A3E0F9A3E0FAA3E04FFFEA4EFE34
:101E0B00E9FDE8FCEEC0E0EFC0E0E50F24FFFFE5E5
:101E1B000E34FFCBEFCBFAD0E0FFD0E0FEC3EF9B4D
:101E2B00FFEE9AFEED9400FDEC9400FC9003CC12B7
:101E3B00062C9003B1E0FCA3E0FDA3E0FEA3E0FFC2
:101E4B009003CCE0F8A3E0F9A3E0FAA3E0FBD312F4
:101E5B00058340037FB122D20D7F0022E50F150FC2
:101E6B007002150E14AE0E4E6002A19A9003CCE0D8
:101E7B00F8A3E0F9A3E0FAA3E0FBAE10AF11EB4F30
:101E8B00FFEA4EFEE9FDE8FC9003CC12062C81AB79
:101E9B009002E9E0FCA3E0FDA3E0FEA3E0FF9003CA
:0A1EAB00A312062C7F0412100E2271
:10366600121CABEF64B16001229003CC120651002C
:07367600000000121CAB2252
:10000300E50AC394105007120800EF60012212356D
:1000130048EF600122C20C7823E6FF7002FF22EF53
:10002300645C6004EFB42F0A7F249003E97424F026
:1000330080197824E6643A600201DFEFC3944350E9
:100043000201DF7F269003E97426F09003D8E0FBDA
:10005300B403089003E51205C68005E4FFFEFDFC2A
:100063009003AD12062C9003E9E0F8E67076900356
:10007300D0120651FFFFFFFFEB6403603E9003B015
:100083007402F09003E8E09003A2F09003BB120522
:10009300C6EFC0E09003A2E0FBE4FAF9F8D0E0FF7A
:1000A3001204999003BB12062C9003A2E0FFE4FC18
:1000B300FDFE1237059003D012062C9003AD1205F6
:1000C300C69003CC12062C9003EA120651000000DE
:1000D30000E49003B6F0750A127F41227F23900358
:1000E300E97423F09003AD1205C6EC4D4E4F603218
:1000F3009003A2E09003B6F09003AD1205C6EF247F
:10010300FEFFEE34FFFEED34FFFDEC34FFFC900305
:10011300B5E0F9F81205A79003BB1205DF12048CB2
:1001230080179003E8E0FF9003B6F0FBE4FAF9F8D8
:100133009003BB1205C61204999003DB12062C90A0
:1001430003B6E0700261DC122C11EF600122E4902F
:1001530003B9F0A3F09003B9E0FEA3E0FFC3EE946C
:1001630002400261BBEF250CF509EE350BF508855E
:100173000982F583E0FF70028106EF64E570026196
:10018300AFEFB405027FE59003E9E0F8E6FE6F60A8
:1001930007EE642A600261AFEF6E70047F01800294
:1001A3007F008F10AF10EFC3940B5059AE10900324
:1001B300E9E02EF8E6FEE5092FF582E43508F5833C
:1001C300E0FD6E603BEE6009645C6005EE642F70D9
:1001D3001FED6420702FEFC394085010E509240825
:1001E300F582E43508F583E0642070197F0B8015F0
:1001F300EEB42E11E51064086004EDB420077F0708
:100203000F051080A1AE109003E9E02EF8E6F5117A
:10021300EFC3940B500241FDE509240BF582E4354D
:1002230008F583E030E30241FDC20EE509241AFF1D
:10023300E43508FE1236F1E4FCFD9003AD12062C02
:100243009003D8E0B40314E5092414FFE43508FE51
:100253001236F19003ADEEF0A3EFF0E51160052047
:100263000E0241F19003AD1205C69003CC12062C89
:100273009003EA12065100000000E49003B6F0E593
:1002830009240BF582E43508F583E030E41E90037E
:10029300D0120651FFFFFFFF7D137F1012354CEF85
:1002A300600122300E037F43227F4122E509241C93
:1002B300FFE43508FE1236C79003D012062C9003D4
:1002C300AD1205C6EC4D4E4F70109003B674FFF09F
:1002D3009003D0120651000000007D147F101235E8
:1002E3004CEF600122300E037F43227F0022E51092
:1002F30004FF9003E9E02FF001E7E511642A6002AF
:1003030061AFE509240BF582E43508F583E030E3BA
:100313000261AFE5A1645460037F11229003D01200
:1003230005C6EC4D4E4F60289003D0E030E7031232
:100333001FFF9003D01205C6EF24FFFFEE34FFFE2C
:10034300ED34FFFDEC34FFFC9003D012062C805CEF
:10035300E4FFF50EE5092FF582E43508F583E06443
:10036300206036EFB4080CAE0E9003E9E02EF87669
:100373002E050EE5092FF582E43508F583E0FEAD81
:100383000E9003E9E0FC2DF8EEF6E50E7009C8ECDB
:10039300C8E6B4050276E5050E0FEFB40BB6AF0E53
:1003A3009003E9E02FF8E4F6D20E412E9003B9E46E
:1003B30075F02012047621589003DB1205C6EF2452
:1003C30001FFE43EFEE43DFDE43CFC9003DB12064A
:1003D3002C9003B6E014F021429003AD1205C6EC55
:1003E3004D4E4F601E121000EF600122200E14903C
:1003F30003ADE50EF0A3E50FF0A3E510F0A3E511BF
:10040300F001E7E4FF9003E9E0CEEFCE0F2EF8E62C
:10041300FE6010642A600CEE645C6004EEB42FE5A9
:060423007FB3227F42229C
:103338009003CC1205C6EF24FEFFEE34FFFEED34F9
:10334800FFFDEC34FFFC9003B5E0F9F81205A790F7
:1033580003BB1205DF12048CC8ECC8C9EDC9CAEE5C
:10336800CACBEFCB9003B6E0FFE4FCFDFE12048C61
:063378009003A902062CDF
:102882009003AD1205C6EC4D4E4F700221407827E1
:102892001205BA1236FBEFC0E09003B6E0FBE4FA91
:1028A200F9F8D0E0FF1204998F118E108D0F8C0E63
:1028B200AF11AE10AD0FAC0E78231205D2C31205C4
:1028C20083401878231205BAC3EF9511FFEE9510D5
:1028D200FEED950FFDEC950EFC80449003AD1205C4
:1028E200C69003CC12062C9003A2E0FFE4FCFDFE8E
:1028F20078231205D2C3120583402B9003CC121009
:1029020003EF600122200E3678231205BAEFC0E0F1
:102912009003A2E0FBE4FAF9F8D0E0FF1204997800
:102922002312062080C17826E69003B6F0123338CF
:102932009003A91205C678231206207F0022900375
:10294200B674FFF07823120638FFFFFFFF7F0022E4
:033729007F1122EB
:10367D009003C8120651FFFFFFFF9003C3120651BE
:07368D00FFFFFFFFC20D2249
:043548007D107F1063
:10354C00AE0AEEC39F4005CEEDCE8D0AEE6D700235
:0F355C00FF22750A011207DEEF6001227F832232
:10352300AB0DEBB41611750A019003D412065100CA
:10353300000000CFEBCF22EBB41507750A02CFEBE7
:05354300CF227F0022F1
:103065007F027E0012361F9003E4E50DF01207DEA5
:10307500EF600122E50AC3940450037F83227E3664
:103085007FB712316B9003E3E0900044F0E4FDFF5D
:10309500FE12161E8F0DEFB41601229003DAE054CE
:1030A5000FFF1235E79003D9E0540F4480FF123526
:0B30B500E79003E4E0FFF50DE4F022DB
:10337E00900048EDF0A3E4F0A3F0A3F0ED60047E1E
:10338E008080027E0090004CEEF09003C7E090002B
:10339E004DF0A37406F0A3EFF0A3E4F0A3F0A3F0B6
:0F33AE00A3EDF0A3E4F0A3F0A3F0A3F0A3F022AB
:0718510012337E7E007F626E
:101858008E148F159000407455F0A37453F0A37440
:1018680042F0A304F075D71F9003DAE0FF9003E479
:10187800E0FD7BE87AFD1227A38F0DEFB416012255
:10188800EF60397E007F627C007D407B1B7A00120E
:10189800356B1230657E007F407C007D627B1B7A51
:1018A8000012356B9003DAE0FF9003E4E0FD7BE87B
:1018B8007AFD1227A38F0DEF6002417F9003E4E0C9
:1018C8006440F0900048E0FDA3E0FF4D7002414401
:1018D800EFF512EDF51390004CE020E702219DD2C0
:1018E80001E513451270022195E5127007E513C34F
:1018F80094404009AF158514E58FE48008C201754E
:10190800E50075E4009003D9E0FF9003E4E0FD7B77
:10191800E87AFD1227A38F0DEF601A75E50075E4CC
:1019280000EF642E6001229003D9E0540F4480FF39
:101938001235E780589003E4E06480F030011FE539
:10194800DB6440704874C02513F51374FF3512F535
:101958001274402515F515E43514F5148083AFDBB2
:10196800AE13EEC39F5003CFEECFE4FEEE6F601DC3
:1019780074002EF582E43400F583E0851582851421
:1019880083F00515E515700205140E80DF75E50076
:1019980075E4004144E51345127002413EE51270BA
:1019A80008AF13EFC394404023AD158514E78DE6C7
:1019B80074C02513F51374FF3512F51274402515FC
:1019C800F515E43514F51475D740803375E70075BF
:1019D800E6408FD7E4FFE5136F601F8515828514F5
:1019E80083E0FE74402FF582E43400F583EEF005C1
:1019F80015E515700205140F80DCE4F512F5139057
:101A080003DAE0FF9003E4E0FD7BE87AFD1227A308
:101A18008F0DEF601875E70075E640EF642E6001E2
:101A2800229003DAE0540FFF1235E780099003E4AF
:101A3800E06440F0219D75E70075E6409003D9E029
:101A4800FF9003E4E0FD7BE87AFD1227A38F0DEFFA
:101A58006001229003E4E06480F0750D1FE5DB640B
:101A68000D6003AF0D2290000CE0FE7004F50DFF31
:0D1A780022EEC394024003023065AF0D2240
:10358C007F0A7E0012361F7D127F031218517F05B1
:0F359C007E0012361FE50D7002FF22123523222A
:10311600750E0F7D087F2512337E90004E740AF0DF
:10312600900053E4F0121854AF0DEF700B90006846
:10313600E06402602D7F1722EF64166025EF6415A8
:103146006020EF6413601B8F0F12358C850F0DE521
:103156000E7E0030E3047F4080027FC812361FD502
:053166000EB1AF0F22C5
:101EB5001207DEEF600122E50AC3940450037F8315
:101EC50022750A04122DC38F0DEF60012290004E7A
:101ED500E06408705FC20BA3E0B40602D20B900069
:101EE5004BE09003E3F0E4F50EE50E600790005B30
:101EF500E0FF8005900054E0FF8F0FE50E6007902E
:101F0500005DE0FF8005900056E0FFEF644070241F
:101F1500E50F30E70CE50F540F44909003D9F0809E
:101F25000AE50F540F44109003DAF0050EE50EB4E0
:101F350002B78006750D1FAF0D22900045E0FF1218
:101F450035C98F0DEF600122E4F50E7E367FBF1295
:101F5500316B9003E3E0900044F07D0FAF0CAE0BC6
:101F650012161E8F0DEF7010E50FB4011A850C8245
:101F7500850B83E0F50E800FE50DB42E07E4FF1207
:101F850035E78003AF0D227F057E0012361F12361E
:101F95007DE49003E4F09003C7F07D247F121233B3
:101FA5007EAF0CAE0B121858E50D7023E50E6018C8
:101FB5009003C7E07012850C82850B83E0B4050899
:101FC5009003C77401F080D27D057F0402354CE58E
:101FD5000E600E9003C7E0C394035005E004F08043
:0C1FE500B9E49003C7F07F011231BA226A
:1030C0007823120638000000001207DEEF600122AC
:1030D000E50AC394055028121EB5EF600E7F407EAE
:1030E0000012361F121EB5EF600122123116EF607A
:1030F00003AF0D229000621205C67823120620E469
:10310000FDFF121851E50D7002FF22850D0E1235DC
:063110008CAF0E8F0D22B2
:1031BA00E4FDFCE4F5A10DBD00010CBC01F5BDF474
:1031CA00F2EFC394024014AE0AEEB41205750A0572
:1031DA008009EED394104003750A10AE0DEF601407
:1031EA00EE6416600FEE6415600A12358CCEEFCECF
:0F31FA00EE7001227F027E0012361F1235232253
:10080000E50AC39405500A121EB5EF6001221231A9
:100810001612367D9003D41205C6EF54F0FFEC7B20
:10082000707A5679347812C3120583700A9003D710
:10083000E0540FF5098003E4F509E49003A2F09079
:1008400003B6F09003D0120651000000009003A9F7
:1008500012065100000000122C1DEF600D123065D1
:10086000123116122C1DEF600122E509700F850C64
:1008700082850B83E054FD64E970022173E50C244A
:10088000FEF582E50B3401F583E0FEA3E064AA7077
:1008900003EE645560037F91229003A2E0F508E522
:1008A0000864407002215FE50C24BEFFE50B3401B3
:1008B000FE7C00EF2508FFEC3ECF2408CF3400FE7D
:1008C0001236C79003A912062CE50C24BEFFE50BD7
:1008D0003401FE7C00EF2508FFEC3EF583EF240495
:1008E000F582E43583F583E0F50EE50E64056005D9
:1008F000E50EB40F309003A91205C69003D012057F
:10090000DF12048C9003A912062C9003B6E060025B
:100910000157E5082410F09003A91205C69003D0F2
:1009200012062C0157E50E30E703530E3FE50E602B
:1009300026E50EC3940F501FE5099401501790034C
:10094000A91205C69003C81205DF12048C9003A9F2
:1009500012062C801E150974102508F508019F90B9
:1009600003B6E0FF600A9003A2E07004EFF00143D9
:100970007F92229003A91205C69003D412062C126E
:100980002C1DEF600122850C82850B83E054FD64F1
:10099000E960037FA122E50C24FEF582E50B34011A
:1009A000F583E0FEA3E064AA7003EE645560037F64
:1009B000A122E50C240DF582E4350BF583E0FF90D0
:1009C00003A2F09003B57407F0EF20E713EF25E0E2
:1009D000FF9003B5E014F0E070EF9003A27401F013
:1009E000E50C2416FFE4350BFE1236F1E4FCFD9015
:1009F00003BF12062C9003C1E0FEA3E04E7012E587
:100A00000C2424FFE4350BFE1236C79003BF1206F8
:100A10002CE50C2413FFE4350BFE1236F1E4FCFD4B
:100A20009003EA12062C9003ECE0FEA3E04E701255
:100A3000E50C2420FFE4350BFE1236C79003EA12C2
:100A4000062CE50C2411FFE4350BFE1236F1EF24E1
:100A50000FFFE43EC4F854F0C868FEEFC4540F48DA
:100A6000FFE4FCFD9003E512062CE50C240EFFE4E8
:100A7000350BFE1236F1E4FCFD9003DF12062C90DC
:100A800003E8E0FF7E009003E1E0FCA3E02FFFEE2F
:100A90003CFEE4FCFD9003BF1205DF12048C8F11B5
:100AA0008E108D0F8C0EE50C2410F582E4350BF5BD
:100AB00083E09003BFB402191205C6EF2511F511AA
:100AC000EE3510F510ED350FF50FEC350EF50E8007
:100AD00007120651000000009003A91205C6EF2579
:100AE00011FFEE3510FEED350FFDEC350EFC9003D9
:100AF000BB12062C9003EA1205C6C3EF9511FFEE58
:100B00009510FEED950FFDEC950EFC9003B5E0F908
:100B1000F81205949003B112062CE47FF57EFFFDD8
:100B2000FC9003B11205DFC31205835023E4900348
:100B3000B7F0A3F09003B3E0FEA3E0C394F5EE9406
:100B40000F9003D850057401F080317402F0802CAE
:100B5000E50C2430FFE4350BFE1236F19003B7EEBE
:100B6000F0A3EFF0E50C242CFFE4350BFE1236C7A2
:100B70009003E512062C9003D87403F09003E1E093
:100B8000FEA3E04E60479003E51205C6EC4D4E4FC4
:100B9000603BE50C2410F582E4350BF583E064013D
:100BA000600C9003BF1205C6EC4D4E4F601FE50C64
:100BB000240BF582E4350BF583E07011E50C240C71
:100BC000F582E4350BF583E0C39402500CE509701F
:100BD00005750901013A7FA3229003DF1205C69033
:100BE00003A91205DF12048C9003DF12062C7D107E
:060BF0007F0512354C22C6
:102F8D009003C31205C69003A912062C1232F2EF5C
:102F9D006001229003BF1205C6EC4D4E4F60439069
:102FAD0003A91205C69003BF1205DF12048C90030E
:102FBD00A912062C9003A7E0FCA3E0FD7F01120FE0
:102FCD005B8F0D9003A91205C69003BF1205DF128A
:102FDD0004999003A912062CE50D600612367DAFFB
:072FED000D22C20D7F00223E
:102EBA00121CABEF600564B1600122EF6011900350
:102ECA00CC12065100000000121CABEF6001221266
:102EDA002F8DEF6001229003CC1205C69003AD122C
:102EEA00062C122C11EF6001229003BAE0250CF592
:102EFA00099003B9E0350BF508F583E509241CF5BB
:102F0A0082E43583F583120651010000009003AD77
:0A2F1A001205C612371F122E4A22BC
:082F24007FFF7EFF7DFF7CFFB3
:102F2C008F118E108D0F8C0E9003B7E0FCA3E0FD7B
:102F3C004C7002FF22CFEDCFCEECCEE4FCFD900323
:102F4C00D41205DF12048C122C17EF600122E50C51
:102F5C0024E8FFE50B3401FE1236C7EF2511FFEE16
:102F6C003510FEED350FFDEC350EFC12371FE50C60
:102F7C0024E8F582E50B3401F58312062C122E762B
:012F8C002222
:10325700C20CE50AC394144042122C11EF600122FC
:103267009003BAE0250CF5099003B9E0350BF50892
:10327700F583E509240BF582E43583F583E020E443
:103287001A9003D01205C612371FE509241CF582D0
:0E329700E43508F58312062C022E767F002205
:10300000AF0AEFC3941250037FB422EFB41235908D
:1030100003D8E06403602D9003B5E0FF7401C8EFAE
:10302000C8088002C333D8FC9003A2F09003BB12FF
:1030300005DF9003E8E0FFE4FCFDFE12048C900342
:10304000BB12062CAF0AEFD394134009EFB4140758
:103050007823E67002C20C300C07123257EF600181
:05306000221235482298
:102A1E00E50AC394135007120003EF60012212352A
:102A2E0048EF600122122C11EF6001229003B9E0F1
:102A3E00FEA3E0250CF582E50B3EF58374E5F0125E
:102A4E002E76EF6001229003ADE0F50EA3E0F50FB8
:102A5E00A3E0F510A3E0F511E50E450F4510451165
:102A6E00606D9003AD1205C6EF24FFFFEE34FFFE3E
:102A7E00ED34FFFDEC34FFFC9003AD12062C9003F9
:102A8E00CC120651000000009003A3E50EF0A3E562
:102A9E000FF0A3E510F0A3E511F07F0112100EEF79
:102AAE006001229003CC1205C6EF2401FFE43EFE26
:102ABE00E43DFDE43CFC9003CC12062C300EC91212
:102ACE002F8DEF6001229003CC1205C6022F2C7FB2
:022ADE000022D4
:101A85001200039003B6EFF07009122A1EEF7002E0
:101A950061A9229003B6E0FF6442600122C390036E
:101AA500B9E09402500261A99003AD1205C6EC4D50
:101AB5004E4F70026157121000EF600122200E0296
:101AC50061A99003AD1205C69003CC12062C1236FF
:101AD50066EF6001229003AD1205C69003A31206BE
:101AE5002C7F0212100EEF600122122F8DEF600184
:101AF50022850C82850B837F02E4FEE4F0A3DEFBE6
:101B0500DFF7E49003B6F0123338E49003B9F0A39D
:101B1500F09003A91205C69003DB12062C9003A2D0
:101B2500E0F50EE50E6024122E76EF60012290039B
:101B3500A91205C6EF2401FFE43EFEE43DFDE43CA9
:101B4500FC9003A912062C150E80D8122F24EF60E5
:101B550053229003E8E09003B6F09003DB74FF1284
:101B650005ED122C17EF600122E49003B9F0A3F004
:101B75009003B9E0FEA3E0FFC3EE9402501BE50C11
:101B85002FF582E50B3EF583E064E560179003B918
:101B9500E475F02012047680D79003B6E014F07057
:101BA500B97FB2229003AD1205C69003CC12062C64
:101BB500E5B1549060037F1122123666EF60012271
:101BC500122F8DEF6001229003CC1205C69003AD54
:101BD50012062C122F24EF600122122C11EF600146
:101BE500229003BAE0250CF5099003B9E0350BF511
:101BF50008E4FFEFC3940B50047E2080027E00E5CD
:101C0500092FF582E43508F583EEF00FEFB420E3F4
:101C1500E5092418F582E43508F5837421F0A374E9
:101C250030F0E509241CF582E43508F5837401F0EC
:101C3500E4FFEFC3940B50319003E9E0F8E6FE6052
:101C450028EEB42E087F089003E9E004F09003E93C
:101C5500E0F8E6FEE5092FF582E43508F583EEF0B8
:101C65000F9003E9E004F080C99003AD1205C61298
:101C7500371F122E4AEF6001229003AD1205C69060
:101C850003CC12062C9003D01206510000000090E0
:101C950003EA12065100000000E49003B6F07D143B
:061CA5007F1012354C22F5
:1021F200D20C9003B5E0FFE47E02C8EFC808800568
:10220200C333CE33CED8F924FFFFEE34FFFEE4FC15
:10221200FD9003D01205DF12048C9003B5E024096F
:10222200F9F81205949003EE12062C9003EA1205B7
:10223200C6C8E9C81205949003A312062C9003A302
:102242001205C69003EE1205DFD3120583401490E7
:1022520003EE1205C69003A31205DF120499900340
:10226200EE80099003AD1205C69003CC12062C90A5
:1022720003AD1205C6EC4D4E4F70159003D01205FA
:10228200C6EC4D4E4F7002FF22122EBAEF6017229B
:102292009003D01205C6EC4D4E4F700A9003EE1219
:1022A2000651000000019003CC1205C678231206E5
:1022B200209003EE1205C6EF24FFFFEE34FFFEED81
:1022C20034FFFDEC34FFFC9003EE12062C9003CC9D
:1022D2001205C69003A312062C7827120620E4FFEB
:1022E20012100EEF600122300E6B9003EE1205C643
:1022F200EC4D4E4F700E78231205BA9003CC1206A5
:102302002C7F00229003EE1205C6120575122F2CA7
:10231200EF6001229003CC1205C678271206201224
:102322003666EF60012278271205BA9003A31206DF
:102332002C7F0212100EEF6001229003EE74FF1246
:1023420005EDEC4D4E4F70CC78231205BA9003CCBC
:1023520012062C61DD9003EEE0600241B3A3E0605F
:102362000241B3A3E0600241B3A3E0600241B3784B
:10237200271205BA8F118E108D0F8C0E9003A3E5D4
:102382000EF0A3E50FF0A3E510F0A3E511F07F0135
:1023920012100EEF6001229003EE1205C6EF240127
:1023A200FFE43EFEE43DFDE43CFC9003EE12062C0D
:1023B200300EC99003EE1205C6122F2CEF600122D7
:1023C2009003AD1205C69003CC12062C9003EA12BC
:0F23D200065100000000E49003B6F0122F8D2298
:10269100E50AC3941350037FB422122C11EF600199
:1026A10022C2119003BAE0250CF5099003B9E03577
:1026B1000BF508782BE6FFE509240BF582E43508D4
:1026C100F583E0F6EFF4600FE509240BF582E435BC
:1026D10008F583EFF0D2117929E7F50F782AE6F5AD
:1026E1000EE5092416FFE43508FE1236F17829EECD
:1026F100F608EFF6E50FF47003E50EF46014E50952
:102701002416F582E43508F583E50EF0A3E50FF014
:10271100D2117927E7F50F7828E6F50EE509241897
:10272100FFE43508FE1236F17827EEF608EFF6E5FC
:102731000FF47003E50EF46014E5092418F582E442
:102741003508F583E50EF0A3E50FF0D211782312D9
:1027510005BA8F118E108D0F8C0EE509241CFFE434
:102761003508FE1236C77823120620E50E550F559F
:10277100105511F46023AF11AE10AD0FAC0E9003E4
:10278100D012062C12371FE509241CF582E4350806
:10279100F58312062CD211C20C301103022E767F62
:0227A100002214
:1036A600E4FF74232FF876FF0FEFB40AF512269184
:0136B60022F1
:1033BD00E50A641460037FB4229003AD1205C69034
:1033CD0003CC12062C9003EA120651000000009067
:1033DD0003AD1205C6EC4D4E4F60047F0080027F99
:0E33ED00FF9003B6EFF07D157F1412354C22D1
:1032A500E50A641560071233BDEF6001229003EA59
:1032B5001205C6782712062078231205BA9003EA6C
:1032C50012062C9003D01205DFC3120583500C9013
:1032D50003D01205C69003EA12062C9003EA1205E4
:0D32E500C61236FB78231206201228822222
:10200000E50A641560071233BDEF6001227823E60C
:10201000FF08E67827CFF608EFF6E47823F608F60F
:102020009003B6E0B4FF037F00227828E6184670DC
:102030000221EF9003EA1205DF9003D01205C612C9
:1020400004998F118E108D0F8C0EE50E450F4510E3
:102050004511700221EFE50EF4700221EF123338C2
:10206000E50E450F600674FFF510F511D3E5117804
:102070002896E51018964007E6F51008E6F511C316
:10208000E51094025002211E9003EDE06002211E33
:102090009003ECE030E002211EE51013751000F50E
:1020A000119003B6E0FF9003A2E0C39FFFAE11EED4
:1020B000D39F40057510008F11AF117926E7782462
:1020C00026FD19E71836FC122AE0EF600122AF1155
:1020D0009003B6E02FF0AF11EF25E0751100F51079
:1020E0009003EA1205DFAE10AF11E4FCFD12048C80
:1020F0009003EA12062CC37828E69511F618E695A7
:1021000010F67824E51126F618E51036F69003A2AD
:10211000E0FF9003B6E0C39F5002012A21BC900368
:10212000ECE0FEA3E0FFEE5401FEC3E49FFF740267
:102130009EFED3E5119FE5109E40048E108F111274
:102140002C1DEF6001229003ECE0FEA3E0FFEE54B3
:1021500001FEEF250CFFEE350BFE7926E7782426ED
:10216000FD19E71836FCAB11AA1012356B9003EA83
:102170001205DFAE10AF11E4FCFD12048C9003EAEF
:1021800012062CC37828E69511F618E69510F67815
:1021900024E51126F618E51036F69003EDE060020E
:1021A000012A9003ECE030E002012A9003A2E0FF54
:1021B0009003B6E004F0C39F5002012A9003CC12B2
:1021C00005C69003A312062CE4FF12100EEF600167
:1021D00022300E149003B674FFF09003EA1205C685
:1021E0009003D012062C8007E49003B6F0012A7FFA
:0221F0000022CB
:10135E00E50A641560071233BDEF6001227823E6BB
:10136E00FE08E6FF7827EEF6FE08EFF64E70063022
:10137E000C03023257E47823F608F67828E618466E
:10138E007002C1089003B6E0F46002811B9003ADB9
:10139E001205C6EC4D4E4F604DE50AB4120B90038C
:1013AE00D8E0640360037FB1229003CC1205C6908F
:1013BE0003EA12062C123666EF6001229003EA123F
:1013CE0005C69003A312062C7F0212100EEF6001C9
:1013DE00229003A7E0650B7004A3E0650C700E125B
:1013EE002F8DEF600822122EBAEF6001227FFF7E52
:1013FE00FF7DFF7CFF122F2CEF6001229003D01295
:10140E0005C69003EA12062CE49003B6F0123338A8
:10141E009003B6E0FF9003A2E0C39F25E0FFEFFE2E
:10142E009003ECE0FCA3E0FDEC5401FCC3E49DF55D
:10143E000FEE9CF50ED3E50F782896E50E18964024
:10144E0007E6F50E08E6F50FC3E50E94025002818D
:10145E00FD9003EDE0600281FD9003ECE030E002D0
:10146E0081FDE50E13750E00F50FAF0F7926E778A7
:10147E002426FD19E71836FC120F5BEF600122AF30
:10148E000F9003B6E02FF0AF0FEF25E0750F00F5CC
:10149E000E9003EA1205DFAE0EAF0FE4FCFD120450
:1014AE008C9003EA12062CC37828E6950FF618E600
:1014BE00950EF67824E50F26F618E50E36F690030F
:1014CE00EA1205C69003D01205DFC3120583500E33
:1014DE009003EA1205C69003D012062CD20C90038C
:1014EE00A2E0FF9003B6E0C39F50026189A1E19094
:1014FE0003ECE0FEA3E0FFEE5401FEC3E49FFF7495
:10150E00029EFED3E50F9FE50E9E40048E0E8F0FBA
:10151E009003EDE070199003ECE020E0129003EAE6
:10152E001205C69003D01205DFD3120583400712B1
:10153E002C1DEF6001227926E7782426FF19E71883
:10154E0036FE9003ECE0FCA3E0FDEC5401FCED252F
:10155E000CFDEC350BFCAB0FAA0E12356B9003EAAB
:10156E001205DFAE0EAF0FE4FCFD12048C9003EA01
:10157E0012062CC37828E6950FF618E6950EF67827
:10158E0024E50F26F618E50E36F6122E76EF6001DC
:10159E00229003EA1205C69003D01205DFC312058E
:1015AE0083500E9003EA1205C69003D012062CD279
:1015BE000C9003EDE0600261899003ECE030E002F4
:1015CE0061899003A2E0FF9003B6E004F0C39F5040
:1015DE000261899003CC1205C69003A312062CE477
:1015EE00FF12100EEF600122300E089003B674FF4A
:1015FE00F06189E49003B6F06189300D07122F8DEA
:07160E00EF6001227F0022C2
:1036C7008F828E83E0FFA3E0FEA3E0FDA3E0FC2250
:0A36F1008F828E83E0FFA3E0FE222B
:07371F00EFCCFFEECDFE220E
:0A36FB00C3E4CC13CD13CE13FF225D
:0A370500C3E4CF33CE33CD33FC22F2
:10356B0005A28D828C8315A28F828E837F00EA60E9
:10357B0007E0A3A5DFFBDAF9EB6005E0A3A5DBFB16
:01358B00221D
:030000000236E5E0
:0C36E500787FE4F6D8FD75814202253D97
:10042900BB010689828A83E0225002E722BBFE02D1
:09043900E32289828A83E4932204
:10044200BB010989828A83F8E028F022500327F74A
:1004520022BBFE05F8E328F3228A838982F8E4931B
:0204620028224E
:10046400BB010689828A83F0225002F722BBFE0177
:02047400F32271
:10047600C5F0F8A3E028F0C5F0F8E5821582700211
:060486001583E038F022AE
:0D048C00EF2BFFEE3AFEED39FDEC38FC22BF
:0E049900C3EF9BFFEE9AFEED99FDEC98FC225E
:1004A70075F008758200EF2FFFEE33FECD33CDCC0C
:1004B70033CCC58233C5829BED9AEC99E58298408F
:1004C7000CF582EE9BFEED9AFDEC99FC0FD5F0D66C
:1004D700E4CEFBE4CDFAE4CCF9A88222B800C1B996
:1004E7000059BA002DEC8BF084CFCECDFCE5F0CBD4
:1004F700F97818EF2FFFEE33FEED33FDEC33FCEB0D
:1005070033FB10D703994004EB99FB0FD8E5E4F9C7
:10051700FA227818EF2FFFEE33FEED33FDEC33FCB4
:10052700C933C910D7059BE99A4007EC9BFCE99AA8
:10053700F90FD8E0E4C9FAE4CCFB2275F010EF2FED
:10054700FFEE33FEED33FDCC33CCC833C810D707ED
:100557009BEC9AE899400AED9BFDEC9AFCE899F828
:0E0567000FD5F0DAE4CDFBE4CCFAE4C8F922BB
:0E057500C3E49FFFE49EFEE49DFDE49CFC2297
:10058300EB9FF5F0EA9E42F0E99D42F0E89C45F0CE
:010593002245
:10059400E8600FECC313FCED13FDEE13FEEF13FF45
:0305A400D8F12269
:1005A700E8600FEFC333FFEE33FEED33FDEC33FCB2
:0305B700D8F12256
:0C05BA00E6FC08E6FD08E6FE08E6FF226D
:0C05C600E0FCA3E0FDA3E0FEA3E0FF22A8
:0D05D200E6FB08E6F908E6FA08E6CBF82299
:0C05DF00E0F8A3E0F9A3E0FAA3E0FB229F
:1005EB007401FF3395E0FEFDFCA3A3A3E02FFFF006
:1005FB00E582158270021583E03EFEF0E5821582DE
:10060B0070021583E03DFDF0E582158270021583C3
:05061B00E03CFCF022B0
:0C062000ECF608EDF608EEF608EFF62206
:0C062C00ECF0A3EDF0A3EEF0A3EFF02241
:10063800D083D082E493F608740193F60874029389
:09064800F608740393F6740473C0
:10065100A8828583F0D083D08212066812066812C0
:100661000668120668E473E493A3C583C5F0C583E5
:10067100C8C582C8F0A3C583C5F0C583C8C582C8F3
:010681002256
:09068200EBF0A3EAF0A3E9F02279
:100BF600E5162405F582E43403F583E00516229014
:100C06000302300903900305E475F0011207A102FF
:100C160004292002E97F2ED2028018EF540F249077
:100C2600D43440D4FF30060BEF24BFB41A0050036F
:100C36002461FFE51760021517051AE51A7002050B
:100C46001930090E900302E475F0011207A1EF02B4
:100C560004640234FC7403D2098003E4C209F51665
:100C6600900302120682E4F517F519F51AE51760E6
:100C7600077F20120C3980F57518FFC203C202C225
:100C860004C205C207C208C20A120C05FF700D3065
:100C960009057F00120C4AAF1AAE1922B4255FC2AD
:100CA600D5C206120C05FF24D0B40A00501A75F0FE
:100CB6000A781730D50508B6FF0106C6A426F62021
:100CC600D5047002D20580D924CFB41A00EF50049F
:100CD600C2E5D206020E4BD20380C6D20280C0D233
:100CE6000480BCD2D580BAD20780B47F20120C39DA
:100CF6002004077401B5170040F1120BF6FF120C21
:100D060039020C73D20AD2088095120BF6FB120B2D
:100D1600F6FA120BF6F94A4B7006791C7A0F7BFF2E
:100D260020042EE517602A7E008E82758300120746
:100D36007460060EEE651870F0C2D5EBC0E0EAC02E
:100D4600E0E9C0E0EE120E92D0E0F9D0E0FAD0E091
:100D5600FB120429FF60AAEBC0E0EAC0E0E9C0E0AC
:100D6600120C39D0E02401F9D0E03400FAD0E0FBCF
:100D7600E5180460DCD518D980877BFF7A0E798E5A
:100D8600D204809C791080027908C208C20A8008C1
:100D9600D2D5790A8004790AC2D5E518047002F51D
:100DA60018E4FAFDFEFF120BF6FC7B082003131273
:100DB6000BF6FD7B1030020A120BF6FE120BF6FF45
:100DC6007B20EC3382D592D55013C3E43002069FC4
:100DD600FFE49EFEE42003039DFDE49CFCE4CBF8C7
:100DE600C203EC700CCFCECDCCE824F8F870F380BB
:100DF60017C3EF33FFEE33FEED33FDEC33FCEB337D
:100E0600FB994002FB0FD8E9EB300305F8D0E0C4AC
:100E160048B203C0E00AEC4D4E4F78207B0070C20A
:100E2600EAB5180040BCC0E0120E94D0F0D0E02025
:100E36000304C4C0E0C4B203C0F0120C22D0F0D543
:100E4600F0EB020C731207B80D10530D8A580CE123
:100E56004C0CDD420D8E4F0D96440D96490CF64313
:080E66000D9C550D80460D8026
:100E6E00450D80470F3C500CE52D0CE92E0D0C2B3B
:100E7E000CED230D0A200F252A0CA54800000D04A9
:100E8E003F3F3F00790AA2D5200514300709B9105B
:100E9E00020404B9080104A2D5200802500104205E
:100EAE0004689204B517005034C0E07F2030051955
:100EBE007F30A20472087207500F120EEBC204C2EA
:100ECE0008C207C20A7F30800F300703E9C0E01264
:100EDE000C39300703D0E0F9D0E0B517CC30071746
:100EEE007F30B9100C120C397F583006077F78808E
:100EFE0003B90803120C393004057F2D020C397F1B
:100F0E0020200AF87F2B2008F322920480CF286E2F
:100F1E00756C6C2900D203120BF63003F8C20378FD
:100F2E001730D50108F6020CA52D50434958120B67
:100F3E00F62403B405004001E4900F3793120C2AF7
:0D0F4E00743A120C2AD205751704020D8AA0
:10068B00E709F60870FA8046E709F20870FA803E2F
:10069B0088828C83E709F0A370FA807EE309F60861
:1006AB0070FA8076E309F20870FA806E88828C8388
:1006BB00E309F0A370FA806289828A83E0A3F608CB
:1006CB0070FA805689828A83E0A3F20870FA804A16
:1006DB0080D280FA80C680D4806580F28031801011
:1006EB0080A680EA809A80A880DA80E280CA803176
:1006FB0089828A83ECFAE493A3C8C582C8CCC583EC
:10070B00CCF0A3C8C582C8CCC583CC70E9800D8959
:10071B00828A83E493A3F60870F9ECFAA9F0EDFB57
:10072B002289828A83ECFAE0A3C8C582C8CCC58330
:10073B00CCF0A3C8C582C8CCC583CC70EA80DD8958
:10074B00828A83E493A3F20870F980CE88F0ED24BB
:10075B0002B4040050C4F582EB2402B4040050BA76
:09076B0023234582239006DB7371
:10077400BB010CE58229F582E5833AF583E022503A
:1007840006E92582F8E622BBFE06E92582F8E22284
:0D079400E58229F582E5833AF583E493229E
:1007A100F8E0FBA3A3E0F925F0F0E58215827002E1
:0707B1001583E0FA38F02285
:1007B800D083D082F8E4937012740193700DA3A3D0
:1007C80093F8740193F5828883E4737402936860E4
:0607D800EFA3A3A380DFE4
:1034FC00EFB40A07740D123507740A309811A899A5
:10350C00B8130CC2983098FDA899C298B811F6302F
:07351C0099FDC299F5992207
:00000001FF
