:10074B0075A15575A1AAE5B954F84404F5B9E4F5BA
:02075B00A122D9
:0E076E00EF4E600905A1EF1F70F61E80F3220A
:10070A00AD07AC06ED4C600E7FE87E0312076EED76
:07071A001D70F11C80EE22AE
:04005C0043C6102265
:10057400C29FD29EC29DC2CDC2CC43878090002A26
:100584001204A500000082E47B0AFAF9F890002A1C
:10059400E0FCA3E0FDA3E0FEA3E0FF12040790004B
:1005A4002EEBF090002AE0FCA3E0FDA3E0FEA3E024
:1005B400FFE47B0AFAF9F812040790002A1204995E
:1005C40090002EE0C39405401F90002AE0FCA3E0B5
:1005D400FDA3E0FEA3E02401FFE43EFEE43DFDE4D0
:1005E4003CFC90002A120499E589540F4420F589B3
:1005F40043C9A090002AA3A3A3E0F404F58DD28EEE
:04060400D299D29C19
:0106080022CF
:08079B003098FDC298AF9922CD
:0807A3008F993099FDC29922E3
:0A078800C2C7D2C5D2C475C2F32265
:0807AB0030C0FDC2C0AFC12245
:0807B3008FC130C1FDC2C1225B
:1007210075A15575A1AAEF600543B101800353B1CD
:07073100FEE4F5A1F5FF2233
:030060008FFF22ED
:100738004750494F5F5354415455533A202530325E
:03074800780A002C
:10000300EF14601C14602B14603C2403704A7401C9
:10001300C8EDC8088002C333D8FCF452925293222D
:100023007401C8EDC8088002C333D8FCFFF45292B0
:1000330080237401C8EDC8088002C333D8FCFF4293
:1000430092EFF45293227401C8EDC8088002C333BF
:09005300D8FCFF4292EF42932217
:10060900EF14601C14602B14603C2403704A7401BD
:10061900C8EDC8088002C333D8FCF4529652972219
:100629007401C8EDC8088002C333D8FCFFF45296A0
:1006390080237401C8EDC8088002C333D8FCFF4287
:1006490096EFF45297227401C8EDC8088002C333AB
:09065900D8FCFF4296EF42972203
:0907920053C77F43C73CD2EE229D
:030063000206B5DD
:1006B500C0E0C0F0C083C082C0D075D0087BFF7A8F
:1006C500077938E5C65440FF90002DE4F0A3EFF01C
:0E06D5001200D1D0D0D082D083D0F0D0E0324D
:10075D007374617274202E2E2E0A0052756E002E47
:01076D00008B
:10066200E4900028F0A3F012074B7F147E001207DB
:100672000A1205747BFF7A07795D1200D17D067F2D
:10068200011200037D077F01120003C296C2971276
:100692000792D2AF7BFF7A0779681200D17BFF7A8B
:1006A20007796C1200D1B296B2977F647E0012076E
:0306B2000A80EAD1
:0300000002077C78
:0C077C00787FE4F6D8FD75812202066249
:1003CB0075F008758200EF2FFFEE33FECD33CDCCE9
:1003DB0033CCC58233C5829BED9AEC99E58298406C
:1003EB000CF582EE9BFEED9AFDEC99FC0FD5F0D649
:1003FB00E4CEFBE4CDFAE4CCF9A88222B800C1B973
:10040B000059BA002DEC8BF084CFCECDFCE5F0CBB0
:10041B00F97818EF2FFFEE33FEED33FDEC33FCEBE9
:10042B0033FB10D703994004EB99FB0FD8E5E4F9A4
:10043B00FA227818EF2FFFEE33FEED33FDEC33FC91
:10044B00C933C910D7059BE99A4007EC9BFCE99A85
:10045B00F90FD8E0E4C9FAE4CCFB2275F010EF2FCA
:10046B00FFEE33FEED33FDCC33CCC833C810D707CA
:10047B009BEC9AE899400AED9BFDEC9AFCE899F805
:0E048B000FD5F0DAE4CDFBE4CCFAE4C8F92298
:0C049900ECF0A3EDF0A3EEF0A3EFF022D6
:1004A500A8828583F0D083D0821204BC1204BC12CA
:1004B50004BC1204BCE473E493A3C583C5F0C583EF
:1004C500C8C582C8F0A3C583C5F0C583C8C582C8A1
:0104D5002204
:10006600E515242DF582E43400F583E0051522908C
:10007600002A30100390002DE475F00112052E02BF
:1000860004D62009E97F2ED2098018EF540F249058
:10009600D43440D4FF300D0BEF24BFB41A00500304
:1000A6002461FFE516600215160519E519700205AB
:1000B6001830100E90002AE475F00112052EEF029A
:1000C600051C0206E37403D2108003E4C210F51582
:1000D60090002A120545E4F516F518F519E516609F
:1000E600077F201200A980F57517FFC20AC209C250
:1000F6000BC20CC20EC20FC211120075FF700D307A
:1001060010057F001200BAAF19AE1822B4255FC2DF
:10011600D5C20D120075FF24D0B40A00501A75F02E
:100126000A781630D50508B6FF0106C6A426F620BD
:10013600D5047002D20C80D924CFB41A00EF500433
:10014600C2E5D20D0202BBD20A80C6D20980C0D255
:100156000B80BCD2D580BAD20E80B47F201200A903
:10016600200B077401B5160040F1120066FF12005D
:10017600A90200E3D211D20F8095120066FB12008D
:1001860066FA120066F94A4B7006798C7A037BFF91
:10019600200B2EE516602A7E008E827583001204DF
:1001A600EF60060EEE651770F0C2D5EBC0E0EAC050
:1001B600E0E9C0E0EE120302D0E0F9D0E0FAD0E0C8
:1001C600FB1204D6FF60AAEBC0E0EAC0E0E9C0E09B
:1001D6001200A9D0E02401F9D0E03400FAD0E0FB07
:1001E600E5170460DCD517D980877BFF7A0279FE94
:1001F600D20B809C791080027908C20FC211800848
:10020600D2D5790A8004790AC2D5E517047002F5B9
:1002160017E4FAFDFEFF120066FC7B08200A1312A3
:100226000066FD7B1030090A120066FE120066FFAA
:100236007B20EC3382D592D55013C3E43009069F58
:10024600FFE49EFEE4200A039DFDE49CFCE4CBF85B
:10025600C20AEC700CCFCECDCCE824F8F870F3804F
:1002660017C3EF33FFEE33FEED33FDEC33FCEB3318
:10027600FB994002FB0FD8E9EB300A05F8D0E0C441
:1002860048B20AC0E00AEC4D4E4F78207B0070C29F
:10029600EAB5170040BCC0E0120304D0F0D0E0205D
:1002A6000A04C4C0E0C4B20AC0F0120092D0F0D56D
:1002B600F0EB0200E312054E01805301FA5801519A
:1002C6004C014D4201FE4F020644020649016643B7
:0802D600020C5501F04601F095
:1002DE004501F04703AC5001552D01592E017C2BE1
:1002EE00015D23017A2003952A011548000001744F
:1002FE003F3F3F00790AA2D5200C14300E09B910E9
:10030E00020404B9080104A2D5200F0250010420F2
:10031E000B68920BB516005034C0E07F20300C19DC
:10032E007F30A20B720F720E500F12035BC20BC204
:10033E000FC20EC2117F30800F300E03E9C0E012E3
:10034E0000A9300E03D0E0F9D0E0B516CC300E1770
:10035E007F30B9100C1200A97F58300D077F7880BE
:10036E0003B908031200A9300B057F2D0200A97FE7
:10037E00202011F87F2B200FF322920B80CF286EB6
:10038E00756C6C2900D20A120066300AF8C20A781F
:10039E001630D50108F60201152D504349581200AA
:1003AE00662403B405004001E49003A79312009A5B
:0D03BE00743A12009AD20C7516040201FA6E
:1004D600BB010689828A83E0225002E722BBFE0224
:0904E600E32289828A83E4932257
:1004EF00BB010CE58229F582E5833AF583E02250C2
:1004FF0006E92582F8E622BBFE06E92582F8E2220C
:0D050F00E58229F582E5833AF583E4932225
:10051C00BB010689828A83F0225002F722BBFE01BE
:02052C00F322B8
:10052E00F8E0FBA3A3E0F925F0F0E5821582700256
:07053E001583E0FA38F022FA
:09054500EBF0A3EAF0A3E9F022B7
:10054E00D083D082F8E4937012740193700DA3A33C
:10055E0093F8740193F5828883E473740293686050
:06056E00EFA3A3A380DF50
:1006E300EFB40A07740D1206EE740A309811A89934
:1006F300B8130CC2983098FDA899C298B811F63077
:0707030099FDC299F599224E
:00000001FF
